:020000040800F2
:10000000900A0020310200084D5700084F570008A1
:1000100051570008535700085557000800000000CA
:10002000000000000000000000000000575700081A
:1000300059570008000000005B5700085F57000890
:100040004B0200084B0200084B0200084B0200085C
:100050004B0200084B0200083B42000853420008D4
:100060006B420008834200089B4200084B020008D4
:100070004B0200084B0200084B0200084B0200082C
:100080004B0200084B0200084B0200084B0200081C
:100090004B0200084B0200084B020008B342000864
:1000A0004B0200084B0200084B0200084B020008FC
:1000B0004B0200084B0200084B0200084B020008EC
:1000C0004B0200084B0200084B0200084B020008DC
:1000D0004B02000825290008372900084F2900088D
:1000E000054300084B0200084B0200084B020008C1
:1000F0004B0200084B0200084B0200084B020008AC
:100100004B0200084B0200084B0200084B0200089B
:10011000672900087F2900084B0200084B020008ED
:100120004B0200084B0200084B0200084B0200087B
:100130004B0200084B0200084B0200084B0200086B
:100140004B0200084B0200084B0200084B0200085B
:100150004B0200084B0200084B02000893290008DC
:100160004B0200084B0200084B0200084B0200083B
:100170004B0200084B0200084B0200084B0200082B
:100180004B0200084B02000800F002F800F041F8B2
:100190000AA090E8000C82448344AAF10107DA45E2
:1001A00001D100F036F8AFF2090EBAE80F0013F0F3
:1001B000010F18BFFB1A43F001031847006200004B
:1001C00020620000103A24BF78C878C1FAD85207DC
:1001D00024BF30C830C144BF04680C6070470000C1
:1001E0000023002400250026103A28BF78C1FBD840
:1001F000520728BF30C148BF0B607047642905F023
:10020000B983002070471FB505F010FF1FBD10B562
:1002100010BD05F064FC1146FFF7F5FF05F0CEF9BF
:1002200005F082FC03B4FFF7F2FF03BC05F086FC87
:100230000948804709480047FEE7FEE7FEE7FEE77A
:10024000FEE7FEE7FEE7FEE7FEE7FEE704480549B6
:10025000054A064B704700000B580008890100084A
:1002600090040020900A00209006002090060020B4
:100270002849084328490860704730B50F23C278E1
:1002800001780125FAB1244A126801F1E02102F453
:10029000E062C2F5E062C2F30722C2F10404D34077
:1002A0004278A24084781C401443220181F8002443
:1002B000007800F01F018D404009800000F1E0202F
:1002C000C0F8005130BD01F01F0085404809800092
:1002D00000F1E020C0F8805130BD104A11400143C8
:1002E0000D48001F016070470B4A121D002911685C
:1002F00001D0014300E08143116070474FF0E021DD
:100300000428086903D020F004000861704740F019
:100310000400FAE70000FA050CED00E080FFFF1F83
:10032000F848016841F001010160F64A00210832F5
:1003300011600268F44B1A400260031DF34A1A6010
:10034000F04BF34A84331A60F04A103A1B1D1A60CE
:10035000026822F480220260EA480C300160181D15
:1003600001607047E7490022891C0A7008707047D5
:1003700002460020510901290CD002290CD0E14984
:100380007431096802F01F02012393400B4200D030
:1003900001207047DB49F4E7DA497031F1E718B51D
:1003A00000204FF4A04400903120FFF7E1FF0099B6
:1003B000491C0091A14201D00028F5D03120FFF75F
:1003C000D7FF002800D0012018BDCE4A116821F0C7
:1003D000F80141EAC00010607047CE4908607047DC
:1003E000C849002270310A700A70012802D004281E
:1003F00001D1052008707047C7490860704741EA7D
:1004000082115A0810B5C54B029C03EB02421143FE
:10041000014341EA0460BB49091D086010BDBD49A4
:1004200008667047800140EA0170B649843108606F
:100430007047B84988667047800140EA0160B14959
:1004400040EA0270883108607047B2490867704717
:10045000B049C8647047AB4B08331A68084322F0B0
:10046000EC62104318607047A64B08331A680843C3
:1004700022F07842104318607047A24A083211688F
:1004800021F003010143116070479E480830006865
:1004900000F00C0070479B4A0832116821F0F0010F
:1004A000014311607047974A0832116821F4E05106
:1004B000014311607047934A0832116821F460418A
:1004C00041EAC0001060704770B58E4B0833196860
:1004D000934C11F00C0104D06610042903D00829B4
:1004E00003D004601BE0066019E0864A121D116803
:1004F000C1F38055116801F03F0115B1B6FBF1F170
:1005000001E0B4FBF1F114681268C4F3881461438C
:10051000C2F30142521C5200B1FBF2F101601968B2
:100520000F2202EA11117F4A545C0168E1404160E8
:100530001C68072505EA9424145D21FA04F48460FC
:100540001B6805EA5333D25CD140C16070BDC0F373
:100550000121032908D16B4B08331968724A21F431
:10056000F81102400A431A60664970310A68C0F304
:100570000B0002430A6070476749443908607047BE
:1005800065494039086070476249C1F85C017047AD
:100590005C4A8C32116821F44011014311607047AC
:1005A000584A8C32116821F44001014311607047B0
:1005B000544A8C321168401E21F01F010143116022
:1005C0007047504A8C3211686FF0FF0321F4F851E4
:1005D00003EB00200843106070474A4A8C321168D0
:1005E00021F440310143116070475049C1F8E001E6
:1005F0007047444A30320029116801D0014300E0BD
:100600008143116070473F4A34320029116801D09C
:10061000014300E08143116070473A4A38320029B3
:10062000116801D0014300E0814311607047354AF1
:1006300040320029116801D0014300E0814311607C
:100640007047304A44320029116801D0014300E06C
:100650008143116070472B4A10320029116801D084
:10066000014300E0814311607047264A143200299B
:10067000116801D0014300E0814311607047214AB5
:1006800018320029116801D0014300E08143116054
:1006900070471C4A20320029116801D0014300E054
:1006A000814311607047174A24320029116801D034
:1006B000014300E0814311607047124A5032002923
:1006C000116801D0014300E08143116070470D4A79
:1006D00054320029116801D0014300E081431160C8
:1006E0007047084A58320029116801D0014300E0E0
:1006F000814311607047034A60320029116817D0A6
:10070000014316E000380240FFFFF6EA10300024F3
:100710000030002000004742800E47420000FFFFEB
:100720000024F40000000020FFFCFF0F00104742EF
:10073000814311607047194A0029116801D00143B3
:1007400000E081431160704714490C3101280868AA
:1007500003D020F008000860704740F00800FAE776
:100760000E4A573A0029117801D0014300E0814335
:100770001170704709481030016841F080710160C4
:1007800070470146054A0020583A12680A4200D0D4
:10079000012070470149563908707047643802409B
:1007A000774910B5884206D101210846FFF753FF6B
:1007B000002101205BE07349884206D1012102201B
:1007C000FFF749FF0021022051E06F49884206D11E
:1007D00001210420FFF73FFF0021042047E06B497F
:1007E000884206D101210820FFF735FF00210820AB
:1007F0003DE06749884206D101211020FFF72BFF19
:100800000021102033E06349884206D101212020D5
:10081000FFF721FF0021202029E05F49884206D10F
:1008200001214020FFF717FF002140201FE05B4916
:10083000884206D101218020FFF70DFF0021802092
:1008400015E05749884202D1012184150AE0554933
:10085000884202D10121441504E0534988420AD15B
:10086000012104152046FFF7F6FE00212046BDE8D1
:100870001040FFF7F0BE10BDF0B5002201274FF089
:10088000030C0B6807FA02F52B40AB422CD106682B
:1008900053000CFA03F4A64306600E79D0F800E08A
:1008A0009E4046EA0E0606600E79012E01D0022E09
:1008B00012D18668A64386604E79D0F808E09E4043
:1008C00046EA0E0686604668AE43466045688E7905
:1008D0009640B6B235434560C568A543C560CC793E
:1008E0009C40C3681C43C460521C102AC9D3F0BD8D
:1008F0004FF6FF7101600021017141718171C17179
:10090000704708B541F480320092C261C16100991C
:10091000C161C169C069009008BD0246002012692A
:100920000A4200D001207047006980B27047024639
:10093000002052690A4200D001207047406980B20D
:10094000704701837047418370470AB10183704744
:10095000418370474161704742694A404261704734
:100960004B07DB0E9A40C90810B500EB8100016A05
:100970000F249C40A1430162016A1143016210BD32
:10098000000002400004024000080240000C024047
:10099000001002400014024000180240001C0240F7
:1009A000002002400024024000280240D24910B535
:1009B000884202D101214C050AE0D049884202D187
:1009C00001218C0504E0CE4988420AD10121CC05E1
:1009D0002046FFF75EFE2046BDE810400021FFF7ED
:1009E00058BE10BD7FB5044680880D4620F03F06F6
:1009F0006846FFF769FDC3490298B0FBF1F189B27F
:100A00000E43A680228822F001022280BE4B2A6873
:100A10009A421BD85200B0FBF2F080B2042800D2F8
:100A20000420491C2184A083208840F001002080FC
:100A300020884FF6F5310840A9886A89114301439F
:100A40002180A8892989084320817FBDEB88A3F5EF
:100A50003F46FF3E0BD002EBC20303EB0212B0FB9A
:100A6000F2F080B240F48040020506D007E002EBCD
:100A70004202B0FBF2F080B2F6E740F001004FF422
:100A8000967251434FF47A72B1FBF2F140F4004098
:100A9000C7E741F288310160002181804BF6FF7287
:100AA000C280018141814FF48041818170470029DA
:100AB000018802D041F0010101E021F00101018033
:100AC00070470029818C02D021F0100101E041F033
:100AD000100181847047828C01F00F0122F00F0217
:100AE0001143818470470029018802D041F480714C
:100AF00001E021F48071018070470029018802D053
:100B000041F4007101E021F400710180704712B1DD
:100B100041F0010101E001F0FE010182704700296E
:100B2000018802D041F4806101E021F480610180FC
:100B30007047828901F0FE0122F0FE02114381819B
:100B400070470029818902D041F0010101E021F0C4
:100B50000101818170470029018802D041F04001E4
:100B600001E021F04001018070470029018802D096
:100B700041F4004101E0C1F30E01018070470029FA
:100B8000018803D021F080010180704741F080018D
:100B9000FAE7B1F5804F818B02D021F4804101E06A
:100BA00041F4804181837047B1F5006F018803D023
:100BB00021F400610180704741F40061FAE7B1F56A
:100BC000005F018803D021F400510180704741F497
:100BD0000051FAE70029018802D041F0100101E03C
:100BE00021F010010180704701827047008AC0B275
:100BF00070470029018802D041F4805101E021F4BE
:100C0000805101807047B1F5006F018803D021F455
:100C100000610180704741F40061FAE70029018812
:100C200002D041F0200101E021F020010180704755
:100C3000008B000A70470029818802D041F40061CE
:100C400001E021F40061818070470029818802D091
:100C500041F4805101E021F480518180704708B552
:100C600008440090008808BD002A828801D00A4309
:100C700000E08A4382807047034600209A8A1B8BDB
:100C800042EA034222F07F42914300D101207047A3
:100C9000818A008B41EA004121F07F4070470CB50A
:100CA0000246002000920A0F21F07F41019202D0FB
:100CB000009A143202E0009A090C1832009212686D
:100CC0000A4200D001200CBDC9438182704710B593
:100CD000034600209A884FF4E06404EA11449B8A9A
:100CE000224021F07F410B4202D0002A00D0012097
:100CF00010BDC94381827047005400400058004035
:100D0000005C004040420F00A0860100CD4910B5B4
:100D1000884206D101211020FFF7C5FC00211020D8
:100D200020E0C949884202D101214C0429E0C74989
:100D3000884202D101218C0423E0C549884202D1B6
:100D40000121CC041DE0C349884202D101210C05D8
:100D500017E0C149884209D101212020FFF7A3FCF7
:100D600000212020BDE81040FFF79DBCBB49884210
:100D700002D101218C0704E0B94988420AD101213E
:100D800044052046FFF785FC2046BDE810400021C1
:100D9000FFF77FBC10BD7FB50446008A0D46C988A9
:100DA00020F4405001432182A08941F20C61884324
:100DB000A9882A8911436A8902431143A181A08A23
:100DC00020F44071A8890843A0826846FFF77CFBA5
:100DD0009C48844202D0A048844201D1039800E09C
:100DE0000298A189090400EBC00101EB00102968F9
:100DF00001D5490000E08900B0FBF1F06422B0FBAE
:100E0000F2F109010B096FF018056B4300EB830049
:100E1000A3891D044FF0320306D503EBC000B0FBDD
:100E2000F2F000F0070005E003EB0010B0FBF2F079
:100E300000F00F00084320817FBD4FF41651016080
:100E400000218180C18001810C2242818181704713
:100E500010B5028A4C8822F470630A8822438C8879
:100E6000C9880C4322431A43028210BD002101802D
:100E700041808180C18070470029818902D041F47E
:100E8000005101E021F4005181817047028B02F48E
:100E90007F420283028B0A430283704700298189C3
:100EA00002D041F4004101E0C1F30E01818170479D
:100EB0000029818A02D041F4006101E021F400613F
:100EC00081827047C1F30801818070478088C0F338
:100ED00008007047028A22F00F020282028A0A4347
:100EE000028270470029818902D041F0020101E0AD
:100EF00021F0020181817047828922F4006282819F
:100F000082890A4382817047028A22F0200202828B
:100F1000028A0A43028270470029018A02D041F402
:100F2000804101E021F4804101827047818941F0D4
:100F30000101818170470029818A02D041F00801B6
:100F400001E021F0080181827047028BD2B2028356
:100F5000028B42EA0121018370470029818A02D075
:100F600041F0200101E021F0200181827047002939
:100F7000818A02D041F0100101E021F0100181824C
:100F80007047828A22F004028282828A0A43828225
:100F900070470029818A02D041F0020101E021F06E
:100FA000020181827047002A828A01D00A4300E050
:100FB0008A438282704710B5C1F3421301F01F04C7
:100FC0000121A140012B07D0022B07D01430002AA9
:100FD000026805D00A4304E00C30F8E71030F6E769
:100FE0008A43026010BD0246002012880A4200D0E7
:100FF00001207047C9430180704770B501F01F059B
:1010000001260024C1F3421306FA05F2012B0FD08A
:10101000022B0FD0838A4FEA11210088134206FA6F
:1010200001F600EA060001D000B10124204670BD9F
:101030008389F0E7038AEEE70A0A01219140C94358
:10104000018070470010014000440040004800400B
:10105000004C004000500040001401400078004067
:10106000007C0040FE4910B5884206D101210846A7
:10107000FFF719FB002101205BE0B0F1804F09D0A0
:10108000F84988420DD101210220FFF702FB00211F
:10109000022070E001210846FFF7FBFA0021012041
:1010A00069E0F149884206D101210420FFF7F1FAF5
:1010B000002104205FE0ED49884206D1012108208B
:1010C000FFF7E7FA0021082055E0E949884206D1F8
:1010D00001211020FFF7DDFA002110204BE0E54947
:1010E000884206D101212020FFF7D3FA00212020D9
:1010F00041E0E149884206D101210220FFF7D3FAFD
:101100000021022015E0DD49884202D101210C04B2
:101110000AE0DB49884202D101214C0404E0D949AC
:1011200088420AD101218C042046FFF7BCFA002135
:101130002046BDE81040FFF7B6BAD349884206D131
:1011400001214020FFF7A5FA0021402013E0CF49FC
:10115000884206D101218020FFF79BFA00218020E0
:1011600009E0CB4988420AD1841501212046FFF7C6
:1011700090FA00212046BDE81040FFF78ABA10BD62
:1011800030B50288B64CBC4DA0420DD0A8420BD061
:10119000B0F1804F08D0B34B984205D0B24B984283
:1011A00002D0B24B984203D122F070034A881A430E
:1011B000AF4B984206D0AF4B984203D022F4407315
:1011C0000A891A4302804A68C2620A880285A042DC
:1011D00001D0A84201D1897A01860121818230BDE6
:1011E0004FF0FF3141600021018001814180817217
:1011F0007047018582827047028822F070020A439C
:101200000280704741627047C1627047406A704710
:10121000008D70470029018802D041F0020101E0F1
:1012200021F00201018070470029018802D041F0BD
:10123000040101E021F004010180704700290188C8
:1012400002D041F0800101E021F08001018070476F
:10125000028822F00802028002880A430280704756
:10126000028822F44072028002880A43028070479A
:101270000029018802D041F0010101E021F00101C3
:101280000180704730B5028C22F001020284028C8A
:101290008388048B22F0020224F073050C882C430F
:1012A0008D8915434A882A436D4DA84202D0724D5C
:1012B000A8420DD122F00805CA8923F440732A43BD
:1012C00022F004058A882A430D8A1D434B8A2B434A
:1012D0008380048389684163028430BD70B5028CC9
:1012E00022F010020284028C8388048B0D8824F47F
:1012F000E6464FF6FF7404EA052535438E8922F051
:10130000200204EA061616434A8804EA021232430F
:10131000534EB04202D0584EB04215D122F0800652
:10132000CA8923F4406304EA0212324322F04006E1
:101330008A8804EA021232430E8A04EA86061E43B1
:101340004B8A04EA8303334383800583896881637E
:10135000028470BD70B5028C22F480720284028C0B
:101360008388848B0D8824F0730425438E894FF67F
:10137000FF7422F4007204EA062616434A8804EA3F
:1013800002223243364EB04202D03B4EB04215D11B
:1013900022F40066CA8923F4405304EA022232434D
:1013A00022F480668A8804EA022232430E8A04EA22
:1013B00006161E434B8A04EA031333438380858356
:1013C0008968C163028470BD70B5028C22F48052BA
:1013D0000284058C8288838B0C8823F4E6464FF6C2
:1013E000FF7303EA0424344325F400568D8903EA8D
:1013F000053535434E8803EA06362E43184DA8427C
:1014000002D01D4DA84205D122F480450A8A03EA84
:1014100082122A438280848389680164068470BDB5
:10142000002101804180818081608181C1810182B0
:101430004182704730B50124058C00F118038C40BF
:10144000A543058431B308292CD0091FC1F34E00F0
:101450001844016848F6FF731940016001681AE0FA
:10146000000001400004004000080040000C004063
:101470000010004000140040000401400040014002
:10148000004401400048014000180040001C00409A
:101490000020004006E04FF6FF7303EA02221143EA
:1014A000016030BD03EB510001684FF68F731940A6
:1014B00001600168F3E74163704781637047C1636E
:1014C000704701647047028B22F070020A43028366
:1014D0007047028B4FF6FF7322F4E04203EA0121CA
:1014E000114301837047828B22F070020A4382838A
:1014F0007047828B4FF6FF7322F4E04203EA01212A
:10150000114381837047028B22F008020A43028351
:101510007047028B4FF6FF7322F4006203EA012149
:10152000114301837047828B22F008020A438283B1
:101530007047828B4FF6FF7322F4006203EA0121A9
:10154000114381837047028B22F004020A43028315
:101550007047028B4FF6FF7322F4806203EA012189
:10156000114301837047828B22F004020A43828375
:101570007047828B4FF6FF7322F4806203EA0121E9
:10158000114381837047028B22F080020A43028359
:101590007047028B4FF6FF73C2F30E0203EA01217C
:1015A000114301837047828B22F080020A438283B9
:1015B0007047828B4FF6FF73C2F30E0203EA0121DC
:1015C000114381837047028C22F002020A43028495
:1015D0007047028C22F008020A4302847047028C92
:1015E0004FF6FF7322F0200203EA01111143018438
:1015F0007047028C4FF6FF7322F0800203EA01115C
:10160000114301847047028C4FF6FF7322F400727D
:1016100003EA0121114301847047028C4FF6FF73E6
:1016200022F4006203EA0121114301847047028C15
:101630004FF6FF7322F4005203EA01311143018493
:10164000704710B50123048C8B409C430484038CA9
:101650008A401343038410BD10B50423048C8B40CF
:101660009C430484038C8A401343038410BD828B03
:1016700022F440628283828B4FF6FF7303EA0121DA
:101680000A4382837047828B22F00C028283828B12
:101690000A4382837047028B22F440620283028BEA
:1016A0004FF6FF7303EA01210A4302837047F0B546
:1016B000048C24F010040484078B068C4FF6FF740E
:1016C00004EA011527F4734704EA0331394304EAB5
:1016D00002220A4326F0A001294341F010010283AF
:1016E0000184F0BD028B22F00C020283028B0A43BC
:1016F000028370472DE9F0410C460E884988A28884
:10170000238905460EB3042E26D0082E2E8C4FF6C4
:10171000FF7028D026F480562E84AF8B2E8C00EAE2
:10172000022200EA013127F473473A4300EA03300A
:10173000104326F420420A4342F48051A8832984AE
:10174000E1882846BDE8F04191E700F062F9E188C0
:101750002846BDE8F041C5E7FFF7A9FFE188284624
:10176000BDE8F04197E726F480762E84AF8B2E8C6F
:1017700000EA012100EA0310104327F0F307384381
:1017800026F420620A4342F48071A8832984E18808
:101790002846BDE8F04176E7002101804180012222
:1017A0008280C180018170472DE9F0410C460026FE
:1017B00049880746012501B90226A288012A00D1DD
:1017C0000225208823890028384610D0FFF76FFFB4
:1017D000E1883846FFF75FFF23892A4631463846BD
:1017E00000F017F9E1883846BDE8F0417AE700F0EB
:1017F00010F9E1883846FFF775FF23892A463146FC
:101800003846FFF754FFE1883846BDE8F04142E72B
:10181000406B7047806B7047C06B7047006C7047BF
:1018200010B50A884B88CC881A438B8823431A4307
:101830000B891A434B8989891A430A43A0F844202B
:1018400010BD0021018041808180C18001814181E2
:1018500081817047002930F8441F02D041F40041D3
:1018600001E0C1F30E01018070470029818802D098
:1018700041F0040101E021F004018180704700295A
:10188000818802D041F0010101E021F00101818055
:101890007047002A828901D00A4300E08A4382818E
:1018A00070478182704702460020128A0A4200D0A7
:1018B00001207047C9430182704702460020138A05
:1018C00092890B4202EA010202D0002A00D00120D4
:1018D0007047C943018270471143A0F84810704710
:1018E000002A828901D00A4300E08A43828170473E
:1018F0000029818802D041F0080101E021F00801AF
:1019000081807047018921F00701018170470289B8
:1019100022F070020A430281704700B50346FFF7C8
:10192000F6FF188940F00700188100BD70B5164613
:101930000D46602904464FF0010231460AD000F0FE
:1019400068F829462046FFF7E2FF208940F00700AB
:10195000208170BDFFF7ABFEF3E730B504894FF689
:10196000FF7505EA03231343E4B20B4323430381CA
:1019700030BD10B50446FFF7F0FF208940F0770036
:10198000208110BD10B50446FFF7E7FF208940F421
:101990008040208110BD828822F07002828082887F
:1019A0000A4382807047028922F00702028102897D
:1019B0000A4302817047028922F080020281028973
:1019C0000A430281704770B50589048B068C25F0A7
:1019D00007050D434FF6FC410C4040F201110C434A
:1019E0004FF6FF7101EA031126F02206114331433D
:1019F00005810483018470BD0029818802D041F0F3
:101A0000800101E021F0800181807047A0F8501032
:101A1000704770B5048C24F001040484058B048C99
:101A20004FF6FF7606EA0313134325F0F3052B4325
:101A300024F00A020A4342F001010383018470BDCD
:101A400010B501210C022046FEF72DFE2046BDE810
:101A500010400021FEF727BE30B54268C84B0C7914
:101A60001A400B6842EA0422134343608268C54B64
:101A70004D791A40D1E9034323438C6844EA450475
:101A8000234313438360C26A097D22F47002491E16
:101A9000C9B242EA0151C16230BD00210160017149
:101AA00041718160C1600161012101757047B64BD0
:101AB00010B5D3F80423B5490A40D0E900142143F6
:101AC000D0E90240044321431143C3F8041310BD7D
:101AD0000021016041608160C16070470029816818
:101AE00002D041F0010101E021F001018160704765
:101AF0004268A74B1A400A434260704741628262C3
:101B00007047426822F01F020A43426070479E49B4
:101B10000028D1F8040302D040F4000001E020F4D2
:101B20000000C1F80403704797490028D1F8040366
:101B300002D040F4800001E020F48000C1F80403EA
:101B4000704770B5072609290AD9C568A1F10A04AA
:101B500004EB4404A640B543A3401D43C56007E021
:101B6000056901EB4104A640B543A3401D4305614F
:101B70001F23072A09D2446B521E02EB82029340B4
:101B80009C4391400C43446370BD0D2A09D2046B01
:101B9000D21F02EB820293409C4391400C430463AA
:101BA00070BDC46A0D3A02EB820293409C4391409F
:101BB0000C43C46270BD816841F080418160704710
:101BC000014600208968490000D50120704700299E
:101BD000816802D041F4806101E021F4806181607C
:101BE00070470029816802D041F0020101E021F034
:101BF0000201816070474268491E22F4604242EA55
:101C00004131416070470029416802D041F40061D0
:101C100001E021F4006141607047C06C80B2704700
:101C20005948D0F8080370470029816802D041F470
:101C3000807101E021F48071816070470029816822
:101C400002D041F4007101E021F40071816070471D
:101C50004D490028D1F8040302D040F4005001E0BF
:101C600020F40050C1F80403704770B50726092915
:101C70000AD9C568A1F10A0404EB4404A640B5439F
:101C8000A3401D43C56007E0056901EB4104A64080
:101C9000B543A3401D430561836BC3F30154121B7D
:101CA000921C02EB82021F249440A34391400B43F9
:101CB000836370BD826B491E22F4401242EA0151D7
:101CC0008163704708B508440090026008BD8268CF
:101CD00022F470220A4382607047826822F4401224
:101CE0000A4382607047816841F4800181607047D7
:101CF000014600208968490200D50120704700296B
:101D0000416802D041F4806101E021F480614160CA
:101D100070470029416802D041F4805101E021F46C
:101D200080514160704708B5084428300090006831
:101D300080B208BD01238B4041680AB1194300E01D
:101D40009943416070470246002012680A4200D061
:101D500001207047C9430160704730B5024600203A
:101D600053680C0A01258D4011682B40214202D096
:101D7000002B00D0012030BD6FEA112101607047B7
:101D8000FFFEFFFCFDF7FFC000200140E030FCFF3C
:101D9000FFFD3FFFC14910B5884202D101218414E3
:101DA00024E0BF49884202D10121041404E0BD4966
:101DB00088420AD10121C4132046FEF76AFC20465E
:101DC000BDE810400021FEF764BCB749884202D14B
:101DD000012144140AE0B549884202D101210C05D1
:101DE00004E0B34988420AD101214C052046FEF7A0
:101DF0005AFC2046BDE810400021FEF754BC10BD3F
:101E000030B502884C8802F441530A88CD882243B9
:101E10008C882C4322430C8922434C8922438C8991
:101E20002243CC8922431A430280828B22F400622F
:101E30008283098A018230BDF0B502220023858B9E
:101E400001244FF24006354085830284868B8D68DD
:101E5000022D3DD08A8802B10224964A13681B02E3
:101E600003D5136823F400031360924A7C3213688D
:101E70001268C3F388138F4FC2F302723F1F3D688D
:101E80003F6805F03F057F0201D58B4F00E08B4F87
:101E9000B7FBF5F55D43B5FBF2F2CB88B3F5007FF8
:101EA0002BD06301B2FBF3F202EB82028B6852008B
:101EB000B2FBF3F2521D92B20A23B2FBF3F202F02C
:101EC0000103D21A4FF6FF74C2F34F0204EA032350
:101ED000941EFE2C01D302220023CC881A43144303
:101EE00004840A884B881A438B8889890B431A43D8
:101EF000324342F400618183F0BD120AD4E700212D
:101F0000018041808180C180018141818181C181C5
:101F10000721018270470021018041808180C180BA
:101F200002228260818170470029018802D041F03D
:101F3000400101E021F04001018070470029818BC0
:101F400002D041F4806101E021F480618183704717
:101F5000028822F40062028002880A4302807047ED
:101F6000B1F5804F018803D021F480410180704792
:101F700041F48041FAE7A1F57E420188FF3A02D0A0
:101F800041F4807101E021F48071018070470029E3
:101F9000818802D041F0040101E021F00401818038
:101FA00070470029818802D041F0100101E021F042
:101FB00010018180704730B5828B00234FF24004BE
:101FC0002240828302220284848B0A884FF4807527
:101FD000B2F5007F00D002B92B464A888D888989E6
:101FE0002A4319430A43224342F40061818330BDEE
:101FF00080897047818170470029018802D041F4AF
:10200000005101E021F4005101807047018841F442
:10201000805101807047012901D0008B7047808A70
:102020007047008A7047002A828801D00A4300E086
:102030008A4382807047090901238B40002A8288E5
:1020400099B201D00A4300E08A4382807047024679
:10205000002012890A4200D001207047C943018143
:10206000704730B501F00F030125024605FA03F46D
:102070000020A3B2090905FA01F49188A4B21289DB
:1020800021401A4202D0002900D0012030BD01F0C9
:102090000F0201219140C943018170470030014086
:1020A00000380040003C0040003401400050014036
:1020B000005401400838024000127A000024F40065
:1020C000234810B54168491C4160816811B181689D
:1020D000491E8160AFF3008010BD10B51C4C207804
:1020E000002821D10120FEF73DF9FEF758F900281C
:1020F000FBD0184801684FF47A70B1FBF0F0401E35
:10210000B0F1807F11D24FF0E0225061124BF020ED
:1021100083F8140D00209061072010610F48B1FB77
:10212000F0F0E0600120207010BDFEE70848007864
:10213000002805D04FF0E020016941F00201016163
:1021400070474FF0E020016921F002010161704702
:1021500010000020D00000200FE000E0C0C62D00DD
:102160002DE9F041044641F0D000794F154620702A
:102170001E46764A0021384600F095FC2178384604
:1021800000F056FE48B121787522384600F061FD16
:10219000682804D00220BDE8F0810120FBE7217807
:1021A00000236B22384600F0D7FD21781C223846E8
:1021B00000F04FFD00F0E70040EAC500C3B221780F
:1021C0001C22384600F0C8FD21781B22384600F05A
:1021D00040FD00F0E70040EAC600C3B221781B22B0
:1021E000384600F0B9FD35B1012D07D0022D08D0D9
:1021F000032D0DD108E09FED570A07E09FED560A29
:1022000004E09FED560A01E09FED550A84ED020AB5
:1022100036B1012E07D0022E08D0032E0DD108E0D2
:102220009FED500A07E09FED500A04E09FED4F0A32
:1022300001E09FED4F0A84ED010A0020ABE73EB5B7
:10224000044606200090217801AB3B22404800F074
:1022500035FDBDF8040040BAA081BDF8060040BAC3
:10226000E081BDF8080040BA208200203EBD3EB5A6
:10227000044606200090217801AB4322344800F048
:102280001DFDBDF8040040BA6082BDF8060040BAEA
:10229000A082BDF8080040BAE08200203EBD1CB517
:1022A000044602200090217801AB4122284800F02A
:1022B00005FDBDF80400DFED2F0A40BA00B200EEC4
:1022C000100A0020B8EEC00A80EE201A9FED2A0AFC
:1022D00031EE000A84ED060A1CBD10B586B0044636
:1022E0000E200090217801AB3B22194800F0E6FC5B
:1022F000BDF804009FED1F1A40BAA081BDF806008A
:1023000040BAE081BDF8080040BA2082BDF80A005A
:1023100040BA00B200EE100AB8EEC00AC0EE010AE0
:102320009FED150A30EE800A84ED060ABDF80C0018
:1023300040BA6082BDF80E0040BAA082BDF810001D
:1023400040BAE08206B0002010BD0000801A0600EE
:10235000005C004000008038000000390000803937
:102360000000003A2D23FA3B2D237A3C90C1F93C22
:1023700090C1793D0000AA43B81E1242FE4A0146B0
:10238000904200D10020FD4A914200D10120FC4A38
:10239000914200D10220FB4A914200D10420FA4A26
:1023A000914200D10520F94A914200D106207047A0
:1023B00070471CB50822032138B101280CD003282E
:1023C00002D1F248FFF7F4FF1CBDCDE90012012352
:1023D0000022C021EE4806E0CDE9001201230022D0
:1023E0004FF48441EB4800F0C8FD1CBD7CB528B11A
:1023F000032802D1E448FFF7DBFF7CBD0825032456
:10240000012300221903E248CDE9004500F0B5FDA3
:10241000012300220421E048CDE9004500F0ADFD94
:102420007CBD1CB50822032138B101280CD003283B
:1024300002D1D448FFF7BCFF1CBDCDE90012012337
:1024400000220321D54806E0CDE900120123002235
:102450004FF44061CE4800F090FD1CBD1CB5072232
:102460000323990248B101280DD0022811D0032876
:1024700002D1C348FFF79CFF1CBDCDE90032012308
:102480000022C7480CE0CDE9003201230022C048F9
:1024900006E0CDE90032012300224FF44071BE482E
:1024A00000F06BFD1CBD1CB50722032138B10128CB
:1024B0000CD0032802D1B148FFF77AFF1CBDCDE94B
:1024C0000012012300220C21B44805E0CDE90012DE
:1024D000012300226021B04800F04FFD1CBD1CB557
:1024E0000722032138B101280DD0032802D1A248C8
:1024F000FFF75EFF1CBDCDE90012012300224FF45F
:10250000C061A64805E0CDE9001201230022C021E8
:10251000A34800F032FD1CBD974A0146904200D10D
:10252000A048964A914201D19E481030944A914267
:1025300001D19C482030934A914201D199483030D2
:10254000914A914201D197484030904A914201D13D
:102550009448503070472DE9FF4F85B09A46DDE929
:1025600012B913460446DDF85480FFF7D5FF05463F
:1025700081488D4F0193844209D1386840F01000A2
:1025800038600698FFF7ABFF25208DF80000864ED7
:102590007A48361F844209D1306840F400303060F8
:1025A0000698FFF780FF26208DF8000074488442CB
:1025B00009D1306840F4802030600698FFF74EFF64
:1025C00027208DF800006F48844209D1306840F41C
:1025D000002030600698FFF724FF34208DF80000BB
:1025E0006948844209D1306840F480103060069810
:1025F000FFF7FCFE35208DF800006448844209D1C5
:10260000386840F0200038600698FFF7D2FE472077
:102610008DF800001498ADF80A00ADF80EB0ADF8D2
:1026200010A0ADF80C90ADF8088000202873A089A8
:1026300020F40050A08101A92046FEF7ACFBA08940
:1026400040F02000A08101268DF8036006208DF85F
:1026500001002046FFF792FE8DF802006846FDF764
:102660000CFE2E73A08940F40050A08109B0BDE893
:10267000F08F2DE9FF4104463F4800250C26174600
:102680008846844206D1CDE9006502950023039572
:10269000FFF761FF3948844208D1CDE90065029512
:1026A00000233A4641460395FFF755FF34488442DC
:1026B00008D1CDE90065029500233A4641460395CD
:1026C000FFF749FF2F48844208D1CDE90065029504
:1026D00000233A4641460395FFF73DFF2A488442CE
:1026E00008D1CDE90065029500233A46414603959D
:1026F000FFF731FF2548844208D1CDE900650295F6
:1027000000233A4641460395FFF725FFBDE8FF81C8
:102710002DE9FF470446184800250C261F46904621
:102720008946844205D1CDE9006502950395FFF7FE
:1027300012FF1248844208D1CDE9006502953B465C
:10274000424649460395FFF706FF0D48844208D1EB
:10275000CDE9006502953B46424649460395FFF7A1
:10276000FAFE0848844223D1CDE9006502953B4634
:1027700042464946039519E00010014000440040DC
:1027800000480040004C0040005000400014014050
:102790000008024000180240000C02400000024005
:1027A000000402402000002044380240FFF7D3FE1E
:1027B0007E48844208D1CDE9006502953B464246F9
:1027C00049460395FFF7C7FE7948844208D1CDE911
:1027D000006502953B46424649460395FFF7BBFE1E
:1027E000BDE8FF8700B50023FFF796FEC28862B1FF
:1027F00041898388994201D100214181036889B2CE
:102800005B56491C4181521EC280D8B200BD00B542
:10281000FFF782FEC1888088814201D1012000BD7E
:10282000002000BD10B50C46FFF776FEC388428934
:102830000DE08188914200D100220168895CA142AB
:1028400001D1012010BD521C5B1E92B29BB2002B25
:10285000EFD1002010BD00B5FFF75EFEC08808B1C3
:10286000002000BD012000BDF0B515460E4607460C
:102870000024FFF7F0FFC0B90A213846FFF7D2FF66
:1028800018B93846FFF7C3FF78B16D1EAC4208DABD
:102890003846FFF7A7FF305504F101040A28A4B217
:1028A000F4D1002030552046F0BD0020F0BD00B529
:1028B000FFF732FE0021C1800181418100BD10B5CA
:1028C0000B460446FFF728FE007B002808D004E0F2
:1028D000A1805B1C21880906FCD519780029F7D155
:1028E00010BD03B50346FFF717FE007B002805D097
:1028F0009DF80400988019880906FCD50CBDC38892
:10290000828893420DD20389934201D10022028131
:1029100003890268D1540189491C0181C188491C7D
:10292000C180704723480188890603D58088C1B2D9
:102930002148E4E7704721480088800606D51F48F3
:10294000001D0088C1B21C481030D8E770471C48F1
:102950000088800606D51A48001D0088C1B21648B6
:102960002030CCE7704717480088800606D5154808
:10297000001D0088C1B210483030C0E770470B48D6
:102980000188890604D58088C1B20B484030B6E77B
:10299000704707480088800606D50548001D008856
:1029A000C1B205485030AAE770470000005000400F
:1029B00000140140001001402000002000440040AD
:1029C00000480040004C00407CB50425012438B18B
:1029D000012812D0032802D1F748AFF300807CBD54
:1029E00001231A461902F548CDE9004500F0C5FA61
:1029F00001231A465902F24804E00123F1481A461D
:102A00004FF4C071CDE9004500F0B7FA7CBD1CB5AC
:102A10000421012248B101280FD0022814D0032834
:102A200002D1E948AFF300801CBDCDE900210123AC
:102A30001A464FF44061E5480CE0CDE9002101233E
:102A40001A460321E24805E0CDE9002101231A4698
:102A50003021DC4800F091FA1CBD1CB50421DB4C90
:102A6000012248B101280DD0022812D0032802D13A
:102A7000D848AFF300801CBDCDE9002101231A46E0
:102A8000C0210CE0CDE9002101231A464FF440712A
:102A900005E0CDE9002101231A464FF410712046CC
:102AA00000F06BFA1CBD2DE9FF4715460446C94AE4
:102AB0000026C948C94F4FF480484BF6FF7994422D
:102AC0000CD1026842F4001202600846FFF7C5FF0D
:102AD0003868A84200D93D6038681EE0BA4A94427E
:102AE0000CD1026842F4800202600846FFF78FFFB3
:102AF0007868A84200D97D6078680EE0AE4A9442BA
:102B000016D1026842F4000202600846FFF75CFF3B
:102B1000B868A84200D9BD60B868ADF80460ADF8E7
:102B200008600090ADF80C80ADF80A60ADF8069032
:102B3000208820F00100208069462046FDF752FFE2
:102B4000208840F001002080BDE8FF8770B5044672
:102B5000008820F480602080208840F4007020806D
:102B60009E4D44F620602D1F9D4E286003E02A688C
:102B7000521E2A6008D031462046FEF77DF8002814
:102B8000F5D0208AC0B270BD012070BD70B504467A
:102B9000008840F480702080904D44F620662D1F00
:102BA0002E6003E02868401E28602AD0A08AC00753
:102BB000F8D01BB1208840F4806020805AB921F001
:102BC000010020822E6003E02868401E286018D093
:102BD000A08A8007F8D5012A10D141F00100208297
:102BE0002E607F4E3E3E03E02868401E286008D0DD
:102BF00031462046FEF740F80028F5D0208B002013
:102C000070BD012070BD754A44F62061121F11602D
:102C100003E01168491E11600BD0818A0906F8D5BE
:102C2000818A4907F5D5018841F4007101800020AF
:102C3000704701207047694B44F620621B1F1A60E1
:102C4000828A120603D41A680AB1521EF7E701827B
:102C5000704770B5164600230C4605461A46FFF726
:102C600095FF31462846FFF7E6FF2846FFF7CBFFE2
:102C70000023012221462846FFF788FF2846BDE8A9
:102C8000704063E770B50546008840F48060288096
:102C9000524C44F62060241F514E206003E022680D
:102CA000521E226008D031462846FDF7E5FF002875
:102CB000F5D0288AC0B270BD012070BD2DE9F04169
:102CC0001D4616460C46804601230022069FFFF74C
:102CD0005DFF31464046FFF7AEFF4046FFF793FFEA
:102CE00001231A4621464046FFF750FF00247E1E6E
:102CF0000AE0B442404602D1FFF728FF01E0FFF7A7
:102D0000C1FF2855641CE4B2BC42F2D3BDE8F08197
:102D100010B5012304461A46FFF738FF2046BDE8E8
:102D2000104013E72DE9F0411E4615460123804669
:102D30001A46FFF72BFF0024771E0AE0BC424046EC
:102D400002D1FFF703FF01E0FFF79CFF2855641C49
:102D5000E4B2B442F2D3D9E770B51D46164600235B
:102D600004461A46FFF712FF31462046FFF763FF7D
:102D700029462046FFF75FFF2046BDE8704042E746
:102D80002DE9F0411D461446002307461A46069ECB
:102D9000FFF7FCFE21463846FFF74DFF002405E013
:102DA000295D3846FFF747FF641CE4B2B442F7D30D
:102DB0003846BDE8F04126E7005C004000000240D4
:102DC00000080240001C024000580040000402407D
:102DD00000140240005400404038024084000020AB
:102DE0004000030070B51546002304461A46FFF75D
:102DF000CDFE29462046FFF71EFF2046BDE8704065
:102E000001E72DE9F0411D461646002307461A4604
:102E1000FFF7BCFE002405E0315D3846FFF70BFFED
:102E2000641CE4B2AC42F7D33846BDE8F041EAE6B0
:102E300070B50024054601232246FFF7A7FE00B91E
:102E400001242846FFF7DFFE204670BD2DE9F04F34
:102E50008A46DDE9099C00214FF0010B4FF0030E7B
:102E60000BFA01F515EA0A0F21D007684C000EFA9B
:102E700004F6B74302FA04F847EA08070760012A94
:102E800001D0022A0DD14768ADB2AF4303FA01F574
:102E9000ADB22F43476085680CFA04F7B5433D4354
:102EA0008560C568B54309FA04F63543C560491C19
:102EB000C9B21029D4D3BDE8F08FB04AB0499042CE
:102EC00003D10A6842F001020A60AE4A904203D17F
:102ED0000A6842F002020A60AB4A904203D10A68D3
:102EE00042F004020A60A94A904203D10A6842F003
:102EF00008020A60A64A904203D10A6842F0100212
:102F00000A60A44A904203D10A6842F020020A6093
:102F1000A14A904203D10A6842F040020A609F4AE7
:102F2000904203D10A6842F080020A609C4A9042B3
:102F300003D10A6842F480720A609A4A904203D12F
:102F40000A6842F400720A60974A904203D1086806
:102F500040F4806008607047FCB51646DDE907C59F
:102F60000C00074608D0FFF7A8FFCDE900C53246A0
:102F700021463846FFF76AFFFCBD2DE9FC4F994614
:102F8000DDE90BB792460D00064622D0FFF795FF0C
:102F9000002201214FF00F0C01FA02F028420DD05F
:102FA000D00806EB8003186A5407E40E0CFA04F804
:102FB00020EA080007FA04F420431862521C102A81
:102FC000EAD3CDE9009B5346022229463046FFF75B
:102FD0003DFFBDE8FC8FF0B500220125032605FA70
:102FE00002F30B4205D00468570006FA07F31C43AE
:102FF0000460521CD2B2102AF1D3F0BDF0B5002209
:103000000125032605FA02F30B4205D00468570098
:1030100006FA07F39C430460521CD2B2102AF1D383
:10302000F0BDF0B500220127032607FA02F33C4663
:103030000B4208D00568530006FA03FC25EA0C058C
:103040009C4025430560521CD2B2102AEDD3F0BD3E
:10305000F0B500220125032605FA02F30B4205D044
:103060000468570006FA07F31C430460521CD2B2EE
:10307000102AF1D3F0BD0146424A0020914200D10E
:103080000120414A914200D10220404A914200D1A0
:1030900003203F4A914200D104203E4A914200D190
:1030A00005203D4A914200D106203C4A914200D180
:1030B00007203B4A914200D108203A4A914200D170
:1030C0000920394A914200D10A207047002102E0CC
:1030D000491C89B240080128FAD808467047274A97
:1030E0002749904203D10A6822F001020A60254A6A
:1030F000904203D10A6822F002020A60224A9042FA
:1031000003D10A6822F004020A60204A904203D1E7
:103110000A6822F008020A601D4A904203D10A6838
:1031200022F010020A601B4A904203D10A6822F082
:1031300020020A60184A904203D10A6822F0400235
:103140000A60164A904203D10A6822F080020A609F
:10315000134A904203D10A6822F480720A60114A2D
:10316000904203D10A6822F400720A600E4A90422B
:1031700003D1086820F480600860704700000240B6
:10318000303802400004024000080240000C0240B7
:10319000001002400014024000180240001C0240CF
:1031A0000020024000240240002802407FB504466F
:1031B0000D466846FDF788F94FF6FF70A860B4F138
:1031C000804F02D0AC498C4205D1039828604FF063
:1031D000FF30686028E0A9498C420BD0A8498C4296
:1031E00008D0A8498C4205D0A7498C4202D0A749F3
:1031F0008C4201D1019915E0A5498C4211D0A54915
:103200008C420ED0A4498C420BD0A4498C4208D0E9
:10321000A3498C4205D0A3498C4202D0A2498C42DA
:1032200005D10399C5E90010002004B070BD02204B
:10323000FBE72DE9F04704462DED028BB0EE408A06
:10324000F0EE608A0025006802F04DFE53EC182B6A
:1032500002F05CFE07D22561E56003206561BDECEC
:10326000028BBDE8F0879FED910B51EC180B53ECEE
:10327000102B02F0CFFD03D12561E560656124E0EC
:103280006068B0F5803F01D2401C60602561D4E9E0
:1032900001862768A946761C6D1CB7FBF5F002F085
:1032A00022FE53EC182B02F05DFC02F0EFFDC4E9A6
:1032B0000305404501D9B542EED9B54207D9C4F856
:1032C0001090C4F80C90C4F814900420C7E751EC97
:1032D000180B02F0DBFD60610020C0E76749754A0A
:1032E000884203D1116841F0010111607149091F41
:1032F000B0F1804F55D0664B984203D10B6843F034
:1033000002030B60634B984203D10B6843F0040344
:103310000B60594B984203D10B6843F008030B60D4
:103320005D4B984203D10B6843F010030B605B4B7D
:10333000984203D10B6843F020030B60504B984236
:1033400003D1136843F0020313604E4B984203D13C
:10335000136843F4803313604B4B984203D11368D6
:1033600043F400331360494B984203D1136843F48C
:10337000802313604A4A904203D10A6842F0400217
:103380000A60484A904203D10A6842F080020A600B
:10339000454A904203D1086840F4807008600020DC
:1033A0007047086840F00100F8E73449414A884214
:1033B00003D1116821F0010111603E49091FB0F1EC
:1033C000804F55D0324B984203D10B6823F0020353
:1033D0000B60304B984203D10B6823F004030B6061
:1033E000254B984203D10B6823F008030B602A4B4E
:1033F000984203D10B6823F010030B60274B9842CF
:1034000003D10B6823F020030B601D4B984203D1BE
:10341000136823F0020313601A4B984203D1136818
:1034200023F480331360184B984203D1136823F4BC
:1034300000331360154B984203D1136823F48023A3
:103440001360174A904203D10A6822F040020A60D2
:10345000144A904203D10A6822F080020A60124A9C
:10346000904203D1086820F4807008600020704703
:10347000086820F00100F8E7000C0040000001405F
:103480000004014000400140004401400048014068
:1034900000040040000800400010004000140040FC
:1034A00000180040001C0040002000400000000008
:1034B000000000004438024030B505462DED028B77
:1034C00089B0FD48B0EE408AF0EE608A0C46854235
:1034D00002D0FA48854204D1042009B0BDEC028B29
:1034E00030BD694628462560FFF760FE009802F06F
:1034F000FAFC53EC182B02F009FD43D39FEDF00BBF
:1035000051EC180B53EC102B02F084FC01D102207B
:10351000E3E7B0EE480AF0EE680A6846FFF789FE76
:10352000039870B351EC180B02F0B0FC53EC182B5D
:103530009FEDE50BE06051EC100B02F013FB02F085
:10354000A5FC2061039860600498A0602846FFF7FE
:10355000C5FE04980399401EADF818000020491ECE
:10356000ADF82000ADF81A0007918DF8220006A9E9
:103570002846FDF705FE01212846FDF779FE0020CB
:10358000ABE7FFE70120A8E71CB502004FF00600FB
:1035900001D005201CBD0923032259B10129F9D10D
:1035A000CDE9002300231A464902C948FFF7E5FC8C
:1035B00000201CBDCDE9002300231A468021C54808
:1035C000F4E71CB502004FF0060001D005201CBD39
:1035D0000923032259B10129F9D1CDE900230023A0
:1035E0001A460902BA48FFF7C8FC00201CBDCDE905
:1035F000002300231A460221B648F4E77CB50200F6
:10360000B54CB64D4FF006004FF009064FF00303DE
:1036100003D0012A15D005207CBD39B10129FBD189
:10362000CDE9003600231A46402112E0CDE90036EC
:1036300000231A464FF4804113E0FFF79EFC002060
:103640007CBD41B10129FBD1CDE9003600231A46EA
:1036500049022846F1E7CDE9003600231A464FF427
:1036600000412046E9E71CB502004FF0060001D0FA
:1036700005201CBD032259B10129FAD10092002373
:1036800001921A4680219248FFF777FC00201CBD6A
:103690000092002301921A464FF400718E48F3E71E
:1036A0001CB502004FF0060001D005201CBD03220E
:1036B00059B10129FAD10092002301921A46402102
:1036C0008348FFF75AFC00201CBD009200230192A2
:1036D0001A464FF480718048F3E77CB502007D4CB8
:1036E0007F4D4FF006004FF0030303D0012A14D0A2
:1036F00005207CBD39B10129FBD100930193002342
:103700001A46202111E00093019300231A46042158
:1037100012E0FFF732FC00207CBD41B10129FBD152
:103720000093019300231A4640212846F1E70093B5
:10373000019300231A4608212046EAE77CB50200DF
:10374000684C694D4FF006004FF0030308D0012A82
:1037500019D0A615022A25D0032A32D005207CBD17
:1037600039B10129FBD10093019300231A4620218E
:103770002FE00093019300231A46402131E0FFF728
:10378000FCFB00207CBD39B10129FBD100930193E2
:1037900000231A4640211CE00093019300231A469F
:1037A00080211EE039B10129ECD10093019300235F
:1037B0001A4680210DE00093019300231A463146FA
:1037C0000FE041B10129DDD10093019300231A4696
:1037D00031462846D3E70093019300231A464FF45D
:1037E00000712046CBE77CB502003A4D3B4E4FF0CE
:1037F00006004FF002034FF0030407D0012A18D04F
:10380000022A25D0032A33D005207CBD39B10129F5
:10381000FBD1CDE9004300231A46890220E0CDE91F
:10382000004300231A46012130E0FFF7A6FB0020E9
:103830007CBD39B10129FBD1CDE9004300231A46F3
:10384000C9020DE0CDE9004300231A4602211DE024
:1038500041B10129ECD1CDE9004300231A46090307
:103860003046E2E7CDE9004300231A4604210DE08B
:1038700039B10129DCD1CDE9004300231A461A48A9
:10388000D3E7CDE9004300231A4608212846CCE7B8
:103890007CB50200104D154E4FF006004FF00203AC
:1038A0004FF0030424D0012A35D0022A42D0032A43
:1038B00050D005207CBD00000010004000140040E6
:1038C00000000000000000000000000080842E4185
:1038D000001402400000024000040240001C0240AC
:1038E000001002400008024000200240000C02408C
:1038F00039B10129DED1CDE9004300231A4609037D
:1039000030E0CDE9004300231A46402132E0FFF7C2
:1039100034FB0020CEE739B10129CBD1CDE90043FA
:1039200000231A4649031DE0CDE9004300231A464F
:1039300080211FE039B10129BCD1CDE9004300232A
:103940001A4689030EE0CDE9004300231A464FF4DE
:1039500080710FE041B10129ACD1CDE900430023D2
:103960001A46C9033046D2E7CDE9004300231A4680
:103970004FF400712846CAE72DE9FC410400F24FDC
:10398000F24DF34E4FF006004FF002024FF00303EA
:1039900008D0012C21D0022C37D0032C44D0052094
:1039A000BDE8FC8149B101290DD00229F8D1CDE94A
:1039B000003200231A4649023EE0CDE900320023DE
:1039C0001A46402119E0CDE9003200231A461021A1
:1039D00039E0FFF7D2FA0020E2E749B101290ED021
:1039E0000229DDD1CDE9003200231A46802123E0EF
:1039F000CDE9003200231A4680213846E9E7CDE9B7
:103A0000003200231A4620211DE039B10129C7D117
:103A1000CDE9003200231A4609020DE0CDE900325B
:103A200000231A4601210EE041B10129B8D1CDE9A8
:103A3000003200231A4649023046CAE7CDE9003277
:103A400000231A4602212846C3E77CB50200BE4D7A
:103A50004FF006004FF001034FF0030408D0BB4EB7
:103A6000012A20D0022A2DD0032A3AD0052021E7AE
:103A700049B101290DD00229F9D1CDE90043002334
:103A80001A4689033CE0CDE9004300231A46012190
:103A900036E0CDE9004300231A46202130E0FFF74D
:103AA0006CFA002006E739B10129E0D1CDE90043E5
:103AB00000231A4608211CE0CDE9004300231A46E2
:103AC00002211DE039B10129D1D1CDE90043002304
:103AD0001A4689020DE0CDE9004300231A4604216D
:103AE0000EE041B10129C2D1CDE9004300231A46BD
:103AF000C9023046D3E7CDE9004300231A46082126
:103B00002846CCE72DE9FC418C4602008E4D914EB3
:103B10004FF006004FF001034FF003044FF4007123
:103B200008D04F00012A1BD0022A2AD0032A3BD0FA
:103B3000052035E7BCF1000F07D0BCF1010FF8D12B
:103B4000CDE9004300231A463AE0CDE900430023C3
:103B50001A464FF480713BE0FFF70FFA00201FE791
:103B6000BCF1000F08D0BCF1010FE2D1CDE9004358
:103B700000231A46394623E0CDE9004300231A46C4
:103B800026E0BCF1000F09D0BCF1010FD1D1CDE985
:103B9000004300231A464FF4005111E0CDE90043E1
:103BA00000231A46394613E0BCF1000F0AD0BCF1DD
:103BB000010FBED1CDE9004300231A464FF48041E6
:103BC0003046C9E7CDE9004300231A464FF40061AF
:103BD0002846C1E70B4600685F49884202D111467A
:103BE00018468FE7B0F1804F05D05C49884205D177
:103BF00011461846C0E61146184626E7584988423D
:103C000002D11146184643E65649884202D1114670
:103C10001846E8E55449884202D1114618468DE518
:103C20005249884202D11146184656E55049884209
:103C300002D11146184633E54E49884202D1114659
:103C4000184610E54C49884202D111461846D5E481
:103C50004A49884202D111461846B2E4484988428E
:103C600002D1114618468FE40420704710B504466F
:103C7000406886B0401E904202D2032006B010BDBC
:103C80007020ADF800000120ADF802000220029281
:103C9000ADF80C0031B101290DD0022914D003294F
:103CA00023D11AE069462068FDF7ECFA0821206864
:103CB000FDF729FC19E069462068FDF70FFB082194
:103CC0002068FDF726FC10E069462068FDF742FBFE
:103CD00008212068FDF727FC07E069462068FDF70A
:103CE00073FB08212068FDF724FC0020C6E710EED6
:103CF000102A244B9A4201DD426805E0B5EEC00A65
:103D0000F1EE10FA01D80022B0E74268521E00EE30
:103D1000902A6423F8EE600A20EE800ABCEEC00A06
:103D200010EE102AB2FBF3F2EEE730B403699342CF
:103D300002D230BC032070474468641E5443B4FB75
:103D4000F3F230BC92E700000000024000040240A1
:103D50000008024000100240000001400004004042
:103D600000080040000C00400004014000400140F9
:103D7000004401400048014000180040001C004081
:103D8000002000400000C84210B58AB00446002060
:103D900001218DF81410AF4A8DF80500AE4904904A
:103DA000039002908DF80400944203D10A6842F413
:103DB00080720CE0A94A944203D10A6842F400726E
:103DC00005E0A74A944204D10A6842F480620A607E
:103DD0000090089006904FF4803007904FF44070A8
:103DE000099006A8FDF763FE69462046FDF734FEFC
:103DF000A06840F00100A0600AB010BD1CB501230E
:103E00000222CDE9002300230322FFF7A5F81CBD01
:103E10009049884202D09149884202D1202191489C
:103E200004E08F49884202D120218F48E6E770479D
:103E30008849884202D08949884202D108218948AC
:103E400004E08749884202D110218748D6E77047AD
:103E500008218448D2E704218248CFE70221814823
:103E6000CCE701217F48C9E77A49884202D07B49E3
:103E7000884202D102217D4804E07949884202D17A
:103E800008217948BAE770477249884202D07349DD
:103E9000884202D10121754804E07149884202D16B
:103EA00001157148AAE770476A49884202D06B49F8
:103EB000884202D180216E4804E06949884202D1DB
:103EC000411569489AE770476249884202D06349C0
:103ED000884202D14021664804E06149884202D10B
:103EE000811561488AE770475A49884202D05B4988
:103EF000884202D120215E4804E05949884202D11B
:103F0000802159487AE770475249884202D0534984
:103F1000884202D11021564804E05149884202D11A
:103F2000402151486AE770470821514866E704215B
:103F30004F4863E702214E4860E701214C485DE7A6
:103F400010B504464A48F9B101291FD002291FD0F3
:103F500003291FD0042921D0052923D0062925D0E3
:103F6000072927D0082929D009292BD03D480A291B
:103F70000AD00B290AD00C290AD00D290AD00E2903
:103F800024D00F2926D028E0012104E0022102E0FC
:103F9000042100E00821FFF731FF1EE02046FFF773
:103FA000B3FF1AE02046FFF79FFF16E02046FFF719
:103FB0008BFF12E02046FFF777FF0EE02046FFF769
:103FC00063FF0AE02046FFF74FFF06E02046FFF7B9
:103FD0002FFF02E02046FFF71BFF2046BDE8104000
:103FE000D2E610B5012304461A46FDF7AAFDA068E3
:103FF00040F08040A06020688007FCD5E06C80B273
:1040000010BD1448D0F8041341F48001C0F8041323
:1040100070471048D0F8041321F48001C0F804134D
:10402000704710B50446052301221221FDF789FDD2
:10403000A06840F08040A06020688007FCD5E06C5C
:1040400041F6C811484340F6FF71B0FBF1F080B271
:1040500010BD000000200140443802400021014012
:104060000022014000080240001402400004024007
:10407000000002402DE9FE4F164683460C004FF02B
:10408000010A02D0601E014212D00025574607FAED
:1040900005F0204205D081B232465846FFF7EAFFCC
:1040A000B8BB6D1CEDB2102DF1D30020BDE8FE8F22
:1040B000DFF8B882D8F80000204234D108F10409B2
:1040C000D9F8000020422ED1B4F5807F37D012DC21
:1040D000102C32D008DC012C27D0022C27D0042C45
:1040E00027D0082C1FD126E0202C28D0402C26D009
:1040F000802C18D123E0B4F5805F22D00ADCB4F51F
:10410000007F1CD0B4F5806F1BD0B4F5006F0AD1CE
:1041100017E008E0B4F5005F13D0B4F5804F10D07D
:10412000B4F5004F0DD00120C0E706250AE00725B1
:1041300008E0082506E0092504E00A2502E0172525
:1041400000E02825012E51D0F6B300200021CDE952
:1041500000010B460A4621465846FEF7FDFE204662
:10416000FEF7B4FFC7B25846FEF785FFC2B28048DB
:10417000016841F4804101607E4827F00301084452
:10418000D0F80838B907090F4FF00F0C0CFA01FCF2
:1041900023EA0C03C0F80838D0F808388A401343E3
:1041A000C0F80838D8F80010A143C8F80010D9F8B2
:1041B0000020A243C9F80020D8F800102143C8F815
:1041C00000106A480C3000E012E00168A143016071
:1041D000011F0A68A2430A60012E0BD016B10268C3
:1041E0002243026008682043086006E00120ADE732
:1041F0000220ABE70168214301608DF808500A20D6
:104200008DF809008DF80A708DF80BA002A8FCF754
:1042100034F84AE755490A6882430A60091D0A686A
:1042200082430A6051490C310A6882430A60091FBF
:104230000A6882430A60002070474C4810B5143069
:104240000168C90704D001210160084601F022FA83
:1042500010BD464810B514300168890704D5022105
:104260000160084601F016FA10BD404810B5143040
:104270000168490704D504210160084601F00AFAE3
:1042800010BD3A4810B514300168090704D508215B
:104290000160084601F0FEF910BD344810B5143035
:1042A0000168C90604D510210160084601F0F2F941
:1042B00010BD10B52D4C14342068800603D5202085
:1042C000206001F0E7F92068400603D54020206017
:1042D00001F0E0F92068000603D58020206001F09D
:1042E000D9F92068C00504D54FF48070206001F032
:1042F000D1F92068800504D54FF40070206001F0EA
:10430000C9F910BD10B5194C14342068400503D507
:104310002015206001F0BEF92068000504D54FF497
:104320000060206001F0B6F92068C00404D54FF4A5
:104330008050206001F0AEF92068800404D54FF46D
:104340000050206001F0A6F92068400404D54FF425
:104350008040206001F09EF92068000404D54FF4ED
:104360000040206001F096F910BD0000003C0140C3
:1043700044380240003001407CB501210420FCF7A4
:1043800038F900208DF806008DF8070003208DF81D
:1043900005000120C403FA4E8DF80400694630463A
:1043A0000094FCF769FA6110009169463046FCF709
:1043B00063FAA510694630460095FCF75DFA214680
:1043C0003046FCF7BEFA29463046FCF7BAFA00211F
:1043D000EC4800F08FFC7CBD70B5E94D06464FF40B
:1043E000005421462846FCF7AEFA3146E54800F075
:1043F00094FD21462846BDE87040FCF7A2BAE04A89
:10440000012808D002280BD180030029014610465C
:1044100004D0FCF796BA4FF48040F6E7FCF793BA65
:10442000704708B500210091814201D2491CFAE78A
:1044300008BD10B50C4618B1012805D1012100E0D6
:1044400000210120FFF7DBFF2046BDE81040C3E755
:104450002DE9F041CC4F0024E000B97808308842C3
:1044600022D3F878B0EBC40F22D344F040010020EF
:10447000FFF7DFFF387840F080010020FFF7D9FF19
:10448000C4EBC4003D7800EB4006DFF8008308E091
:1044900005EB8601012018F80110FFF7CAFF6D1C1B
:1044A000EDB278788542F3D9641CE4B2062CD3D3FC
:1044B00053203870002078702F21B970F870BDE853
:1044C000F08130B5B04C2578A84200D220706078D9
:1044D000824200D96270A078814200D2A170E07857
:1044E000834200D9E37030BDA74A10715171704703
:1044F00010B580210020FFF79CFF4021BDE810404F
:10450000002096E710B5FFF7F3FF00209F4A014611
:104510004FF4FC731154401C9842FBD30021084611
:10452000FFF7E2FF00212F2353220846FFF7C9FFC0
:10453000BDE810408CE710B50446FFF71DFF0021D1
:104540000220FFF75CFF42F21070FFF76AFF0121C3
:104550000220FFF754FF21210020FFF76AFF1421FA
:104560000020FFF766FF7F2C00D97F2444F08001F4
:104570000020FFF75EFF20210020FFF75AFF0C21EB
:104580000020FFF756FFFFF7B3FF0C210020FFF7D5
:1045900050FFBDE81040B5E710B5044621210020CA
:1045A000FFF747FF7F2C00D97F2444F080010020D3
:1045B000FFF73FFF2021BDE81040002039E730B46D
:1045C00054281BD2302919D2140001F007034FF0F0
:1045D000010202FA03F24FEAD103C3EBC3036B4DAE
:1045E00003EB430300EB8303EC5C01D0144300E0D6
:1045F0009443EC5430BC0B46024662E730BC704733
:10460000012801D00D2100E00C21002011E72DE947
:10461000F74F92460746012A17D006204FF0080CA4
:10462000DFF8648198F804100144542907D998F8F8
:104630000520624488F80520002288F8042000261E
:1046400007EB4709A0F1010B37E004204FF0060CFF
:10465000E6E7202F08D3BAF1010F07D04C4901EB50
:104660004900304410F8C05C3DB109E0494909EB0C
:104670000100304410F8605CF6E70FB1202F1AD12A
:10468000002411E00198012825FA04F01ED098F8C2
:10469000051040F300022144C9B298F80400521CEE
:1046A000FFF78DFF641CE4B26445EBD398F8041067
:1046B000491C88F80410761CF6B25E45C9DB98F8F0
:1046C0000410491C88F80410BDE8FE8F98F8051006
:1046D00000F001022144C9B298F80400E0E770B587
:1046E00015460E46044604E02A463146641CFFF790
:1046F0008EFF20780028F7D170BD2DE9F043944655
:10470000DDF81C901F460C460546604501D9AC46B5
:104710001546BC4201D90F461C46BCEB0500A7EB71
:10472000040609D09EB1B0423CDDC0EB46077100E3
:10473000404201EB400832E04A4621462846FFF756
:104740003EFF641CE4B2A742F6D2BDE8F0834A46BD
:1047500021462846FFF733FF6D1CEDB2AC45F6D27B
:10476000F3E74A4621462846FFF729FF6D1CEDB2C4
:10477000002F11DD641CE4B208EB07000EE000001E
:10478000000802400038004090000020A4010020F2
:10479000366000087C62000807EB460007B26545FA
:1047A000DFD11BE0C6EB400C7100404201EB40083A
:1047B00012E04A4621462846FFF701FF641CE4B296
:1047C000BCF1000F04DD6D1CEDB208EB0C0001E044
:1047D0000CEB46000FFA80FCBC42EAD14A46214667
:1047E0002846BDE8F043EAE62DE9F8411D46079C5E
:1047F00016460F4680460B460094FFF77EFF424662
:104800002B46394610460094FFF777FF32462B4679
:10481000394610460094FFF770FF2B463246194682
:1048200040460094FFF769FFBDE8F8812DE9F841A3
:104830001D4617460C468046079E08E023463A462A
:10484000194640460096FFF758FF641CE4B2AC429C
:10485000F4D3E9E72DE9FF4F844650001446C0F138
:10486000000881B00F460819C2F10106C1B24FF02D
:10487000010900256046049AFFF7A1FE381BC1B26A
:104880006046049AFFF79BFE0CEB0400C0B2394669
:10489000049AFFF794FEACEB0400C0B23946049AC8
:1048A00059E0002E08DB08F102000FFA80F8641EC0
:1048B00006EB080024B206B209F102000FFA80F9F3
:1048C0006D1C06EB09002DB206B20CEB050007EBE0
:1048D000040A00900AF0FF01C0B2049AFFF76FFECD
:1048E000ACEB050B0AF0FF010BF0FF00049AFFF799
:1048F00066FE0098A7EB040A0AF0FF01C0B2049A12
:10490000FFF75DFE0AF0FF010BF0FF00049AFFF7CE
:1049100056FE0CEB040007EB050A00900AF0FF01BD
:10492000C0B2049AFFF74BFEACEB040B0AF0FF0198
:104930000BF0FF00049AFFF742FE0098A7EB050A70
:104940000AF0FF01C0B2049AFFF739FE0AF0FF0136
:104950000BF0FF00049AFFF732FEA542A1DB05B081
:10496000BDE8F08F2DE9FE4F804650001446C0F19F
:10497000000A0F460819C2F10106C1B299464FF06C
:10498000010B00251A464046FFF719FE381BC1B23D
:104990004A464046FFF713FE08EB04000190C0B200
:1049A0004A463946FFF70BFEA8EB040C0CF0FF005B
:1049B0004A463946FFF703FE01983B46C2B2CDF89E
:1049C00000900CF0FF00194643E0002E08DB0AF1CE
:1049D00002000FFA80FA641E06EB0A0024B206B247
:1049E0000BF102000FFA80FB6D1C06EB0B002DB2E1
:1049F00006B208EB0500C2B20290A8EB0500CDE9B3
:104A000000903919CBB2C9B2C0B2FFF776FE019857
:104A1000391BC2B20298CBB2CDF80090C9B2C0B275
:104A2000FFF76BFEA8EB04017819CAB20291C3B27A
:104A3000C1B208EB0400CDE90090C0B2FFF75DFE03
:104A40000299781BCAB2C3B2C1B20198CDF80090E6
:104A5000C0B2FFF752FEA542B7DB35E61CB528B160
:104A6000032802D1FE48AFF300801CBD05210320BE
:104A7000CDE9000100231A464FF4E041F948FEF762
:104A80007CFA1CBD7CB50525F74E032438B10128FE
:104A90000BD0032802D1F548AFF300807CBD002382
:104AA0001A464FF4607130460CE000231A464FF46A
:104AB00000613046CDE90045FEF75FFA0023EC487F
:104AC0001A46C021CDE90045FEF757FA7CBD1CB55A
:104AD0000522E84C032138B101280BD0032802D16C
:104AE000E548AFF300801CBDCDE9001200231A4653
:104AF000642105E0CDE9001200231A464FF4E0419D
:104B00002046FEF73AFA1CBD1CB50622032138B137
:104B100001280CD0032802D1D848AFF300801CBD77
:104B2000CDE9001200231A463821D54806E0CDE928
:104B3000001200231A464FF4E051D248FEF71DFA46
:104B40001CBD7CB50525CE4E032448B1012815D0E7
:104B5000022819D0032802D1CB48AFF300807CBDD6
:104B600000231A464FF480613046CDE90045FEF738
:104B700004FA00231A460C21C24809E000231A4611
:104B80004FF46041304603E00023C0481A460D212F
:104B9000CDE90045FEF7F1F97CBD1CB505220321E6
:104BA00038B101280CD0032802D1B948AFF30080F6
:104BB0001CBDCDE9001200231A46E021B54805E0EE
:104BC000CDE9001200231A463821AD48FEF7D5F989
:104BD0001CBD2DE9FF4F85B00446DDE912BA9946A8
:104BE00016466846FDF78BF9A948AB4F002584426D
:104BF00008D1386840F4805038600698FFF7CDFF40
:104C0000ADF80450A048DFF890828442A8F104086F
:104C10000AD1D8F8001041F48041C8F80010069875
:104C2000FFF78FFFADF80450944884420AD1D8F8BA
:104C3000001041F40041C8F800100698FFF764FF27
:104C4000ADF804508C48844208D1386840F40050D4
:104C500038600698FFF73BFFADF804508348844264
:104C600008D1386840F4801038600698FFF70AFFD2
:104C7000ADF804507A48844208D1386840F40010F6
:104C800038600698FFF7EAFEADF80450ADF80C90D6
:104C9000ADF80050ADF80EA0ADF802B046B101205D
:104CA000012E08D00221022E08D0032E0BD00EE0D8
:104CB000ADF8065004E0ADF8065006E0ADF8061079
:104CC000ADF8085003E0ADF80610ADF808004FF459
:104CD0000070ADF80A00208820F04000208069466E
:104CE0002046FDF78DF8208840F04000208009B074
:104CF000BDE8F08F2DE9FC410446654800250F46CC
:104D00004FF48276844205D1CDE90065202300224C
:104D1000FFF75FFF5C48844206D1CDE900652023A0
:104D200000223946FFF755FF5448844206D1CDE9A9
:104D30000065202300223946FFF74BFF4E4884428E
:104D400006D1CDE90065202300223946FFF741FF57
:104D50004648844206D1CDE9006520230022394629
:104D6000FFF737FF3E48844206D1CDE90065202396
:104D700000223946FFF72DFFBDE8FC812DE9FC41FB
:104D8000044643480025174688464FF482768442FD
:104D900004D1CDE900652023FFF71BFF3A48844288
:104DA00006D1CDE9006520233A464146FFF711FFC1
:104DB0003248844206D1CDE9006520233A46414677
:104DC000FFF707FF2C48844206D1CDE90065202378
:104DD0003A464146FFF7FDFE2448844206D1CDE91C
:104DE000006520233A464146FFF7F3FE1C48844203
:104DF000C2D1CDE9006520233A464146FFF7E9FEDE
:104E0000BAE72DE9FC470446DDE90A6520481F465C
:104E100090468946844205D1CDE9006513463A465D
:104E2000FFF7D7FE1848844206D1CDE90065434616
:104E30003A464946FFF7CDFE1048844206D1CDE9F7
:104E4000006543463A464946FFF7C3FE0A48844296
:104E500026D1CDE9006543463A4649461EE00000AA
:104E6000005401400018024000140240005001406C
:104E7000001C02400010024000340140003C004091
:104E800000040240000802400038004000200240B8
:104E9000003001400000024044380240FFF799FE14
:104EA0005C48844206D1CDE9006543463A4649460E
:104EB000FFF78FFE5848844206D1CDE9006543468E
:104EC0003A464946FFF785FEBDE8FC877FB50D00F1
:104ED000044620D06846FBF7F7FA5048844208D0D1
:104EE0004F48844205D04B48844202D04A4884420D
:104EF00001D1039900E0029900200124421C04FA28
:104F000002F3B1FBF3F3AB4202D8C00004B070BDB2
:104F1000D0B20828F2D33820F8E7818101898907C7
:104F2000FCD001890906F9D48089C0B2704730B538
:104F300000240BE00D5D85810589AD07FCD0058956
:104F40002D06F9D485891555641CA4B29C42F1D371
:104F500030BD10B500230AE0CC5C84810489A4072D
:104F6000FCD004892406F9D484895B1C9BB293424B
:104F7000F2D310BD30B500240AE082810589AD0767
:104F8000FCD005892D06F9D485890D55641CA4B281
:104F90009C42F2D330BD818101890906FCD480890D
:104FA000704730B500240DE031F814508581058933
:104FB000AD07FCD005892D06F9D4858922F8145057
:104FC000641CA4B29C42EFD330BD10B500230BE0AB
:104FD00031F8134084810489A407FCD00489240695
:104FE000F9D484895B1C9BB29342F1D310BD30B5D8
:104FF00000240BE082810589AD07FCD005892D06D0
:10500000F9D4858921F81450641CA4B29C42F1D3D0
:1050100030BD00000050014000540140003001400C
:105020000034014010B5B64CB44A00212046FDF7CB
:105030003AFDD0212046FDF7FBFE08B1002010BD4F
:10504000022010BD010901EB810100F00F0000EB0F
:105050004100C0B270473EB504460720009001AB46
:105060000022D021A648FDF729FE9DF80400FFF795
:10507000E9FF20709DF80500FFF7E4FF60709DF8E0
:105080000600FFF7DFFFA0709DF80700FFF7DAFFCB
:10509000E0709DF80800FFF7D5FF20719DF809002A
:1050A000FFF7D0FF60719DF80A00FFF7CBFFA071FA
:1050B0003EBD884201D2084670479042FCD9104656
:1050C00070470A21B0FBF1F14A4202EB820200EB89
:1050D000420040EA0110C0B270470EB503460078A6
:1050E0003B220021FFF7E5FFFFF7EBFF8DF80400FF
:1050F00058783B220021FFF7DCFFFFF7E2FF8DF835
:105100000500987817220021FFF7D3FFFFF7D9FF9A
:105110008DF80600D87807220121FFF7CAFFFFF7B4
:10512000D0FF8DF8070018791F220121FFF7C1FF7A
:10513000FFF7C7FF8DF8080058790C220121FFF70F
:10514000B8FFFFF7BEFF8DF80900987963220021B0
:10515000FFF7AFFFFFF7B5FF8DF80A0007200090BB
:1051600001AB0022D0216648FDF70AFE0EBD10B546
:105170000022D0216248FDF76CFDBDE8104061E7D8
:1051800010B50122D0215E48FDF763FDBDE8104057
:1051900058E710B50222D0215948FDF75AFDBDE865
:1051A00010404FE710B50322D0215548FDF751FDBF
:1051B000BDE8104046E710B50422D0215048FDF765
:1051C00048FDBDE810403DE710B50522D0214C4810
:1051D000FDF73FFDBDE8104034E710B50622D021B1
:1051E0004748FDF736FDBDE810402BE710B53B22E0
:1051F0000021FFF75EFFFFF764FF03460022BDE8D2
:105200001040D0213E48FDF7A7BD10B53B2200213C
:10521000FFF74FFFFFF755FF03460122BDE810409F
:10522000D0213748FDF798BD10B517220021FFF7B0
:1052300040FFFFF746FF03460222BDE81040D021A1
:105240002F48FDF789BD10B507220121FFF731FF77
:10525000FFF737FF03460322BDE81040D02128485E
:10526000FDF77ABD10B51F220121FFF722FFFFF7DE
:1052700028FF03460422BDE81040D0212048FDF756
:105280006BBD10B50C220121FFF713FFFFF719FFCB
:1052900003460522BDE81040D0211948FDF75CBD4A
:1052A00010B563220021FFF704FFFFF70AFF034652
:1052B0000622BDE81040D0211148FDF74DBD50B188
:1052C00001280AD002280AD003280AD004280AD0CC
:1052D00005280AD00AE0902308E0912306E09223F3
:1052E00004E0932302E0802300E000230722D02182
:1052F0000348FDF731BD0420E1E70000A08601006E
:10530000005400401CB59FEDE40BE549E548FEF76D
:10531000D3F800220221E248FEF75CFC00220321C0
:10532000DF48FEF757FC00200321CDE900010346CA
:1053300001224FF4F061DC48FDF70EFE1CBD10B5F4
:105340000221D748FEF7D3FCD7488021018381157D
:10535000418310BD10B50321D148FEF7C8FCD248E7
:105360004FF4007101830115418310BD10B5022176
:10537000CB48FEF7BCFCCC488021418381150183DA
:1053800010BD10B50321C648FEF7B1FCC6484FF466
:10539000007141830115018310BD10B59FEDC30A53
:1053A0000221BF48FEF7A3FCBF488021418381153D
:1053B000418310BD10B59FEDBD0A0321B848FEF72B
:1053C00096FCB9484FF4007141830115418310BD2B
:1053D000B54880214183811541837047B2484FF41D
:1053E000007141830115418370477CB500F00DFACF
:1053F000FCF773FEFFF786FFAD4C4FF4E13200215E
:105400002046FDF736F9A84D012211462846FEF741
:1054100031FE20B1A7A12046FDF751FAFEE7FFF7C4
:1054200001FE20B1A7A12046FDF749FAFEE70020C2
:10543000FFF745FF9A480323022200211430FCF7AE
:105440008FFE18B1A2A12046FDF739FA4020FFF7E0
:1054500072F8A34C0B212046FEF772FD0121204675
:10546000FEF76EFD02212046FEF76AFD032120466D
:10547000FEF766FD03210220CDE9000100231A4654
:105480001C212846FDF768FD7CBD10B503210E20C8
:10549000FFF72AF80022012192A0FFF720F90D2141
:1054A0000F20FFF721F80022012190A0FFF717F944
:1054B0001A211E20FFF718F8002201218EA0FFF705
:1054C0000EF92A212D20FFF70FF8012211468CA09A
:1054D000FFF705F9BDE81040FEF7BABF012070479D
:1054E00010B5894C94ED050AD4ED060A30EE600A39
:1054F00084ED000ABDEEC00A10EE100A002800DAA2
:10550000404200EE100A8149B8EEC00A84ED010A5B
:105510002069884209DAE2698A4206DA9FED7C0A4C
:1055200084ED020A84ED030A08E0884206DDE069A2
:10553000884203DDFFF731FFFFF73CFF94ED000ADF
:105540007448B5EEC00AF1EE10FA12DD10EE101A32
:1055500081420EDD94ED020AD4ED010A30EE200AFC
:10556000FFF7EDFE94ED030AD4ED010A30EE600A78
:1055700020E0B5EEC00AF1EE10FA12D294ED010A65
:1055800010EE101A81420CDDD4ED020A30EEC00A92
:10559000FFF7D5FE94ED030AD4ED010A30EE200AA0
:1055A00008E06168814208DC94ED020AFFF7C7FE5B
:1055B00094ED030ABDE81040CCE610BD1FB5FFF71F
:1055C00014FFFFF762FF364C4F4DDFF8E480524E78
:1055D00014344FF4FA7732481430FCF730FE304878
:1055E0001430FCF744FEB4F90C004CA100EE100A94
:1055F000F8EEC00AC5ED080AB4F90E0000EE100A74
:10560000B8EEC01A85ED091AB4F9100000EE100AC0
:10561000F8EEC01AC5ED0A1AB4F91200FDEEE11A4F
:1056200000EE100AB8EEC02A85ED0B2AB4F914007A
:10563000BDEEC22A00EE100AF8EEC02AC5ED0C2A13
:10564000B4F91600FDEEE22A00EE100A1448B8EE96
:10565000C00A303085ED0D0ABDEEC00A8DED030A9B
:10566000BDEEC10ACDEC031A10EE103ABDEEE00A11
:1056700010EE102A00F036F9094940463031FDF7A6
:105680001EF93168384600913168009A891A8142C2
:10569000FAD3A0E770470000000000000088E34054
:1056A0009C030020000800400010024000000000A1
:1056B0000014014052544320455849542045727209
:1056C0006F720A00525443204572726F720A0000D2
:1056D0004D505536303530204572726F720A0000D9
:1056E00000200140524F44454E5400004D49435262
:1056F0004F4D4F555345000032303135000000000A
:10570000616B657475646F00980000200000704242
:105710000000A042000040401400002061783A20C0
:1057200025642061793A20256420617A3A20256435
:10573000207C7C2067783A2025642067793A2025F0
:105740006420677A3A202564000000007047FEE775
:10575000FEE7FEE7FEE7704770477047704710B5F9
:10576000FCF7AEFC10BD00000CB5002254490092BD
:105770000192086840F4803008604FF4A043086844
:1057800000F4003001900098401C0090019810B97E
:1057900000989842F3D10868800334D50120019025
:1057A00047484030026842F0805202604548026833
:1057B00042F44042026042480830026802600268D7
:1057C00042F400420260026842F4A0520260031FE9
:1057D0003D4A1A600A6842F080720A600A689201C3
:1057E000FCD53A4940F205720A60016821F00301D4
:1057F0000160016841F0020101600168C1F38101AB
:105800000229FAD10CBD01920CBD314810B50168D6
:1058100041F4700101602A48016841F00101016012
:10582000274A00210832116002682A4B1A400260A0
:10583000031D294A1A60026822F48022026020486F
:105840000C300160FFF790FF21494FF00060803974
:10585000086010BD70B51A4D083528681F4B2049E7
:1058600010F00C0004D05E10042803D0082803D0E8
:105870000B601BE00E6019E0114A121D1068C0F3A6
:105880008054106800F03F0014B1B6FBF0F001E066
:10589000B3FBF0F013681268C3F388135843C2F3E4
:1058A0000142521C5200B0FBF2F0086028680C4A1A
:1058B000C0F30310121D105C0A68C2400A6070BD7C
:1058C000003802400070004008544007003C02408D
:1058D00088ED00E0FFFFF6FE103000240024F40005
:1058E000D00000200FB41CB5074B06AA7B446946C4
:1058F0000090059800F0DBF80020694600F0EAF817
:105900001CBC5DF814FB0000E50100002DE9F0412E
:105910000E460446002020622046E168884730B3E6
:10592000252805D0D4E901219047206A401CF2E7E0
:10593000E168204600278847050018D0A5F14100FE
:10594000192802D820354FF40067324629462046F0
:105950002760FAF753FC40B1012804D0F61D26F069
:1059600007060836D8E7361DD6E72846DAE7206A64
:10597000BDE8F0812DE9F041064600241068752944
:10598000314616A510D0AFF30080002802DA40425D
:1059900013A507E031688A0701D512A502E049077F
:1059A00004D511A5012401E0AFF3008000210A22F3
:1059B00006F1240709E0B0FBF2FCB0FBF2F302FBB6
:1059C0001C00303078541846491C0028F3D1234677
:1059D0002A463046BDE8F04100F00BB80000000058
:1059E0002D0000002B0000002000000070477047D1
:1059F00070472DE9F0470D4699469246044600F15E
:105A000024080168880604D5E06921F010012160AE
:105A100000E00120A84201DD471B00E00027A1694A
:105A20007A1902EB0900081AA0612078C00602D496
:105A30002046AFF30080002608E0D4E901211AF8DF
:105A400006009047206A401C761C20624E45F4DB1D
:105A50002078C0060AD52046AFF3008006E0D4E9DE
:105A6000012130209047206A401C2062381EA7F197
:105A70000107F4DC07E0D4E9012118F8050090479C
:105A8000206A401C2062281EA5F10105F3DC204697
:105A9000AFF300802078000602D50220BDE8F08731
:105AA0000120FBE701694A1C02610878704700B5D4
:105AB0008FB0CDE901310021059105497944CDE947
:105AC000031011466846FFF721FF0FB000BD00002C
:105AD000E5FFFFFF0A6802F8010B0A607047754690
