:020000040800F2
:1000000050FA002009010008490800084B080008C0
:100010004F080008530800085708000800000000B7
:100020000000000000000000000000005D08000863
:100030005B080008000000005F0800086108000875
:1000400063080008650800086708000869080008D8
:100050006B0800086D0800086F08000871080008A8
:100060007308000875080008770800081F010008D9
:100070001F0100081F0100081F0100081F010008E0
:100080001F0100081F0100081F010008890800085F
:100090008B0800088D0800088F08000891080008E8
:1000A00093080008950800089708000899080008B8
:1000B0009B0800089D0800089F080008A108000888
:1000C000A3080008A5080008A7080008A908000858
:1000D000AB080008AD080008DF080008E1080008C8
:1000E000E3080008E5080008E7080008DFF80CD07E
:1000F00000F032FF004800478302000850FA002059
:1001000080F308887047000005480047FEE7FEE7D7
:10011000FEE7FEE7FEE7FEE7FEE7FEE7FEE7FEE7B7
:10012000ED000008002108E0002201E0531C9AB213
:10013000B2F5E15FFADB4B1C99B28142F4DB704708
:100140001FB54FF4E13000900020ADF80400ADF889
:100150000600ADF80800ADF80C000C20ADF80A0060
:100160006946FE4801F024FA012240F22551FB487D
:1001700001F005FA0121F94801F0D1F91FBD08B5D8
:100180004FF48060ADF8000004208DF8030069464C
:10019000F34800F0B3FF4FF40070ADF80000032007
:1001A0008DF8020018208DF803006946EC4800F035
:1001B000A5FF08BD08B500214FF0006001F058F818
:1001C0004FF4C06001F04AF825208DF800000120AE
:1001D0008DF8010003208DF8020001208DF8030046
:1001E000684601F001F800208DF8000001208DF82C
:1001F0000100684600F0F8FF08BD10B501F064F892
:100200004FF4803001F0F2F801F038F90446012C87
:1002100028D1102000F01EFF022000F043FF002034
:1002200001F0DAF8002001F005F9A00201F0F8F879
:100230004FF4404001F026F84FF4E011200401F0A3
:1002400009F9012001F000F900BF392001F0A4F8FC
:100250000028FAD0022001F007F900BF01F0B4F83D
:100260000828FBD1012144F21D2001F021F80121D1
:100270004FF4C02001F010F80121084601F00CF8FD
:1002800010BDFFF7BAFFFFF795FFFFF778FFFFF705
:1002900057FF00F03FFB6420FFF744FFBC2000F055
:1002A0008DFEB049088008460078AB2810D0AE48D3
:1002B000007868B9AD48406800F07F40B0F1006F49
:1002C00003D1AA4800F02BFD02E0A9A001F0BCF97F
:1002D000AE49AFA001F0B8F954E200F06BFFA148BD
:1002E000008800F47F40042806DD9E480078AB2893
:1002F00002D00220B3490870B248007800287DD1AE
:10030000B1A001F0A1F9B748B74908600422084636
:100310000168B64800F075FCB4480088B3494988C4
:1003200000EB0140B2490860B0488088AF49C988F5
:1003300000EB0140AF49086008460268AC4801681C
:10034000ADA001F081F9AA48007810F0010F05D1A5
:10035000A74800684008A649086006E0A44800686D
:10036000012101EB5000A2490860A14800684FF448
:100370007041B1EB400F13D2AAA001F065F96420DF
:10038000FFF7D0FE7748008800F580707549088037
:1003900008460188BC2000F019FE744800F0BFFC3C
:1003A000A848914908600020A7490860A74908802B
:1003B0007FE0A648008868B904228B4801688B4812
:1003C00000F01FFC8948C08800F47F40B0F5006F42
:1003D00000D07AE09D480088401CC0EB00108449A2
:1003E0000968B1EBC02F27D94FF4F0427E4801686D
:1003F0007E4800F006FC7C48006800E087E000F5DD
:100400007040794908600020914908800EE07748E3
:100410008F49098830F811008B49096808448A49D6
:1004200008608B480088401C8949088088480088FB
:10043000B0F5F04FEBDB37E06D4800688349098881
:100440004FF4F04303FB110082B26748016867482C
:1004500000F0D7FB00207E49088019E063487C4902
:10046000098810F81100784909680844764908603D
:100470005E487749098830F811007349096801EB33
:1004800010207149086072480088401C704908803B
:10049000574800686D4909884FF4F04202FB11008B
:1004A0006B4909888842D9D868480088401C674948
:1004B00008804F4800684FF4F041B0FBF1F0401C59
:1004C0006249098888423FF674AF00BF5E48006801
:1004D00048490968884213D05EA001F0B5F864204D
:1004E000FFF720FE1F48008800F580701D49088036
:1004F00008460188BC2000F069FD1C4800F00FFC94
:100500005BA001F0A1F801202E49087039E12D48C7
:1005100000780128FAD15D480078401C5B490870DA
:100520005BA001F091F847482F4908600F485E49E9
:100530000860002045490880EFE044480088401CDE
:10054000C0EB00102A490968B1EBC02F04D94FF461
:10055000F04225480168A9E0BFE0000000380140F2
:10056000000801403600002038000020003000085C
:10057000696C6C6567616C206170702C63616E20C2
:100580006E6F742072756E210D0A0000000000204D
:10059000626F6F746C6F61646572207665727369E7
:1005A0006F6E3A2025730D0A626F6F746C6F616411
:1005B00065722069732072756E6E696E672E2E2EBD
:1005C0000D0A0000300000207573657220617070A4
:1005D00020636865636B20626567696E2E2E2E0D41
:1005E0000A00000000FF1F001C0000204C0000203B
:1005F000240000202800002075736572206170704F
:10060000206C656E6774683A20256C752042797499
:1006100065732C206372633A2030782558200D0AC8
:10062000000000007573657220617070206C656E4B
:10063000677468206F766572206C696D6974210D2E
:100640000A00000000101F002C00002034000020D1
:1006500032000020757365722061707020637263D0
:1006600020636865636B206661696C210D0A000078
:1006700075736572206170702063726320636865B2
:10068000636B206F6B210D0A000000003100002019
:100690007573657220617070207570646174652E69
:1006A0002E2E0D0A0000000020000020474800F018
:1006B000A8FA4748006800F57040454908604FF4C3
:1006C000F04242494348006800F07FFB414800681F
:1006D00000F570403F4908601AE03F4800683F4914
:1006E00009884FF4F04303FB110082B238480168D7
:1006F000364800F086FA38480068384909884FF4CF
:10070000F04303FB110082B23049354800F05DFB35
:1007100032480088401C314908802F4800684FF457
:10072000F041B0FBF1F0401C2C49098888423FF6AB
:1007300004AF2CA000F088FF31A000F085FF6420FA
:10074000FFF7F0FC2648406800F07F40B0F1006FF2
:100750000ED13048008800F580702E490880084688
:100760000188BC2000F032FC1D4800F0D8FA08E0F7
:1007700006E029A000F068FF41F28830FFF7D2FCC4
:10078000F7E700BFA9E510B545F2555000F026FD8A
:10079000052000F017FD40F6354000F019FD00F08F
:1007A00009FD00F0FFFC10BD70B504460D46E1B236
:1007B000244800F045FF01E000F0FCFC80212148C6
:1007C00000F0B7FE0028F7D0204670BD4C00002096
:1007D0001C00002020000020240000203400002005
:1007E0000030000875736572206170702075706448
:1007F0006174652066696E697368210D0A000000E6
:1008000073746172742075736572206170702E2E1E
:100810002E0D0A0036000020626F6F742065727220
:100820006F722120726574727920627920616E6F17
:100830007468657220706F7765726F6E2E2E2E0D44
:100840000A00000000380140704700BFFEE700BF0B
:10085000FEE700BFFEE700BFFEE770477047704746
:1008600070477047704770477047704770477047D0
:1008700070477047704770477047704770477047C0
:1008800070477047704770477047704770477047B0
:1008900070477047704770477047704770477047A0
:1008A00070477047704770477047704710B540F207
:1008B0002551164800F044FE044654B140F225513B
:1008C000124800F026FE114800F0B6FE10490870EC
:1008D00004E040F227710D4800F01BFE10BD704788
:1008E0007047704770477047704770477047704750
:1008F0007047704770477047704770477047704740
:1009000070477047704770477047000000380140DB
:100910003800002000B587B0012141F2040000F04A
:10092000C7FCE020ADF8040003208DF80600182075
:100930008DF8070001A9F74800F0E0FB1020ADF8A2
:10094000040003208DF8060010208DF8070001A98F
:10095000F04800F0D3FB1021EE4800F021FC00200D
:10096000ADF808004FF48270ADF80A000020ADF831
:100970000C000220ADF80E000120ADF8100040027E
:10098000ADF812000820ADF814000020ADF81600F4
:100990000720ADF8180002A9DF4800F09EFD0121F4
:1009A000DD4800F085FD07B000BD10B5044600BF6E
:1009B0000221D94800F086FD0028F9D02146D6480A
:1009C00000F089FD00BF0121D34800F07BFD002825
:1009D000F9D0D14800F07DFDC0B210BD10B50024A3
:1009E0001021CC4800F0DAFB0520FFF7DEFF00BF46
:1009F000A520FFF7DAFF044600F0DCFB14F0010F3E
:100A0000F6D11021C34800F0CBFB10BD10B510216A
:100A1000C04800F0C3FB0620FFF7C7FF1021BD4808
:100A200000F0BEFB10BD10B50446FFF7EFFF10212C
:100A3000B84800F0B3FBD820FFF7B7FFC4F3074076
:100A4000FFF7B3FFC4F30720FFF7AFFFE0B2FFF7F4
:100A5000ACFF1021AF4800F0A3FBFFF7BFFF10BDB4
:100A600010B5FFF7D3FF1021AA4800F097FBC7206D
:100A7000FFF79BFF1021A74800F092FBFFF7AEFFA6
:100A800010BD70B505460C461646FFF7BFFF102196
:100A9000A04800F083FB0220FFF787FFC4F3074064
:100AA000FFF783FFC4F30720FFF77FFFE0B2FFF7F4
:100AB0007CFF05E02878FFF778FF6D1C00F07AFBDB
:100AC0003000A6F101018EB2F4D11021914800F05E
:100AD00067FBFFF783FF70BD2DE9F05F07460E4609
:100AE00014464FF00008C146C2460025AB4606F04A
:100AF000FF0ACAF10000C5B22046E11704EB1161FC
:100B0000C1F30728E11704EB11610912A4EB0121DD
:100B100001F0FF09BAF1000F22D1B8F1000F05D1A1
:100B2000224631463846FFF7ACFF68E00BE04FF451
:100B3000807231463846FFF7A4FF06F5807607F548
:100B4000807700F037FB5FEA0800A8F1010101F0AF
:100B5000FF08ECD14A4631463846FFF792FF4EE097
:100B6000B8F1000F18D1A94510DDA9EB050000F080
:100B7000FF0B2A4631463846FFF783FF2E442F44A9
:100B80005A4631463846FFF77CFF38E02246314668
:100B90003846FFF776FF32E0601B84B22046E1174B
:100BA00004EB1161C1F30728E11704EB116109128D
:100BB000A4EB012101F0FF092A4631463846FFF730
:100BC00060FF2E442F440BE04FF4807231463846CC
:100BD000FFF757FF06F5807607F5807700F0EAFA11
:100BE0005FEA0800A8F1010101F0FF08ECD1B9F1BA
:100BF000000F04D04A4631463846FFF742FFBDE8B1
:100C0000F09F70B504460D4616461021414800F08D
:100C1000C5FA0320FFF7C9FEC5F30740FFF7C5FE7D
:100C2000C5F30720FFF7C1FEE8B2FFF7BEFE10E0F4
:100C3000A520FFF7BAFE2080A520FFF7B6FE218889
:100C400001EB00202080A41C00F0B4FA032E00D198
:100C500000BF3000A6F101018EB2E9D110212D486C
:100C600000F09EFA70BD2DE9F04100240025002619
:100C700000271021274800F091FA9F20FFF795FEEA
:100C8000A520FFF792FE0546A520FFF78EFE06463B
:100C9000A520FFF78AFE074610211E4800F080FAC3
:100CA000280440EA062040EA07042046BDE8F08117
:100CB00010B504461021174800F070FA0320FFF722
:100CC00074FEC4F30740FFF770FEC4F30720FFF77C
:100CD0006CFEE0B2FFF769FE10BD10B5A520FFF76E
:100CE00064FE10BD10B5044600BF02210A4800F0A2
:100CF000E9FB0028F9D02146074800F0ECFB00BFD3
:100D00000121054800F0DEFB0028F9D0024800F080
:100D1000E0FB10BD0008014000300140704710B5F5
:100D20000446206807490840B0F1005F08D16068B8
:100D3000054908602068FFF7E3F903480068804729
:100D400010BD00000000FE2F3C0000200146088876
:100D500070472DE9F04106460D46174600241FE076
:100D600035F81410304600F081F9308835F8141049
:100D7000884212D035F81410304600F077F93088E8
:100D800035F81410884208D006E04CA000F05CFC56
:100D900041F28830FFF7C6F9F7E7B61C601C84B251
:100DA000BC42DDDBBDE8F08130B503460C4615469C
:100DB000002207E01846FFF7C9FF24F812009B1C29
:100DC000501C82B2AA42F5DB30BD2DE9F05F8046AF
:100DD0008A461746B8F1006F02D34448804501D3D4
:100DE000BDE8F09F00F06AF9A8F1006B4FEADB253F
:100DF000CBF34909C9F58064A74200DC3C464EE0CC
:100E00004FF0006101EBC5204A143949FFF7CCFFD0
:100E100000260BE009EB0600354931F81000A0F57B
:100E20007F41FF3900D003E0701C86B2A642F1DB9F
:100E300000BFA6421BDA4FF0006101EBC52000F0B5
:100E4000CDF8002608E03AF8160006EB0901284A1A
:100E500022F81100701C86B2A642F4DB4FF000614C
:100E600001EBC5204A142249FFF773FF04E0224634
:100E700051464046FFF76DFFA74200D110E06D1CC0
:100E80004FF000090AEB440A08EB4408381B87B20C
:100E9000B7F5806F02DD4FF4806400E03C46AFE7B9
:100EA00000BF00F0CFF800BF9AE713B50446012257
:100EB00001A92046FFF789FF1CBD00007570646121
:100EC0007465206661696C6564212072657472794D
:100ED00020627920616E6F7468657220706F77652B
:100EE000726F6E2E2E2E0D0A000000000000080802
:100EF0004CF000202DE9F05F0546002092469B460D
:100F000088460646814640241BE02846414647461F
:100F1000224600F042F853465A46C01A914110D377
:100F200011461846224600F029F82D1A67EB0108F1
:100F30004F4622460120002100F020F817EB00095F
:100F40004E41201EA4F10104DFDC484631462A460A
:100F50004346BDE8F09F0000064C074D06E0E06800
:100F600040F0010394E8070098471034AC42F6D3F0
:100F7000FFF7C0F85C1900087C190008202A04DB80
:100F8000203A00FA02F1002070479140C2F120039C
:100F900020FA03F3194390407047202A04DB203ADB
:100FA00021FA02F00021704721FA02F3D040C2F189
:100FB0002002914008431946704700000249084446
:100FC000B0F8000C7047000000600040024A104476
:100FD000A0F8001C704700000060004070B5054696
:100FE00040F6FF76304600F075F8042813D10A4C1D
:100FF000206940F0020020616561206940F04000F6
:101000002061304600F066F8012804D0216941F6DD
:10101000FD721140216170BD00200240084904208A
:10102000CA68D20701D001207047CA68520701D5AB
:1010300002207047C968C906FBD50320704700002D
:10104000002002400248016941F0800101617047BF
:101050000020024004490A6822F010020A600A686F
:1010600002430A60704700000020024070B5064647
:101070000D460F2000F02EF804280FD1084C2069EF
:1010800040F00100206135800F2000F023F8012896
:1010900004D0216941F6FE721140216170BD00004B
:1010A0000020024004490A6802F038020A600A6817
:1010B00002430A60704700000020024003480249D2
:1010C00041600349416070472301674500200240A9
:1010D000AB89EFCD00B50346FFF7A0FF05E0FF2089
:1010E000401EFDD1FFF79AFF5B1E012802D1002BA5
:1010F000F5D101E0002B00D1052000BDF0B5CB7883
:101100000022DC0603F00F0301D58C7823430C8802
:101110000F2714F0FF0F4FF0010C1CD0D0F8005037
:101120000E880CFA02F42640A64210D1960007FA67
:1011300006FE25EA0E0E03FA06F5CE7845EA0E0500
:10114000282E00D14461CE78482E00D10461521C73
:10115000082AE5D305600A88FF2A1ED945680022BF
:1011600002F108060CFA06F40E882640A64210D1B9
:10117000960007FA06FE25EA0E0E03FA06F5CE786B
:1011800045EA0E05282E00D14461CE78482E00D1C4
:101190000461521C082AE3D34560F0BD41617047E9
:1011A0000161704702494CF6CC400860704700006E
:1011B0000030004002494AF6AA200860704700004B
:1011C0000030004001494860704700000030004096
:1011D0000149886070470000003000400149086004
:1011E0007047000000300040F0B50F23C27801784E
:1011F0004FF0E024012742B3D4F80C2D467802F4D6
:10120000E062C2F5E062120AC2F10405D3408278BE
:10121000AE401A40324315018A07D20E954021F0A4
:1012200003010B19D3F80064FF2191408E430D4058
:101230002E43C3F800640078410900F01F0004EB5E
:1012400081018740C1F80071F0BD01F01F008740A7
:10125000480904EB8000C0F88071F0BD02490843E2
:1012600002490860704700000000FA050CED00E03C
:10127000024A1140014302480160704780FFFF1F8E
:1012800008ED00E0034A516821F4404101435160F8
:101290007047000000100240044A0029D16901D0C3
:1012A000014300E08143D16170470000001002401B
:1012B000044A0029916901D0014300E08143916112
:1012C00070470000001002400B48016841F0010126
:1012D00001604168094A114041600168084A1140B3
:1012E0000160016821F4802101604268002122F43C
:1012F000FE02426081607047001002400000FFF86B
:10130000FFFFF6FE30B5204A5168204B11F00C016A
:1013100003D0042901D0082901D0036011E05168ED
:10132000022401F4701104EB91415468184D14F437
:10133000803F02D05468A40301D5694300E05943BB
:1013400001605168134B01F0F00109095C5C016810
:10135000E1404160546804F4E064240A1C5D21FA11
:1013600004F48460546804F46054E40A1B5DD940BA
:10137000C1605268074B02F44042920B1B1F9A5CFB
:10138000B1FBF2F1016130BD0010024000127A00A1
:1013900000093D004C190008034600205909094A7C
:1013A000012901D1116804E0022901D1116A00E08C
:1013B000516A03F01F02012393400B4200D0012029
:1013C00070470000001002400248406800F00C0026
:1013D0007047000000100240034A516821F0F001FC
:1013E0000143516070470000001002400B490A6839
:1013F00022F480320A600A68B0F5803F22F480222D
:101400000A6007D0B0F5802F03D1086840F4A0200F
:1014100008607047086840F48030F9E70010024027
:10142000034A516821F4E0610143516070470000B4
:1014300000100240034A516821F4605141EAC000A3
:101440005060704700100240014908667047000074
:1014500000004242034B5A68084322F47C121043B6
:101460005860704700100240034A516821F00301A0
:1014700001435160704700000010024030B50B4C32
:1014800040F2FF153120FFF787FF20706068401C95
:101490006060207810B96068A842F3D13120FFF76E
:1014A0007BFF002800D0012030BD0000400000205C
:1014B0000029018802D041F0400101E021F0400103
:1014C000018070470246128900200A4200D00120A4
:1014D0007047808970478181704770B502880B889A
:1014E0004E888C88CD8833432C430E8923434C8906
:1014F00033438D892343CC892B4302F44152234348
:1015000013430380828B22F400628283098A018262
:1015100070BD0A0A01219140C9430180704700292A
:10152000818902D041F4005101E021F40051818110
:1015300070470246128800200A4200D001207047FE
:1015400070B501F01F0501260024C1F3421306FA0D
:1015500005F2012B01D1838904E0022B01D1038A1A
:1015600000E0838A4FEA11210088134206FA01F64F
:1015700000EA060001D000B10124204670BD10B57C
:10158000C1F3421301F01F040121A140012B01D13D
:101590000C3004E0022B01D1103000E01430002A9E
:1015A000026801D00A4300E08A43026010BD0000D7
:1015B00030B50446008A85B00D464CF6FF710840F0
:1015C000E98801432182A0894EF6F3110840A988D9
:1015D0002A8911436A8902431143A181A08A4FF6E7
:1015E000FF410840A9890143A1826846FFF78AFEAE
:1015F0001048844201D1039800E002981921484321
:10160000296864228900B0FBF1F0B0FBF2F1090116
:101610000B096FF018056B43322500EB830005EBD7
:101620000010B0FBF2F000F00F000843208105B07D
:1016300030BD0000003801408088C0F308007047CA
:10164000C1F30801818070470FB4054B10B503A9A1
:10165000044A029800F018F810BC5DF814FB000072
:10166000A90700084800002002E008C8121F08C1AE
:10167000002AFAD170477047002001E001C1121F13
:10168000002AFBD1704700002DE9FF4F8DB09B462B
:101690000F460446002638E1252801D00F9959E06D
:1016A0000025641C9D49A84601222378203B02FAAC
:1016B00003F0084202D00543641CF6E720782E2888
:1016C00017D114F8010F45F004052A280ED06FF049
:1016D0002F022078A0F1300109290AD808EB8801EF
:1016E00002EB410100EB0108641CF2E757F8048BA0
:1016F000641C20786C280DD004DC4C2812D06A2899
:1017000011D104E074280DD07A280CD10AE045F4F8
:10171000001507E0617845F48015814202D1641C10
:1017200005F58015641C2278692A46D008DC002A59
:1017300070D0582A69D0632A11D0642A08D13CE0BD
:10174000702A69D0732A14D0752A5CD0782A5CD0AC
:101750000F9910465A46904706F10106D4E017F853
:10176000040B8DF8000000208DF80100E9460120EF
:1017700003E057F8049B4FF0FF3069074FF0000576
:1017800001D40AE06D1C45450DDA8542FADB19F8F3
:1017900005100029F6D106E06D1C8542FCDB19F826
:1017A00005100029F8D12E4404E019F8010B5A461F
:1017B0000F9990476D1EF8D2A6E00A200021CDE9CE
:1017C0000801C5F3025002280BD001CFC117002930
:1017D0000EDA4FF0000CD0EB0C006CEB01012D2366
:1017E00009E007F1070727F00707F7E80201EEE72E
:1017F0002B0504D52B238DF82830012330E0EB078F
:101800002ED02023F7E70A2000E010200021CDE9A8
:10181000080109E07DE0FFE71020002145F0040504
:10182000CDE908014FF00808C5F3025002281BD08B
:1018300001CF00214FF0000A2B0712D5702A19D0D2
:10184000DDE908C38CF0100C5CEA030C09D150EA06
:10185000010306D030238DF828308DF8292002238B
:101860009A46582A10D00AE0FF1D27F00707F7E82C
:101870000201DFE740228DF828204FF0010A28A25C
:101880000DF120090B9209E02AA2F9E7DDE908230E
:10189000FFF730FB0B9B9B5C09F8013D50EA01020E
:1018A000F4D1ADEB090000F120000890680701D4E5
:1018B0004FF001080899884502DDA8EB010000E01F
:1018C00000208046002506E00AA85A46405D0F9990
:1018D0009047761C6D1C5545F6DB04E030205A46D7
:1018E0000F999047761CB8F10001A8F10108F5DCCA
:1018F00005E019F8010B5A460F999047761C089994
:10190000481E08900029F4DC641C207800287FF42D
:10191000C3AE11B03046BDE8F08F000009280100C9
:101920003031323334353637383961626364656655
:101930000000000030313233343536373839414217
:101940004344454600000000020406080000000071
:101950000102030401020304060708097C190008B8
:10196000000000204C00000068160008C81900089C
:101970004C00002004FA000078160008323031379D
:101980002D30372D32382053512B594C5F3447209E
:1019900056312E3100000000000000000000000061
:1019A0000000000000000000000000000000000037
:1019B0000000000000000000000000000000000027
:0819C00000000000000000001F
:04000005080000ED02
:020000040800F2
:10300000904F002001310008296B00082B6B00084D
:103010002F6B0008336B0008376B000800000000BE
:103020000000000000000000000000003D6B0008F0
:103030003B6B0008000000003F6B0008416B00087C
:10304000496B00084B6B00084D6B00084F6B000884
:103050006B6B00086D6B00086F6B0008716B0008EC
:10306000736B0008756B0008776B00081731000858
:103070001731000817310008173100081731000810
:10308000173100081731000817310008896B000854
:103090008B6B00088D6B00088F6B0008916B00082C
:1030A000936B0008956B0008976B0008996B0008FC
:1030B0009B6B0008136C0008156C0008176C000867
:1030C000196C00081B6C00081D6C00081F6C0008C0
:1030D000216C0008236C0008B76C0008157000080C
:1030E000FF7000083B7100083D710008DFF80CD04C
:1030F00008F01EFF0048004725590008904F0020A7
:1031000005480047FEE7FEE7FEE7FEE7FEE7FEE7CD
:10311000FEE7FEE7FEE7FEE7ED30000810B506F03B
:1031200019F8FE48C078FE490872FE48C0780128A8
:1031300006D002280AD003280ED0042818D111E0A6
:10314000F94890F80001F649487212E0F64890F804
:103150000101F34948720CE0F34890F80201F0498C
:10316000487206E0F04890F80301ED49487200E02B
:1031700000BF00BF10BD10B505F0ECFFEB480068C4
:1031800005F011FCE548C078012806D0022834D0AB
:1031900003284AD0042879D15FE0E0480079E24969
:1031A00081F80001DD480079E1490870DE4890F8B7
:1031B0000001D8B9002004F080FB10B9002004F011
:1031C0007CFBDC484078042802D1012004F075FB28
:1031D000D8488078042802D1022004F06EFBD5483C
:1031E000C078042802D1032004F067FB0020D149F5
:1031F000087048708870C87049E0C8480179CA48AA
:1032000080F80111C5480079C94948700220C949B0
:103210004870C54890F8010130B9012004F04DFB19
:1032200010B9012004F049FB31E0BC480179BE48E7
:1032300080F80211B9480079BD4988700220BD4963
:103240008870B94890F8020130B9022004F035FBCB
:1032500010B9022004F031FB19E0B0480179B248FE
:1032600080F80311AD480079B149C8700220B14916
:10327000C870AD4890F8030130B9032004F01DFB7D
:1032800010B9032004F019FB01E0FFE700BF00BF05
:1032900005F07BFF10BD70B505F05CFF082600242B
:1032A00006E0A548211D405C00B903E0601CC4B2E3
:1032B000282CF6DB00BF2546002409E09E48211D8E
:1032C000425C3046711CCEB295490A54601CC4B2AF
:1032D000AC42F3DBE81C9949088070BD70B505F07D
:1032E00039FF9248006805F05EFB94480088C01ED4
:1032F000C5B2272D00DD2725002407E08749201DC2
:103300000A5C8D48211D4254601CC4B2AC42F5DBFE
:1033100000228948211D425405F037FF70BD70B569
:1033200005F018FF08257D48C27829466D1C7C48A9
:1033300042547C48C078012806D0022814D00328C3
:1033400022D0042840D12FE000240AE07A4804F17A
:103350007C01425C2846691CCDB271490A54601C4C
:10336000C4B2062CF2DB30E000240AE0724904F11A
:1033700082000A5C2846691CCDB269490A54601C67
:10338000C4B2062CF2DB20E000240AE06A4904F112
:1033900088000A5C2846691CCDB261490A54601C49
:1033A000C4B2062CF2DB10E000240AE0624904F10A
:1033B0008E000A5C2846691CCDB259490A54601C2B
:1033C000C4B2062CF2DB00E000BF00BF70BD10B538
:1033D000044600205A49088001E009F097F858484F
:1033E0000088A042F9DB10BD10B505F0B3FE4F48D0
:1033F000006805F0D8FA4948C078012806D00228AC
:1034000012D003281DD0042835D127E0002408E07D
:103410004249201D0A5C484804F17C014254601C6A
:10342000C4B2062CF4DB27E0002407E03B49201D52
:103430000A5C41497E300A54601CC4B2062CF5DB9C
:103440001AE0002407E03549201D0A5C3A4984301F
:103450000A54601CC4B2062CF5DB0DE0002407E022
:103460002E49201D0A5C34498A300A54601CC4B2BB
:10347000062CF5DB00E000BF00BF05F086FE10BDA6
:1034800000B58BB0684605F0D7F92C2269462D4867
:1034900008F03CF92B48808A2B4908802948008A8B
:1034A000401C2A49088027488089294908802548E6
:1034B000007A284908702348007927490870214874
:1034C0000078264908700BB000BD70B5FFF7D8FF33
:1034D0001F20164908600846008800040860084656
:1034E000006805F060FA05F035FE01201C490880EF
:1034F00032201C49088001201B4908801B49088094
:103500001B49086000201B490870487088701A49E0
:103510000870487088705920184931E08C080020E4
:10352000FC3100208C060020FC3B002038010020EC
:10353000DA000020DE000020FC3C00205E000020BD
:10354000B200002060060020340000203600002079
:10355000380000203C0000203D0000203E000020FC
:1035600082000020840000209400002092000020AF
:103570008800002096000020990000208D00002087
:10358000087053204870462088705320C87000206F
:103590000871FE4908704FF4E170FD490880002071
:1035A0004880052088800A20C8804FF6FF70088177
:1035B0000020F8490870F84908700120F7490870A0
:1035C000F74908703C2048700320F6490870012034
:1035D0004870022088700020C8700024F2480278E9
:1035E0002146641CF1484254EF48008802122146EB
:1035F000641CEE484254EE4802782146641CEB48B5
:103600004254EB48008802122146641CE7484254A9
:10361000E8480088C2B22146641CE4484254E548A8
:10362000008802122146641CE04842546424DD48AC
:1036300002782146641CDD484254DA48427820462C
:10364000611CCCB2D9490A54D64882782046611C04
:10365000CCB2D6490A54D348C2782046611CCCB2B9
:10366000D2490A54D4480088C2B22046611CCCB268
:10367000CE490A54D048008802122046611CCCB2C0
:10368000CA490A54CD4802782046611CCCB2C749C9
:103690000A54CA480088C0F307222046611CCCB2F5
:1036A000C2490A54C5480068C0F307422046611C5D
:1036B000CCB2BE490A54C1480068020E2046611CC3
:1036C000CCB2BA490A546E24BD4802782146641C23
:1036D000B6484254BA4842782046611CCCB2B3493D
:1036E0000A54B74882782046611CCCB2AF490A54CC
:1036F000B44802782046611CCCB2AC490A54B148A7
:1037000042782046611CCCB2A8490A54AD48827860
:103710002046611CCCB2A5490A54AB480278204629
:10372000611CCCB2A1490A54A74842782046611CCA
:10373000CCB29E490A54A44882782046611CCCB27F
:103740009A490A54A048C2782046611CCCB29749D5
:103750000A548E4802782046611CCCB293490A5420
:1037600079248B480088C2B22146641C8F48425499
:103770008748008802122046611CCCB28B490A544B
:1037800083484088C2B22046611CCCB287490A54A3
:103790007F48408802122046611CCCB283490A54FB
:1037A0007B488088C2B22046611CCCB27F490A5453
:1037B0007748808802122046611CCCB27B490A54AB
:1037C0007348C088C2B22046611CCCB277490A5403
:1037D0006F48C08802122046611CCCB273490A545B
:1037E0006B480089C2B22046611CCCB26F490A54B2
:1037F0006748008902122046611CCCB26B490A540A
:10380000644802782046611CCCB268490A54624878
:1038100002782046611CCCB264490A545F480278A1
:103820002046611CCCB261490A545D4802782046AA
:10383000611CCCB25D490A54594842782046611C4B
:10384000CCB25A490A5401206049087000204870DF
:103850008870C8705E4908705E4908705E490870DB
:1038600075205E4908709E204870D8208870FA2024
:10387000C870D920087111204871752088719E2167
:103880005648C171D8210172FA21417279218172A1
:103890006921C1727520514908739E214F484173B7
:1038A000D8218173FA21C173E42101740721417485
:1038B00075204A4988749E214848C174D8210175F1
:1038C000FA214175E42181750721C17500243F4823
:1038D00002782146641C424842543C4842782146C2
:1038E000641C3F484254394882782146641C3C4855
:1038F00042543648C2782146641C3948425400BFBD
:10390000334802782146641C354842542C243148FF
:1039100002782146641C3248425454242E480278CE
:103920002146641C2E4842547C242C4802782146AF
:10393000641C2B484254294842782046611CCCB272
:1039400027490A54254882782046611CCCB2244974
:103950000A542248C2782046611CCCB220490A543D
:103960001E4802792046611CCCB21D490A541B48EE
:1039700042792046611CCCB219490A541748827911
:103980002046611CCCB216490A542BE08C00002062
:1039900002280020310100203001002032010020E7
:1039A000330100209C02002082000020FC3B00200C
:1039B0008400002094000020920000208800002055
:1039C00096000020990000208D000020DA000020E1
:1039D000E62900200E2A0020362A0020CE290020C9
:1039E000FC3C0020FA48C2792046611CCCB2F9495F
:1039F0000A54F748027A2046611CCCB2F5490A54B1
:103A0000F348427A2146601CC4B2F2484254F0485E
:103A1000827A2046611CCCB2EE490A54EC48C27A44
:103A20002046611CCCB2EB490A54E948027B21468E
:103A3000601CC4B2E7484254E548427B2046611C02
:103A4000CCB2E4490A54E248827B2046611CCCB2E5
:103A5000E0490A54DE48C27B2046611CCCB2DD49F5
:103A60000A54DB48027C2046611CCCB2D9490A5476
:103A7000D748427C2046611CCCB2D6490A54D4486F
:103A8000827C2146601CC4B2D2484254D048C27CD9
:103A90002046611CCCB2CF490A54CD48027D204655
:103AA000611CCCB2CB490A54C948427D2046611CF6
:103AB000CCB2C8490A54C648827D2046611CCCB2AB
:103AC000C4490A54C248C27D2046611CCCB2C149D7
:103AD0000A54002404E0FF21BF480155601CC4B211
:103AE000FF2CF8DBFF21BD4880F8FF12BC4800889E
:103AF000642190FBF1F0BB490870B948008864214B
:103B000090FBF1F201FB1200B6494870B6480088FC
:103B10008870B6480088C870B54800780871B54804
:103B200000784871B44800788871084605F0ACF810
:103B3000B249086008460068B1490988B0FBF1F253
:103B400001FB1200AD490968081AAC490860084633
:103B5000008881B2282008F043FBA8480068010CC7
:103B6000402008F03DFB05F010FB00209D498871C6
:103B7000084605F089F805462946002005F0D3F8E7
:103B8000A04908600846006804F00DFF954805F05C
:103B90007BF805462946012005F0C5F899490860DB
:103BA0000846006804F0FFFEAA2070BD10B5FFF7BC
:103BB00067FC8B480088642190FBF1F201FB120046
:103BC000914908728848008848728848008888723D
:103BD00087480078C872874800780873864800785C
:103BE000487310BD00B587B0884800798749C97807
:103BF00001EBC10202EB011100EB81008449486135
:103C000082484079401E086180488079C8607F48BA
:103C1000C07988607D48007A48607C48407A0860B6
:103C2000084600887B4908801C2279491031684683
:103C300007F06CFD76480FC804F019FE4AF2A55152
:103C4000042008F0CDFA07B000BD10B500226F487F
:103C50000078714C2080002105E06C48405C1044E5
:103C600082B2481C81B26D4800888142F5DB08466B
:103C70004C1CA1B2654C235C08464C1CA1B2634CA1
:103C8000205C03EB002083B29A4201D1002010BDDA
:103C90004FF0FF30FBE770B5302061490870614894
:103CA000007828B93020604908706049087013E036
:103CB0005C480078012806D132205B49087030202A
:103CC0005A49087008E057480078022804D1322089
:103CD00055490870554908705548006807F060FF5D
:103CE00004464FF03332534B07F082FF03D23320A8
:103CF0005149087010E04E48006807F051FF044633
:103D000000224E4B07F060FF03D234204A4908706E
:103D100002E030204849087049494A48006807F0E5
:103D2000A1FF03D23320484908700CE047494548B9
:103D3000006807F08DFF03D234204349087002E089
:103D400030204149087070BD2DE9F04FADF6180DD7
:103D500003468C460020CDF814084FF47A740025F1
:103D6000002700263A48B0F80290B0F804A0C088B6
:103D700004903748008903904FF00008002002901B
:103D800001900090002107E00020DFF8C4B001F1AD
:103D9000110E2BF81E00491C9942F5DB002105E0AD
:103DA00000200DF1140B4BF82100491C9942F7DB60
:103DB0000021C2E03CF8110050285ADD01200DF12D
:103DC000140B4BF82100022954DA00224EE00000C7
:103DD000CE290020FC3C0020FC3D0020FC3B0020C4
:103DE00034000020040100203600002038000020AC
:103DF0003C0000203D0000203E0000202C0100205F
:103E00003601002038010020FC3100208C08002001
:103E100060060020A2000020600000205E0000205C
:103E20007C000020A00000207D00002080000020F9
:103E30007400002033332B407E0000200000274018
:103E40000000A042780000207F000020000020C277
:103E5000B80200203CF81200282801DD012000E013
:103E600000200DF1140B4BF82200521CC81C82429A
:103E7000F0DB24E0D81E884210DA8A1E0BE03CF802
:103E80001200282801DD012000E000200DF1140BB4
:103E90004BF82200521C9A42F1DB10E08A1E0BE024
:103EA0003CF81200282801DD012000E000200DF17F
:103EB000140B4BF82200521CC81C8242F0DB042970
:103EC00006DC0120DFF870B601F1110E2BF81E00A0
:103ED0003CF81100282819DD042917DD01F10C0038
:103EE0000290581F884202DC1530019002E001F177
:103EF00016000190029A05E00120DFF83CB62BF88D
:103F00001200521C01988242F6DD15E03CF81100C7
:103F1000282811DD04290FDC1120029001F1160080
:103F20000190029A05E00120DFF80CB62BF8120090
:103F3000521C01988242F6DD491C9942FFF63AAFC5
:103F4000012113E0481E0DF1140B5BF8200001283D
:103F50000BD1481C5BF82000012806D105A850F8B9
:103F6000210010B901204BF82100491C581E88423D
:103F7000E8DC002104E005A850F821008044491C39
:103F80009942F8DBB8F1060F44DB591E3BE00229E9
:103F900024DD9DB905A850F8210001280ED1481E46
:103FA0000DF1140B5BF82000012807D1881E5BF887
:103FB0002000012802D1481C85B223E075B1B4F578
:103FC0007A7F0BD1481E0DF1140B5BF8200028B945
:103FD00005A850F8210008B9481C84B24EB9B4F5C0
:103FE0007A7F06D005A850F82100012801D1481C8D
:103FF00086B236B12FB905A850F8210008B9481C7F
:1040000087B200BF491E0029C1DA1DB1B4F57A7F1D
:1040100000D10024B8F1000F02DDB8F1060F03DB78
:10402000B8F1060F3CDBDDBB002126E0B4F57A7F5A
:1040300006D105A850F82100012801D18CB21BE05F
:1040400045B9B4F57A7F05D005A850F8210008B924
:104050008DB211E03DB137B905A850F82100012813
:1040600001D18FB208E037B12EB905A850F8210070
:1040700008B98EB203E000BF491C9942D6DB00BFED
:104080000FB106B91E46B4F57A7F00D100243EB1C7
:104090002846A34635463C4686B21FFA8BF700BF3A
:1040A00035B10120CDF8140816B10220CDF814085E
:1040B000B4F57A7F00D10024DFF87CB4DDF8140871
:1040C000ABF80000584644808580C780068109F11E
:1040D0000500844202DC601D814501DD0120009065
:1040E0000AF10500854202DC681D824501DD0120E0
:1040F00000900498401D874204DC07F1050B0498EA
:10410000584501DD012000900398401D864204DCE3
:1041100006F1050B0398584501DD01200090009839
:1041200001280BD1112105E00120DFF80CB42BF898
:104130001100491C03F111008842F5DCFE480DF620
:10414000180DBDE8F08F70B5FC490988FC4A12884B
:104150005143491E88B2FB49FFF7F6FD064600248D
:1041600006E036F81400F84921F81400601CC4B2C7
:10417000112CF6DBF1480088F149098848431030DA
:1041800085B2002407E006EB440090F82200EF49D6
:104190000855601CC4B2AC42F5DBEB480088EC4922
:1041A000097888420CDD002408E0E749601C31F8FA
:1041B0001000E84921F81400601CC4B2102CF4DB94
:1041C00000241EE13020E44901F81400012101EB34
:1041D0004401E14A5054DC480088A0427DDD0121C1
:1041E00001EB4401D84A32F811104FEA4402D94B8E
:1041F00033F81220881A01D4014600E041428DB202
:10420000D6488088A8420EDAD4488088A0F57F413D
:10421000FF3908D0D04810F81400312803DA3120D3
:10422000CD4901F81400CD48C088A8420EDACB4829
:10423000C088A0F57F41FF3908D0C74810F81400A6
:10424000322803DA3220C44901F81400C348008937
:10425000A8420EDDC1480089A0F57F41FF3908D092
:10426000BD4810F81400322803DA3220BA4901F8A8
:104270001400012000EB4400B34931F81000B749A5
:10428000098888420EDDB5480088A0F57F41FF39D6
:1042900008D0B14810F81400322803DA3220AE49B1
:1042A00001F81400012000EB4400A74931F8100088
:1042B000AA49498888420EDAA8484088A0F57F417B
:1042C000FF3908D0A44810F81400322803DA32204D
:1042D000A14901F81400022100E090E001EB440143
:1042E000994A32F811104FF0010202EB4402994B47
:1042F00033F81220881A01D4014600E041428DB201
:1043000096488088A84212DA94488088A0F57F41B8
:10431000FF390CD0012000EB44008F49085C3128A4
:1043200005DA3120012101EB44018B4A50548B48BE
:10433000C088A84212DA8948C088A0F57F41FF39B9
:104340000CD0012000EB44008349085C322805DAD8
:104350003220012101EB44017F4A50547F480089FB
:10436000A84212DD7D480089A0F57F41FF390CD0BD
:10437000012000EB44007849085C322805DA32203D
:10438000012101EB4401744A5054022000EB440027
:104390006D4931F8100071490988884212DD6F4873
:1043A0000088A0F57F41FF390CD0012000EB4400CC
:1043B0006949085C322805DA3220012101EB440109
:1043C000654A5054022000EB44005F4931F8100068
:1043D00062494988884212DA60484088A0F57F41E6
:1043E000FF390CD0012000EB44005B49085C322807
:1043F00005DA3220012101EB4401574A5054601C78
:10440000C4B2082CFFF6DEAE4F4800785049087061
:10441000002408E04C49601C31F810004D4921F897
:104420001400601CC4B2102CF4DB70BD70B54C4895
:10443000007810B9FFF787FE0EE0494800780128A0
:1044400003D109204249087006E045480078022857
:1044500002D10A203E490870FFF71DFC00204049A8
:10446000087002243F480088642190FBF1F0C2B23A
:104470002146641C3C4842543A480088642190FB21
:10448000F1F201FB1200C2B22146641C36484254CC
:1044900036480088C2B22146641C3348425434482E
:1044A0000088C2B22146641C2F4842543148027829
:1044B0002146641C2C4842542F4802782146641C33
:1044C00029484254224802782046611CCCB2264931
:1044D0000A54002512E01F4810F815202046611CE0
:1044E000CCB221490A541B4830F81500021220466C
:1044F000611CCCB21C490A54681CC5B2102DEADB01
:10450000002508E01448425D2046611CCCB21649E3
:104510000A54681CC5B2102DF4DB3924012221464F
:10452000641C11484254154802782146641C0E4808
:1045300042541348027825E0B8020020820000208F
:1045400084000020B0230020D02700200C28002069
:1045500081000020B0270020F22700200228002040
:10456000A000002034000020FC3200203600002093
:10457000380000203C0000203D0000207C0000208E
:104580007D0000202046611CCCB2F7490A54F74850
:1045900002782046611CCCB2F3490A54F4480278F0
:1045A0002046611CCCB2F0490A54F24802782046F9
:1045B000611CCCB2EC490A540846047020124870C1
:1045C00000250DE0201F2844E749085C302805D06D
:1045D000084690F83900401C81F83900681CC5B2C3
:1045E000042DEFDB204670BD2DE9FC5FE24800881A
:1045F000E24909884843401E4FF6FF7101EA400A2C
:104600000224DF480088642190FBF1F0C2B2214609
:10461000641CD5484254DA480088642190FBF1F2CA
:1046200001FB1200C2B22146641CCF484254D54857
:104630000088C2B22146641CCB484254D24800884C
:10464000C2B22146641CC8484254D0480278214670
:10465000641CC5484254CE4802782146641CC248B6
:104660004254002509E0CB49A81D0A5C2046611C84
:104670008CB2BD490A54681C85B25545F3DBC64966
:10468000C648006807F089F8834607F089FA0022D7
:10469000C34BCDE9000107F0B6F8074607F067FA0B
:1046A0001FFA80F92046611C8CB2AF4901F80090D6
:1046B0004FEA29222046611C8CB2AB490A540021E2
:1046C000B848006807F0CEFA12D8B349B548006878
:1046D00007F063F8834607F063FA07460022B04B01
:1046E00007F091F8CDE9000107F022FA06B211E0D7
:1046F000A949AC48006807F050F8834607F050FA23
:104700000022A74BCDE9000107F01EF9074607F08C
:104710000FFA06B22046611C8CB293490E54C6F3C0
:1047200007222046611C8CB28F490A54002512E0F2
:104730009D4810F815202046611C8CB28A490A5405
:10474000994830F8150002122046611C8CB2864947
:104750000A54681C85B2112DEADB83490C702012C3
:1047600048704FEA6A0A2046BDE8FC9F10B5824BAC
:104770001B88824C248863435B1E4FF6FF7404EA57
:1047800043028A49002005E0824C831DE35C0B5400
:10479000431C98B29042F7DB10BD10B500227D4853
:1047A00000787C4C647800EB0420814C2080002150
:1047B00005E07848405C104482B2481C81B27D48D4
:1047C00000888142F5DB08464C1CA1B2714C235C89
:1047D00008464C1CA1B26F4C205C03EB002083B256
:1047E0009A4201D1002010BD4FF0FF30FBE710B519
:1047F000044671480460012008F0EDF801E007F07C
:1048000085FE6D4800680028F9D1801E08F0E3F8A5
:10481000002008F0E0F810BD2DE9F0410122102140
:10482000664807F065FE0024AA222146641C6448FD
:10483000425460480088C2B22146641C6048425419
:104840005C48008802122146641C5D484254584866
:104850000088C2B22146641C59484254544800881A
:1048600002122146641C5648425456480088C2B27F
:104870002146641C52484254524800880212214684
:10488000641C4F48425450480088C2B22046611C04
:10489000CCB24B490A544C48008802122046611C95
:1048A000CCB247490A54002542480088C01CC7B210
:1048B000032405E04248005D284485B2601CC4B270
:1048C000BC42F7DB2046611CCCB23D490D542A1294
:1048D0002046611CCCB23A490A54DD222046611CB4
:1048E000CCB237490A54002038490880384804803F
:1048F000012240F22771374808F0FAF83648068856
:1049000002E007F003FE00BF304800883049098804
:10491000884204DA30480088801B0628F1DB012039
:10492000FFF765FF00221021244807F0E1FD8020F9
:104930002A490880BDE8F08170B529480088002820
:1049400073D10D4800880D4909884843401E85B23F
:10495000A81D184908800D48007820B90C48007837
:1049600008B9002445E047E0FC3200207E0000202A
:104970007F000020800000208200002084000020B2
:104980003400002036000020380000203C000020C9
:104990003D000020680F002000002041740000202E
:1049A0000000E03F78000020D0270020B023002046
:1049B000700000206E000020280000200010014040
:1049C000681F002092000020940000206400002056
:1049D0006200002000480040A40000206A0000207F
:1049E0002E0000200121FB4A04F109001154601C33
:1049F00084B2AC42F6DB0BE0002407E0F648015D30
:104A0000F44A04F109001154601C84B2AC42F5DB95
:104A100045F28610F14908808020F1490880FFF7AF
:104A2000FBFEF0480088F0490880EE480088EE4917
:104A30000988401A10281BDAE948008887281CD109
:104A4000FFF7ABFE00280EDBE4480088A0F5A2418A
:104A5000063903D10020E449088070BD0020E249F6
:104A60000880401EF9E70020DF490880401EF4E777
:104A70000020DD490880401EEFE70220EDE72DE928
:104A8000F04F8BB04FF00008C14640F6FF7AD34696
:104A900000250026002442E0002000EB4400D3491A
:104AA00031F810000544002000EB440031F81000FC
:104AB000404504DD002000EB440031F81080002068
:104AC00000EB4400C94931F81000504504DA0020D9
:104AD00000EB440031F810A0012000EB4400C34972
:104AE00031F810000644012000EB440031F81000BA
:104AF000484504DD012000EB440031F8109001200E
:104B000000EB4400B94931F81000584504DA01209F
:104B100000EB440031F810B007F0F8FC641C122CD4
:104B2000BADBA5EB0800A0EB0A00C0F30B15A6EB5F
:104B30000900A0EB0B00C0F30B16284606F0EBFFB4
:104B4000AB4AAC4BCDE9040106F004FF0022AA4BAE
:104B5000CDE9060106F070FFCDE9080107F05CF829
:104B6000A6490860304606F0D6FFA54AA54BCDE918
:104B7000040106F0EFFE00229F4BCDE9060106F08E
:104B80005BFFCDE9080107F047F80746384607F014
:104B900007F89D4A9D4BCDE9000106F0D8FE0022A2
:104BA0009B4BCDE9020106F0D5FE0022994BCDE9E1
:104BB000040106F041FF0022974BCDE9060106F003
:104BC00022FECDE9080107F027F8944908600BB0F0
:104BD000BDE8F08F10B59248008878B90620914959
:104BE000088045F286007D49088080207C49088045
:104BF000FFF712FE7B4800888949088009E007F02A
:104C000085FC77480088872803D1002084490880E4
:104C100010BD7448008882490988401A0228EEDBDA
:104C200000207F490880401EF2E770B57E4804F0FE
:104C30002BF80446282007F0CBFA0546402007F061
:104C4000C7FA05EB00407949086008460068A042B1
:104C500005D80846006876490844A0420CD273483B
:104C60000460008881B2282007F0BAFA6F48006813
:104C7000010C402007F0B4FA70BD3EB5012220219E
:104C80006C4807F035FC002208216A4807F030FC28
:104C900000221021674807F02BFC8020664908801D
:104CA000664908804E490880002404E024206449B5
:104CB0000855601C84B2642CF8DB624962A007F0DE
:104CC0007BFF0120FEF783FBFEF7DAFB60480078EC
:104CD0006049088060480088642190FBF1F05249E7
:104CE00008705D480088642190FBF1F201FB12001E
:104CF0004D49487059480088887059480088C870E4
:104D0000584800780871584800784871524800881F
:104D1000642190FBF1F0554908704F4800886421E8
:104D200090FBF1F201FB1200504948704B4800889B
:104D300088704B480088C8704A48007808714A4813
:104D400000780A2190FBF1F201FB12004649097834
:104D5000081A46494871002088713D480078424948
:104D60000978404A1278CDE9002102903C48038836
:104D70003A480288384801883DA007F01DFFBC2052
:104D800007F026FAC0B2AB2803D10021BC2007F0FF
:104D900027FA4348007804F03CF842490880084666
:104DA000008800EB80004FF6FF7101EA40003D49AA
:104DB000088001203C490870FFF737FF002404E019
:104DC000012005490855601C84B2B4F5E17FF7DB8A
:104DD0003EBD0000681F00200C280020700000204D
:104DE0006A000020A40000202E000020682300207C
:104DF000EC51B81E852B30400000B04074000020FC
:104E00004E62105839B40A40B81E85EB51B8F63FCF
:104E10000088C340008045400000394078000020F1
:104E20002C0000206E000020040100202C01002036
:104E3000008D2700001001404A0000205A00002089
:104E4000FC3E0020000000200D0A25730D0A000022
:104E50003E000020A2000020340000203600002088
:104E6000380000203C0000203D00002012010020FE
:104E7000253034642D253032642D253032642025D0
:104E80003032643A253032643A2530326420537926
:104E90007374656D205265736574210D0A000000FE
:104EA00032010020360100209F00002070B504F080
:104EB00051F900242146641CFE48405CFE490880EC
:104EC0002146641CFB48405CFB49098801EB00203B
:104ED000F94908802146641CF648405CF74908807F
:104EE0002146641CF348405CF449098801EB00202A
:104EF000F24908802146641CEE48405CF049088075
:104F00002146641CEB48405CED49098801EB002018
:104F1000EB4908806424E74890F86400082820DA08
:104F2000E44890F8650001281BD1E24890F866003B
:104F3000032816DADF4890F86700022811DADD4806
:104F400090F86400DF490870DA4890F8650048700E
:104F5000D84890F866008870D64890F86700C87006
:104F600008E00320D74908700220887001204870AB
:104F70000020C87068242146641CCE48405CD24999
:104F800008802046611CCCB2CA49085CCE49098819
:104F900001EB0020CC4908802046611CCCB2C549F9
:104FA000085CCA4908602046611CCCB2C149085C53
:104FB000C649096801EB0020C44908602046611C0D
:104FC000CCB2BC49085CC149096801EB0040BF494B
:104FD00008602046611CCCB2B649085CBB49096830
:104FE00001EB0060B94908602046611CCCB2B149B0
:104FF000085CB74908702046611CCCB2AD49085C1A
:10500000B34948702046611CCCB2AA49085CB0493B
:1050100088702046611CCCB2A649085CAD49087076
:105020002046611CCCB2A349085CAA4948702046BE
:10503000611CCCB29F49085CA64988702046611C5F
:10504000CCB29C49085CA44908702046611CCCB2D3
:105050009849085CA04948702046611CCCB295492B
:10506000085C9D4988702046611CCCB29149085C5F
:105070009949C8702046611CCCB28E49085C97499A
:1050800008702046611CCCB28A49085C94490880AB
:10509000084602882046611CCCB28649085C02EBB7
:1050A00000208F4908802046611CCCB28149085CF1
:1050B0008B494880084642882046611CCCB27D4915
:1050C000085C02EB0020864948802046611CCCB277
:1050D0007849085C82498880084682882046611C9D
:1050E000CCB27449085C02EB00207D4988802046E0
:1050F000611CCCB26F49085C7949C8800846C288F7
:105100002046611CCCB26B49085C02EB002074495C
:10511000C8802046611CCCB26649085C7049088191
:10512000084602892046611CCCB26249085C02EB49
:1051300000206B4908812046611CCCB25D49085CA7
:10514000684908702046611CCCB25A49085C66491F
:1051500008702046611CCCB25649085C634908704F
:105160002046611CCCB25349085C61490870204656
:10517000611CCCB24F49085C5D494870002421464F
:10518000641C5C48405C5C4908702146641C5948BA
:10519000405C594948702146641C5648405C564959
:1051A00088702146641C5348405C5349C8700025F0
:1051B00008E02046611CCCB24E49085C4F49485576
:1051C000681CC5B2282DF4DB002508E02046611CD0
:1051D000CCB24849085C4A494855681CC5B2282DDC
:1051E000F4DB002508E02046611CCCB24149085C94
:1051F00044494855681CC5B2282DF4DB00203F49BE
:1052000081F827003E4981F827003E4981F82700B0
:105210002046611CCCB23749085C3B4908702046E7
:10522000611CCCB23349085C374948702046611C88
:10523000CCB23049085C344988702046611CCCB23D
:105240002C49085C3049C8702046611CCCB2294901
:10525000085C2D4908712046611CCCB22549085CC8
:10526000294948712046611CCCB22249085C264974
:1052700088712046611CCCB21E49095C2248C1716C
:105280002046611CCCB21B49095C1F4801722046B4
:10529000611CCCB21749095C1B4841722046611C55
:1052A000CCB21449095C184881722046611CCCB20A
:1052B00010492BE0FC3B00208200002084000020ED
:1052C000940000209C020020920000208800002012
:1052D00096000020990000208D0000208C00002006
:1052E000022800203101002030010020320100207E
:1052F00033010020FC3C0020DA000020E6290020D9
:105300000E2A0020362A0020CE290020095CFE4803
:10531000C1722046611CCCB2FC49085CFA49087392
:105320002046611CCCB2F949095CF748417320461C
:10533000611CCCB2F549095CF34881732046611CBD
:10534000CCB2F249095CF048C1732046611CCCB272
:10535000EE49095CEC4801742046611CCCB2EB4973
:10536000095CE94841742046611CCCB2E749085CFD
:10537000E54988742046611CCCB2E449095CE248E6
:10538000C1742046611CCCB2E049095CDE4801755D
:105390002046611CCCB2DD49095CDB4841752046E2
:1053A000611CCCB2D949095CD74881752046611C83
:1053B000CCB2D649095CD448C17503F095FF70BDE5
:1053C00000B591B000200C9001208DF834008DF8CC
:1053D00035004FF460200E9000200F9002208DF8D1
:1053E00040000CA9CA4806F067FE012006F0D6FE70
:1053F000072301220821C64806F082FE0723022265
:105400001021C34806F07CFE0121C14806F031FEA0
:105410000121BF4806F037FEBD4806F0ABFE00BFD5
:10542000BB4806F041FE0028FAD1B94806F0B1FEAB
:1054300000BFB74806F031FE0028FAD10121B44878
:1054400006F09DFE0121084607F0D8F8B14806F0A5
:10545000D9FEAF484C300190AF4802900020039035
:1054600024200490002005908020069040000790A2
:10547000800008902020099000020A9000200B90E4
:1054800001A9A44806F02EFF0121A24806F0B0FEB3
:1054900011B000BD0EB542F20F70ADF8040041F638
:1054A0001F40ADF800000020ADF80600ADF8020086
:1054B00069464FF0804007F0C7FA0121880707F0DE
:1054C000ACFA01221146900707F0B5FA01218807CE
:1054D00007F0A6FA0EBD1FB54FF41650009000203D
:1054E000ADF80400ADF80600ADF80800ADF80C000A
:1054F0000C20ADF80A006946884807F011FB4FF40C
:10550000E13000906946864807F00AFB4FF41650D8
:1055100000906946834807F003FB012240F22551C1
:105520007E4807F0E5FA012240F225517C4807F059
:10553000DFFA012240F225517A4807F0D9FA012119
:10554000764807F0A5FA0121754807F0A1FA012174
:10555000744807F09DFA1FBD10B5042007F02FFA1C
:10556000714807F056FA012007F047FA10BD00B560
:1055700087B001214FF0C05007F04CF8012007F030
:105580002DF8042006F024FEA0F52541A53950D0C1
:1055900006F014FE012007F007F900BF412007F0D4
:1055A000BFF80028FAD04FF4807007F037F90120D7
:1055B00007F02EF907F0C2F907F0B6F94FF4FB60D7
:1055C0005A494861002008610120C86000208860B5
:1055D000486008601C221031684606F097F853486E
:1055E0000FC803F044F90821142006F0F9FD012149
:1055F000182006F0F5FD01211C2006F0F1FD002128
:10560000202006F0EDFD0021242006F0E9FD4AF2FD
:10561000A551042006F0E4FD0121084607F058F9E1
:1056200007F082F947F6FF7007F06EF907F07CF992
:1056300009E007F083F907F077F90121084607F040
:1056400047F907F071F907B000BD0EB5F820ADF8C5
:10565000080003208DF80A0010208DF80B0002A925
:10566000334806F0E3FE0220ADF8080003208DF871
:105670000A0010208DF80B0002A92E4806F0D6FE75
:10568000012280212A4806F033FF4FF48060ADF8F4
:10569000080004208DF80B0002A9264806F0C6FE7B
:1056A0000820ADF8080048208DF80B0002A9214819
:1056B00006F0BCFE4FF40060ADF8080004208DF841
:1056C0000B0002A91C4806F0B1FE4FF40070ADF8C3
:1056D000080003208DF80A0018208DF80B0002A99D
:1056E000144806F0A3FE0420ADF8080002A91148F2
:1056F00006F09CFE4FF48060ADF8080002A90E4849
:1057000006F094FE012019E0CE290020FC3C002088
:1057100000240140080002406823002000380140B6
:10572000004400400048004080FC0A006006002061
:105730000010014000080140000C0140ADF80800D5
:1057400000208DF80B0002A9FE4806F06FFE4FF412
:105750008050ADF8080003208DF80A0004208DF871
:105760000B0002A9F74806F061FE0C21012006F0AB
:1057700049FE4FF48050009000208DF804000C206A
:105780008DF8050001208DF80600684606F0DCFD66
:105790000EBD10B545F2555006F0CCFE032006F0C4
:1057A000BDFE40F2E24006F0BFFE06F0AFFE06F09E
:1057B000A5FE10BD08B5E4494FF0006006F004FFF7
:1057C0004FF4C06006F0F6FE03208DF800000020C4
:1057D0008DF8010002208DF8020001208DF80300F1
:1057E000684606F0ADFE25208DF8000001208DF8FA
:1057F000010003208DF8020001208DF803006846A7
:1058000006F09EFE26208DF8000004208DF8020090
:1058100001208DF80300684606F092FE27208DF8DF
:10582000000005208DF8020001208DF80300684675
:1058300006F086FE28208DF8000000208DF801007B
:105840008DF8020001208DF80300684606F078FE0E
:1058500000208DF8000001208DF80100684606F058
:105860006FFE12208DF8000000208DF801008DF8E9
:10587000020001208DF80300684606F061FE1C203E
:105880008DF8000000208DF8010001208DF8020045
:105890008DF80300684606F053FE08BD10B506F00B
:1058A000D7FE4FF4803006F065FF06F0C9FF0446CE
:1058B000012C28D1102006F08DFD022006F096FD67
:1058C000002006F04DFF002006F088FFA00206F041
:1058D0007BFF4FF4404006F087FE4FF4E0112004B8
:1058E00006F08CFF012006F083FF00BF392006F090
:1058F00017FF0028FAD0022006F098FF00BF06F03C
:1059000027FF0828FBD1012144F21D2006F08EFE5E
:1059100001214FF4C02006F07DFE0121084606F06B
:1059200079FE10BDFFF7BAFFFFF744FFFFF731FF25
:10593000FFF78BFEFFF71BFEFFF70EFEFFF7CBFD19
:1059400002F0A8FFFFF7A6FDFFF73AFDFFF7AEFA5A
:10595000FFF793F9E5E206F0D9FD02F0E5FD7B489B
:1059600000883C2860DD7A48007800285CD1FDF78B
:1059700087FD784800783C2190FBF1F201FB120092
:105980007249088074480088642190FBF1F07349E3
:10599000087071480088642190FBF1F201FB12004D
:1059A0006E4948706E48008888706E480088C870DC
:1059B0006D48007808716D48007848710020887142
:1059C0006A4800780A2190FBF1F201FB120040BB0B
:1059D000FFF72BF9FFF7FEF8002819DAFFF7FAF8BE
:1059E00000280EDAFFF7F6F8002803DA02206049F3
:1059F000087013E001205E4908706420FEF7F7FE8E
:105A00000CE001205A4908706420FEF7F0FE05E022
:105A10000120574908706420FEF7E9FEFFF72FF8D0
:105A200002E00320524908705148007801287CD1D7
:105A3000FEF782FFB0F1FF3F02D0002876D157E099
:105A400045480088642190FBF1F04A4908704248BB
:105A50000088642190FBF1F201FB12004549487077
:105A60003F48008888703F480088C8703E480078EA
:105A700008713E4800780A2190FBF1F201FB120008
:105A80003A490978081A3B49487100208871012079
:105A900039490870FEF7CAFC384908802F490020B0
:105AA00003F074F93648007801281AD13548007897
:105AB00018B12A49002003F0CAF93248407880B171
:105AC000264803F0E1F804462E49487803F0A1F98E
:105AD000B4FBF0F100FB114018B92049012003F09C
:105AE000B6F901202849087000202149087089E092
:105AF00019480088642190FBF1F01E49087016488F
:105B00000088642190FBF1F201FB120019494870F2
:105B100013480088887013480088C87012480078BD
:105B20000871124800780A2101E06CE069E090FBFE
:105B3000F1F201FB12000D490978081A0D4948716C
:105B4000002023E0000C014000300008A2000020EB
:105B5000E80000203E000020340000200401002066
:105B600036000020380000203C0000203D000020CE
:105B70009C00002012010020A00000200201002053
:105B800031010020330100209F0000208871F74977
:105B90000870FEF7EBFDFEF749FCF5490880F54972
:105BA000002003F0F3F8FEF71FFDF1490880F149EA
:105BB000012003F0EBF8F048007801281AD1EF48F3
:105BC000007818B1EB49002003F041F9EB48407828
:105BD00080B1E84803F058F80446E849487803F0F3
:105BE00018F9B4FBF0F100FB114018B9E1490120AC
:105BF00003F02DF90120E24908700020E149087006
:105C000000E000BF6AE0DF480078022854D1DE4897
:105C10000088642190FBF1F0DC490870DA480088C4
:105C2000642190FBF1F201FB1200D8494870D8487A
:105C300000888870D7480088C870D74800780871F5
:105C4000D64800780A2190FBF1F201FB1200D349FB
:105C50000978081ACD494871002088710220C3498B
:105C60000870FEF7E3FBC2490880C249002003F038
:105C70008DF8C148007801281AD1C048007818B1C1
:105C8000BC49002003F0E3F8BC48407880B1B94833
:105C900002F0FAFF0446B949487803F0BAF8B4FBB9
:105CA000F0F100FB114018B9B249012003F0CFF820
:105CB0000020B449087011E0B248007803280DD1E3
:105CC000AD480078012806D1AC48007818B1A94940
:105CD000002003F0BCF80020AA490870A84800780A
:105CE000012805D1AE480078042801D103F0FEF95F
:105CF000AC480078012801D103F0B0F9AA48007837
:105D0000002801DD03F089F9A8480078012801D1B5
:105D100005F097FCA6480088872870D10020A54987
:105D20000880FDF792FF0028F7D1A34800888F284C
:105D300073D00CDC842830D004DC812810D0822879
:105D40001DD11DE085285BD08E28F9D187E09528EC
:105D500079D0962878D09C2877D09D28F0D1CFE0B4
:105D6000FDF740FF0320954908800F2092490880E5
:105D70000020934908809348007802F011F9CCE0A4
:105D8000FDF714FF09208D49088002208A49088008
:105D90008C48007802F004F9BFE014208A490870AA
:105DA0008A48C07848708948007988708748407967
:105DB000C8708648807908718448C079487100208D
:105DC0008871084602F060FF814908607F48007AC8
:105DD0007D4948707D48407A88707C48807AC870D8
:105DE0007A48C07A08717948007B4871084602F009
:105DF0004BFF7749486001206A4908708DE090E0C8
:105E0000FDF73EFBFDF761FBAA2807D103206B4994
:105E100008800F206849088006E040E003206749B9
:105E200008800E20644908806648007802F0B8F8BF
:105E30000220FDF7CCFA6348007801F03EFD01280E
:105E400004D100BFFEE737E043E04CE00220FDF75D
:105E5000BEFA5C48007801F030FD00BFFEE7FDF7B8
:105E6000C3FA0320554908800F205349088055483C
:105E7000007802F095F80220FDF7A9FA5148007861
:105E800001F01BFD012801D100BFFEE70220FDF754
:105E90009EFA4C48007801F010FD00BFFEE7FDF7C8
:105EA0003EFA0A20454908801F204349088045489A
:105EB000007802F075F830E0FDF710FA03203F4952
:105EC00008800F203C4908803E48007802F068F8BE
:105ED00023E0FDF7E0F920203749088039480078B1
:105EE00002F05EF819E0FDF746F903203349088017
:105EF0000F20314908803348007802F051F800BF84
:105F0000FDF70CF905202D4908801E202A4908803C
:105F10002C48007802F044F800BF00BF80202449DC
:105F2000088018E52B48006820B12A480068401E08
:105F300028490860704701B54FF4C8710098B0FB5C
:105F4000F1F201FB120008B9012008BD642100989C
:105F5000B0FBF1F201FB120008B90020F5E7009850
:105F600010F0030F38D10120EFE70000A00000205F
:105F70000201002004010020310100203301002033
:105F80009F0000209C00002034000020120100200F
:105F900036000020380000203C0000203D0000209A
:105FA000DE0000209E0000209D000020A5020020B1
:105FB0005A000020A6000020600000205E000020A3
:105FC000EA000020EC0000200B0100208C080020DB
:105FD00024010020280000200020B6E770B5002230
:105FE000F7480078F74E3080002105E0F448405C27
:105FF000104482B2481CC1B2F34800888142F5DBEC
:1060000008464E1CF1B2EE4E345C08464E1CF1B20E
:10601000EB4E305C0502601983B29A4201D1012037
:1060200070BD0020FCE72DE9F041FE20E749087033
:1060300048708870AA20C870E34800880871E14859
:1060400000884871E24800888871E2480088C87179
:106050000025DD480088401D87B2052405E0DB48A7
:10606000005D284485B2601C84B2BC42F7DB204648
:10607000611C8CB2D5490D542A122046611C8CB289
:10608000D2490A54DD2008550020D3490880CE4863
:1060900000880830D1490880012240F22771D04899
:1060A00006F026FDCF48068802E006F02FFA00BF72
:1060B000C9480088C9490988884204DAC948008863
:1060C000801B1028F1DB8020C7490880BDE8F081E3
:1060D0002DE9F041FE20C549087048708870AA205B
:1060E000C870C34800880871C24800884871B84821
:1060F00000888871BE4800880012C8710025BC481D
:106100000088401D87B2052405E0B848005D28449A
:1061100085B2601C84B2BC42F7DB2046611C8CB2A5
:10612000B2490D542A122046611C8CB2AF490A5460
:10613000DD2008550020B0490880AD4800880830AF
:10614000AE490880012240F22771AD4806F0D0FC2C
:10615000A448068802E006F0D9F900BFA6480088E6
:10616000A6490988884204DA9E480088801B1028C6
:10617000F1DBBDE8F08170B5A2480078A14949780B
:1061800000EB012085B2A048007804281FD101202F
:1061900098490880681C96490880002001F03AFD63
:1061A0000826022408E09748025D3046711C8EB232
:1061B0008E490A54601C84B2AC42F4DBFFF788FFBE
:1061C000002001F079FD10B902208F4908708E4837
:1061D0000078042801D1002070BD4FF0FF30FBE7AC
:1061E0002DE9FE4F81460F46794800888749CDE961
:1061F000001087480378874887A10268734806F033
:10620000EBFC79793879FA78CDE900200291787839
:10621000397801EBC10C0CEB011100EB8102BB786A
:1062200083A16A48153006F0D7FCB9F1000F07D1F9
:106230008548027885A16548243006F0CDFC06E04B
:106240008148427883A16148243006F0C5FC834828
:10625000007A09287EDA814890F83930007A4200C5
:106260007FA15A48283006F0B7FC092600259DE199
:1062700006EB850084B2082D6DD2DFE805F0041B23
:106280003B5B7EA09F9E7549A01C095CDFF8CCC1DA
:10629000E01C1CF8000001EB00236046015D601C5F
:1062A0001CF8000001EB002270A148482F3006F0D6
:1062B00093FC78E1DFF8A4C1A11C1CF801C0DFF851
:1062C0009CB1E11C1BF801100CEB0123594611F89D
:1062D00004C0611C1BF801100CEB012205EBC50189
:1062E00049002F31DFF8E4C001EB0C0065A106F096
:1062F00073FC58E1DFF864C1A11C1CF801C0DFF891
:106300005CB1E11C1BF801100CEB0123594611F89C
:1063100004C0611C1BF801100CEB012205EBC50148
:1063200049002F31DFF8A4C001EB0C005BA106F09F
:1063300053FC38E1DFF824C1A11C1CF801C0DFF8D0
:106340001CB1E11C1BF801100CEB0123594611F89C
:1063500004C001E051E125E1611C1BF801100CEBC8
:10636000012205EBC50149002F31DFF860C001EBC8
:106370000C0050A106F030FC15E1DFF8E0C0A11CD4
:106380001CF801C0DFF8D4B0E11C1BF801100CEBC5
:106390000123594611F804C0611C1BF801100CEBD5
:1063A000012205EBC50149002F31DFF820C001EBC8
:1063B0000C0046A106F010FCF5E0D3E0B2E091E05D
:1063C0008C060020500000204E0000208C0700208A
:1063D0009200002094000020440000204200002091
:1063E00000380140A40000204A0000208C09002051
:1063F0005E000020600000205400002052000020B9
:1064000000440040FC370020DE0000208D0000200A
:106410008C0000208800002042472C2530356C6419
:106420002C253032642C25732C253033642C00004D
:1064300025303464253032642530326425303264AE
:106440002530326430302C003301002030253032CA
:10645000642C000031253032642C0000FC36002012
:10646000253033642C253032642C000041524861C1
:106470002C253033642C415248632C253033642C56
:1064800000000000415249612C253033642C4152F8
:1064900049632C253033642C0000000041524A61CE
:1064A0002C253033642C41524A632C253033642C24
:1064B0000000000041524B612C253033642C4152C6
:1064C0004B632C253033642C0000000041524C619A
:1064D0002C253033642C41524C632C253033642CF2
:1064E00000000000DFF828C4A11C1CF801C0DFF880
:1064F00020B4E11C1BF801100CEB0123594611F8E4
:1065000004C0611C1BF801100CEB012205EBC50156
:1065100049002F31DFF8FCC301EB0C00FEA106F0AF
:106520005BFB40E0DFF8E8C3A11C1CF801C0DFF80A
:10653000E0B3E11C1BF801100CEB0123594611F8E4
:1065400004C0611C1BF801100CEB012205EBC50116
:1065500049002F31DFF8BCC301EB0C00F4A106F0B9
:106560003BFB20E0DFF8A8C3A11C1CF801C0DFF84A
:10657000A0B3E11C1BF801100CEB0123594611F8E4
:1065800004C0611C1BF801100CEB012205EBC501D6
:1065900049002F31DFF87CC301EB0C00EAA106F0C3
:1065A0001BFB00E000BF00BF681C85B2D848007A22
:1065B000A8423FF75DAE05EBC5002F2101EB40007F
:1065C00084B2292600250BE03046711C8EB2D049DA
:1065D0000A5C2046611C8CB2CE490A54681C85B204
:1065E000CB48007AB5EB400FEEDBD5B12C2220462C
:1065F000611C8CB2C7490A5413E0C548007A0B28C5
:1066000009DAC34890F83920D5A1C248283006F0ED
:10661000E3FA362405E0D6A1BE48283006F0DCFABD
:106620002E243A26BB490819D3A105F093F8A01CE3
:1066300084B23146761CB648425C2046611C8CB25E
:10664000B4490A542C222046611C8CB2B1490A5428
:106650003146761CAE48405C302814D0AD4908194C
:10666000C6A105F077F8A01D84B2701EA8490A5C87
:106670002046611C8CB2A7490A542C222046611C7A
:106680008CB2A4490A543046711C8EB2A049085CF1
:10669000302814D09F490819BAA105F05BF8E01C16
:1066A00084B2701E9A490A5C2046611C8CB29949DA
:1066B0000A542C222046611C8CB296490A5430465A
:1066C000711C8EB29249085C302814D09149081987
:1066D000ADA105F03FF8E01C84B2701E8C490A5C45
:1066E0002046611C8CB28B490A542C222046611C26
:1066F0008CB288490A543046711C8EB28449085CB9
:10670000302814D083490819A0A105F023F8E01C13
:1067100084B2701E7E490A5C2046611C8CB27D49A1
:106720000A542C222146601C84B27A4842544FF00D
:106730000008002504E07748405D8044681C85B26D
:10674000A542F8DB4FF47A70B8FBF0F00A21B0FBF9
:10675000F1F201FB120030302146621C94B26D4A06
:1067600050546420B8FBF0F00A21B0FBF1F201FBB9
:10677000120030302146621C94B2664A50540A20FE
:10678000B8FBF0F00A21B0FBF1F201FB120030304F
:106790002146621C94B25F4A50540A20B8FBF0F1C3
:1067A00000FB118130312046621C94B2594A1154C9
:1067B0002C222046611C8CB256490A54452221469F
:1067C000601C84B25348425444222046611C8CB25F
:1067D00050490A540D222046611C8CB24D490A547E
:1067E0000A222046611C8CB24A490A54002068499A
:1067F000088068480480012240F22771664806F04C
:1068000077F96648B0F800A002E005F07FFE00BF0F
:106810005F4800885F490988884205DA5F48008838
:10682000A0EB0A000528F0DB80205D490880BDE868
:10683000FE8F2DE9F04188B007460D460FBB594841
:10684000007869792A79EB78CDE90432CDE9061030
:10685000A87869782A7802EBC20303EB021201EBF5
:106860008201514A1288514BCDE90032CDE9021024
:106870004F4803784F4850A10268264806F0ACF90B
:1068800020E04848407869792A79EB78CDE90432EC
:10689000CDE90610A87869782A7802EBC20303EBE9
:1068A000021201EB8201404A1288404BCDE90032CE
:1068B000CDE902103E4803783E484EA102681548D3
:1068C00006F08AF90026002404E01248005D064420
:1068D000601C84B22E2CF8DB4FF47A70B6FBF0F01B
:1068E0000A21B0FBF1F201FB120030302146621C9C
:1068F00094B2084A50546420B6FBF0F00A21B0FB71
:10690000F1F201FB120030302146621C94B28FE09C
:10691000FC3600208C07002041524D612C2530337D
:10692000642C41524D632C253033642C0000000050
:1069300041524E612C253033642C41524E632C253C
:106940003033642C0000000041524F612C2530335D
:10695000642C41524F632C253033642C000000001E
:106960003030302C253033642C2F2F2F2F2F2C003C
:106970002F2F2F2F2F2C00007A2C0000795F4152EF
:10698000422C000078422C0077412C0074432C00EC
:10699000440000204200002000380140A4000020F4
:1069A0004A00002033010020920000208D000020CA
:1069B0008C0000208800002042472C2530356C6474
:1069C0002C253032642C25732C253033642C253053
:1069D0003464253032642530326425303264253009
:1069E000326430302C30253032642C2F2F2F2F2F53
:1069F0002C00000042472C2530356C642C253032A9
:106A0000642C25732C253033642C253034642530D8
:106A100032642530326425303264253032643030BF
:106A20002C31253032642C2F2F2F2F2F2C000000DB
:106A3000374A50540A20B6FBF0F00A21B0FBF1F2BD
:106A400001FB120030302146621C94B2304A50548F
:106A50000A20B6FBF0F100FB116030302146621CC9
:106A600094B22B4A50542C222046611C8CB22849E7
:106A70000A5445222046611C8CB225490A544422FE
:106A80002046611C8CB222490A540D222046611C0A
:106A90008CB21F490A540A222146601C84B21C4849
:106AA000425400201B4908801B480480012240F208
:106AB00027711A4806F01CF81948B0F8008002E067
:106AC00005F024FD00BF1348008813490988884257
:106AD00005DA13480088A0EB08000528F0DB8020C9
:106AE0001049088008B0BDE8F08170B504460D4635
:106AF000E1B20A4806F05CF801E005F007FD8021EC
:106B0000064805F0CFFF0028F7D0204670BD0000F2
:106B10008C07002044000020420000200038014083
:106B2000A40000204A000020704700BFFEE700BF1D
:106B3000FEE700BFFEE700BFFEE770477047704703
:106B400010B5FFF7EFF910BD70477047704710B5EB
:106B5000012005F0AFFE38B1FE480088401CFD4919
:106B60000880012005F086FE10BD70477047704711
:106B7000704770477047704770477047704770475D
:106B8000704770477047704770477047704770474D
:106B90007047704770477047704710B5EE480088DF
:106BA000401CED490880ED480088401CEB490880F6
:106BB000EB480088401CEA490880EA480088401CED
:106BC000E849088008464088401C4880084680887C
:106BD000401C88800846C088401CC880E248008865
:106BE000401CE1490880E1480088401CDF490880DA
:106BF0004021DF4805F071FCC0F10100C4B222461B
:106C00004021DB4805F074FC0121880705F005FFF1
:106C100010BD7047704770477047704770477047A6
:106C2000704770B540F22551D24805F042FF064644
:106C300026B3D04805F0B8FFC5B240F22551CD4883
:106C400005F020FFCC480078A0BB002405E0CB492C
:106C5000601C085C0855601CC4B2632CF7DBC74895
:106C6000055590F862000D2824D1C44890F86300BF
:106C70000A281FD10120C04908701BE040F227718B
:106C8000BC4805F0FFFEBE4802880088401CBC4B93
:106C90001880BC48815CB74805F08AFFB848008876
:106CA000B9490988884205DB002240F22771B148C2
:106CB00005F01EFF70BD70B540F22551B34805F0D8
:106CC000F8FE0546002D70D0B04805F06DFFC4B247
:106CD00040F22551AD4805F0D5FEAD480188008849
:106CE000401CAB4A1080AB48445410460088FA2838
:106CF00002DB002011460880A7480088902808D1B0
:106D0000A64801880088401CA44A1080A448445426
:106D10006EE0A1480088802805D12B2C68D1812005
:106D20009D49088064E09C480088812809D1512C45
:106D300003D18220984908805AE080209649088033
:106D400056E095480088822809D1492C03D1832038
:106D5000914908804CE080208F49088048E08E48A7
:106D60000088832809D1552C03D184208A490880C2
:106D70003EE08020884908803AE0874800888428DF
:106D800009D1522C03D185208349088030E080202E
:106D9000814908802CE08048008885280AD1432C4E
:106DA00004D186207C49088022E016E180207A49BF
:106DB00008801DE078480088862809D13A2C03D144
:106DC00088207549088013E08020734908800FE00F
:106DD0007148008888280BD1202C06D190206E495C
:106DE000088000206D49088002E080206A49088000
:106DF0006C4800788038122871D2DFE800F0090F63
:106E000019232D37414B555FE9E9E9E9E9E9717B40
:106E10002B2C02D1812063490870DDE0512C03D175
:106E200082206049087002E080205E490870D3E04B
:106E3000492C03D183205B49087002E08020594926
:106E40000870C9E04F2C03D184205649087002E035
:106E5000802054490870BFE0502C03D1852051494F
:106E6000087002E080204F490870B5E0452C03D13E
:106E700086204C49087002E080204A490870ABE047
:106E80004E2C03D187204749087002E080204549F5
:106E90000870A1E03A2C03D188204249087002E032
:106EA00080204049087097E0202C03D189203D497B
:106EB000087002E080203B4908708DE03A48047079
:106EC0000078302807DB38480078332803DC90202E
:106ED0003449087002E08020324908707CE077E095
:106EE0002C2C03D191202F49087002E080202D49DD
:106EF000087071E0302C1CD12B480078302802D16A
:106F000001202A49087028480078312802D1012040
:106F10002649487024480078322802D101202349AC
:106F200088702148007833284ED101201F49C8704D
:106F30004AE01D480078302802D1FF201B49087024
:106F400019480078312802D1FF20184948701648A6
:106F500000782DE0A2000020A6000020A400002060
:106F6000B2000020AA000020A8000020B4000020E9
:106F70000010014000380140A5020020FC3E002026
:106F8000440000208C070020420000200044004004
:106F900058000020023100205A000020F600002096
:106FA000262B0020B7000020B6000020F8000020AB
:106FB000322802D1FF206A4988706A480078332855
:106FC00002D1FF206649C87080206749087003E03D
:106FD00080206549087000BF1BE040F227716348BC
:106FE00005F050FD624802880088401C604B188004
:106FF0006048815C5D4805F0DBFD5D4800885E49C6
:107000000988884205DB002240F22771574805F0C5
:107010006FFD70BD70B540F22551584805F049FD2F
:107020000546002D4ED0554805F0BEFDC4B240F2D5
:107030002551524805F026FD51480088802805D189
:10704000AA2C5BD181204E49088057E04C4800882B
:10705000812805D14B4804808220494908804DE0B1
:1070600047480088822817D1052C11DA4548008846
:1070700000EB04204349088008460088C01C4249B0
:10708000088000204149088083203D49088035E080
:1070900080203B49088031E03948008883282DD181
:1070A0003A4801880088401C384A108038484454C7
:1070B000104600883449098888421FD1872030490A
:1070C00008801BE040F227712C4805F0DBFC3148BA
:1070D00002880088401C2F4B18802F48815C27486D
:1070E00005F066FD2B4800882C490988884205DB9D
:1070F000002240F22771214805F0FAFC70BD70B5FE
