:020000040800F2
:1000000050FA002009010008490800084B080008C0
:100010004F080008530800085708000800000000B7
:100020000000000000000000000000005D08000863
:100030005B080008000000005F0800086108000875
:1000400063080008650800086708000869080008D8
:100050006B0800086D0800086F08000871080008A8
:100060007308000875080008770800081F010008D9
:100070001F0100081F0100081F0100081F010008E0
:100080001F0100081F0100081F010008890800085F
:100090008B0800088D0800088F08000891080008E8
:1000A00093080008950800089708000899080008B8
:1000B0009B0800089D0800089F080008A108000888
:1000C000A3080008A5080008A7080008A908000858
:1000D000AB080008AD080008DF080008E1080008C8
:1000E000E3080008E5080008E7080008DFF80CD07E
:1000F00000F032FF004800478302000850FA002059
:1001000080F308887047000005480047FEE7FEE7D7
:10011000FEE7FEE7FEE7FEE7FEE7FEE7FEE7FEE7B7
:10012000ED000008002108E0002201E0531C9AB213
:10013000B2F5E15FFADB4B1C99B28142F4DB704708
:100140001FB54FF4E13000900020ADF80400ADF889
:100150000600ADF80800ADF80C000C20ADF80A0060
:100160006946FE4801F024FA012240F22551FB487D
:1001700001F005FA0121F94801F0D1F91FBD08B5D8
:100180004FF48060ADF8000004208DF8030069464C
:10019000F34800F0B3FF4FF40070ADF80000032007
:1001A0008DF8020018208DF803006946EC4800F035
:1001B000A5FF08BD08B500214FF0006001F058F818
:1001C0004FF4C06001F04AF825208DF800000120AE
:1001D0008DF8010003208DF8020001208DF8030046
:1001E000684601F001F800208DF8000001208DF82C
:1001F0000100684600F0F8FF08BD10B501F064F892
:100200004FF4803001F0F2F801F038F90446012C87
:1002100028D1102000F01EFF022000F043FF002034
:1002200001F0DAF8002001F005F9A00201F0F8F879
:100230004FF4404001F026F84FF4E011200401F0A3
:1002400009F9012001F000F900BF392001F0A4F8FC
:100250000028FAD0022001F007F900BF01F0B4F83D
:100260000828FBD1012144F21D2001F021F80121D1
:100270004FF4C02001F010F80121084601F00CF8FD
:1002800010BDFFF7BAFFFFF795FFFFF778FFFFF705
:1002900057FF00F03FFB6420FFF744FFBC2000F055
:1002A0008DFEB049088008460078AB2810D0AE48D3
:1002B000007868B9AD48406800F07F40B0F1006F49
:1002C00003D1AA4800F02BFD02E0A9A001F0BCF97F
:1002D000AE49AFA001F0B8F954E200F06BFFA148BD
:1002E000008800F47F40042806DD9E480078AB2893
:1002F00002D00220B3490870B248007800287DD1AE
:10030000B1A001F0A1F9B748B74908600422084636
:100310000168B64800F075FCB4480088B3494988C4
:1003200000EB0140B2490860B0488088AF49C988F5
:1003300000EB0140AF49086008460268AC4801681C
:10034000ADA001F081F9AA48007810F0010F05D1A5
:10035000A74800684008A649086006E0A44800686D
:10036000012101EB5000A2490860A14800684FF448
:100370007041B1EB400F13D2AAA001F065F96420DF
:10038000FFF7D0FE7748008800F580707549088037
:1003900008460188BC2000F019FE744800F0BFFC3C
:1003A000A848914908600020A7490860A74908802B
:1003B0007FE0A648008868B904228B4801688B4812
:1003C00000F01FFC8948C08800F47F40B0F5006F42
:1003D00000D07AE09D480088401CC0EB00108449A2
:1003E0000968B1EBC02F27D94FF4F0427E4801686D
:1003F0007E4800F006FC7C48006800E087E000F5DD
:100400007040794908600020914908800EE07748E3
:100410008F49098830F811008B49096808448A49D6
:1004200008608B480088401C8949088088480088FB
:10043000B0F5F04FEBDB37E06D4800688349098881
:100440004FF4F04303FB110082B26748016867482C
:1004500000F0D7FB00207E49088019E063487C4902
:10046000098810F81100784909680844764908603D
:100470005E487749098830F811007349096801EB33
:1004800010207149086072480088401C704908803B
:10049000574800686D4909884FF4F04202FB11008B
:1004A0006B4909888842D9D868480088401C674948
:1004B00008804F4800684FF4F041B0FBF1F0401C59
:1004C0006249098888423FF674AF00BF5E48006801
:1004D00048490968884213D05EA001F0B5F864204D
:1004E000FFF720FE1F48008800F580701D49088036
:1004F00008460188BC2000F069FD1C4800F00FFC94
:100500005BA001F0A1F801202E49087039E12D48C7
:1005100000780128FAD15D480078401C5B490870DA
:100520005BA001F091F847482F4908600F485E49E9
:100530000860002045490880EFE044480088401CDE
:10054000C0EB00102A490968B1EBC02F04D94FF461
:10055000F04225480168A9E0BFE0000000380140F2
:10056000000801403600002038000020003000085C
:10057000696C6C6567616C206170702C63616E20C2
:100580006E6F742072756E210D0A0000000000204D
:10059000626F6F746C6F61646572207665727369E7
:1005A0006F6E3A2025730D0A626F6F746C6F616411
:1005B00065722069732072756E6E696E672E2E2EBD
:1005C0000D0A0000300000207573657220617070A4
:1005D00020636865636B20626567696E2E2E2E0D41
:1005E0000A00000000FF1F001C0000204C0000203B
:1005F000240000202800002075736572206170704F
:10060000206C656E6774683A20256C752042797499
:1006100065732C206372633A2030782558200D0AC8
:10062000000000007573657220617070206C656E4B
:10063000677468206F766572206C696D6974210D2E
:100640000A00000000101F002C00002034000020D1
:1006500032000020757365722061707020637263D0
:1006600020636865636B206661696C210D0A000078
:1006700075736572206170702063726320636865B2
:10068000636B206F6B210D0A000000003100002019
:100690007573657220617070207570646174652E69
:1006A0002E2E0D0A0000000020000020474800F018
:1006B000A8FA4748006800F57040454908604FF4C3
:1006C000F04242494348006800F07FFB414800681F
:1006D00000F570403F4908601AE03F4800683F4914
:1006E00009884FF4F04303FB110082B238480168D7
:1006F000364800F086FA38480068384909884FF4CF
:10070000F04303FB110082B23049354800F05DFB35
:1007100032480088401C314908802F4800684FF457
:10072000F041B0FBF1F0401C2C49098888423FF6AB
:1007300004AF2CA000F088FF31A000F085FF6420FA
:10074000FFF7F0FC2648406800F07F40B0F1006FF2
:100750000ED13048008800F580702E490880084688
:100760000188BC2000F032FC1D4800F0D8FA08E0F7
:1007700006E029A000F068FF41F28830FFF7D2FCC4
:10078000F7E700BFA9E510B545F2555000F026FD8A
:10079000052000F017FD40F6354000F019FD00F08F
:1007A00009FD00F0FFFC10BD70B504460D46E1B236
:1007B000244800F045FF01E000F0FCFC80212148C6
:1007C00000F0B7FE0028F7D0204670BD4C00002096
:1007D0001C00002020000020240000203400002005
:1007E0000030000875736572206170702075706448
:1007F0006174652066696E697368210D0A000000E6
:1008000073746172742075736572206170702E2E1E
:100810002E0D0A0036000020626F6F742065727220
:100820006F722120726574727920627920616E6F17
:100830007468657220706F7765726F6E2E2E2E0D44
:100840000A00000000380140704700BFFEE700BF0B
:10085000FEE700BFFEE700BFFEE770477047704746
:1008600070477047704770477047704770477047D0
:1008700070477047704770477047704770477047C0
:1008800070477047704770477047704770477047B0
:1008900070477047704770477047704770477047A0
:1008A00070477047704770477047704710B540F207
:1008B0002551164800F044FE044654B140F225513B
:1008C000124800F026FE114800F0B6FE10490870EC
:1008D00004E040F227710D4800F01BFE10BD704788
:1008E0007047704770477047704770477047704750
:1008F0007047704770477047704770477047704740
:1009000070477047704770477047000000380140DB
:100910003800002000B587B0012141F2040000F04A
:10092000C7FCE020ADF8040003208DF80600182075
:100930008DF8070001A9F74800F0E0FB1020ADF8A2
:10094000040003208DF8060010208DF8070001A98F
:10095000F04800F0D3FB1021EE4800F021FC00200D
:10096000ADF808004FF48270ADF80A000020ADF831
:100970000C000220ADF80E000120ADF8100040027E
:10098000ADF812000820ADF814000020ADF81600F4
:100990000720ADF8180002A9DF4800F09EFD0121F4
:1009A000DD4800F085FD07B000BD10B5044600BF6E
:1009B0000221D94800F086FD0028F9D02146D6480A
:1009C00000F089FD00BF0121D34800F07BFD002825
:1009D000F9D0D14800F07DFDC0B210BD10B50024A3
:1009E0001021CC4800F0DAFB0520FFF7DEFF00BF46
:1009F000A520FFF7DAFF044600F0DCFB14F0010F3E
:100A0000F6D11021C34800F0CBFB10BD10B510216A
:100A1000C04800F0C3FB0620FFF7C7FF1021BD4808
:100A200000F0BEFB10BD10B50446FFF7EFFF10212C
:100A3000B84800F0B3FBD820FFF7B7FFC4F3074076
:100A4000FFF7B3FFC4F30720FFF7AFFFE0B2FFF7F4
:100A5000ACFF1021AF4800F0A3FBFFF7BFFF10BDB4
:100A600010B5FFF7D3FF1021AA4800F097FBC7206D
:100A7000FFF79BFF1021A74800F092FBFFF7AEFFA6
:100A800010BD70B505460C461646FFF7BFFF102196
:100A9000A04800F083FB0220FFF787FFC4F3074064
:100AA000FFF783FFC4F30720FFF77FFFE0B2FFF7F4
:100AB0007CFF05E02878FFF778FF6D1C00F07AFBDB
:100AC0003000A6F101018EB2F4D11021914800F05E
:100AD00067FBFFF783FF70BD2DE9F05F07460E4609
:100AE00014464FF00008C146C2460025AB4606F04A
:100AF000FF0ACAF10000C5B22046E11704EB1161FC
:100B0000C1F30728E11704EB11610912A4EB0121DD
:100B100001F0FF09BAF1000F22D1B8F1000F05D1A1
:100B2000224631463846FFF7ACFF68E00BE04FF451
:100B3000807231463846FFF7A4FF06F5807607F548
:100B4000807700F037FB5FEA0800A8F1010101F0AF
:100B5000FF08ECD14A4631463846FFF792FF4EE097
:100B6000B8F1000F18D1A94510DDA9EB050000F080
:100B7000FF0B2A4631463846FFF783FF2E442F44A9
:100B80005A4631463846FFF77CFF38E02246314668
:100B90003846FFF776FF32E0601B84B22046E1174B
:100BA00004EB1161C1F30728E11704EB116109128D
:100BB000A4EB012101F0FF092A4631463846FFF730
:100BC00060FF2E442F440BE04FF4807231463846CC
:100BD000FFF757FF06F5807607F5807700F0EAFA11
:100BE0005FEA0800A8F1010101F0FF08ECD1B9F1BA
:100BF000000F04D04A4631463846FFF742FFBDE8B1
:100C0000F09F70B504460D4616461021414800F08D
:100C1000C5FA0320FFF7C9FEC5F30740FFF7C5FE7D
:100C2000C5F30720FFF7C1FEE8B2FFF7BEFE10E0F4
:100C3000A520FFF7BAFE2080A520FFF7B6FE218889
:100C400001EB00202080A41C00F0B4FA032E00D198
:100C500000BF3000A6F101018EB2E9D110212D486C
:100C600000F09EFA70BD2DE9F04100240025002619
:100C700000271021274800F091FA9F20FFF795FEEA
:100C8000A520FFF792FE0546A520FFF78EFE06463B
:100C9000A520FFF78AFE074610211E4800F080FAC3
:100CA000280440EA062040EA07042046BDE8F08117
:100CB00010B504461021174800F070FA0320FFF722
:100CC00074FEC4F30740FFF770FEC4F30720FFF77C
:100CD0006CFEE0B2FFF769FE10BD10B5A520FFF76E
:100CE00064FE10BD10B5044600BF02210A4800F0A2
:100CF000E9FB0028F9D02146074800F0ECFB00BFD3
:100D00000121054800F0DEFB0028F9D0024800F080
:100D1000E0FB10BD0008014000300140704710B5F5
:100D20000446206807490840B0F1005F08D16068B8
:100D3000054908602068FFF7E3F903480068804729
:100D400010BD00000000FE2F3C0000200146088876
:100D500070472DE9F04106460D46174600241FE076
:100D600035F81410304600F081F9308835F8141049
:100D7000884212D035F81410304600F077F93088E8
:100D800035F81410884208D006E04CA000F05CFC56
:100D900041F28830FFF7C6F9F7E7B61C601C84B251
:100DA000BC42DDDBBDE8F08130B503460C4615469C
:100DB000002207E01846FFF7C9FF24F812009B1C29
:100DC000501C82B2AA42F5DB30BD2DE9F05F8046AF
:100DD0008A461746B8F1006F02D34448804501D3D4
:100DE000BDE8F09F00F06AF9A8F1006B4FEADB253F
:100DF000CBF34909C9F58064A74200DC3C464EE0CC
:100E00004FF0006101EBC5204A143949FFF7CCFFD0
:100E100000260BE009EB0600354931F81000A0F57B
:100E20007F41FF3900D003E0701C86B2A642F1DB9F
:100E300000BFA6421BDA4FF0006101EBC52000F0B5
:100E4000CDF8002608E03AF8160006EB0901284A1A
:100E500022F81100701C86B2A642F4DB4FF000614C
:100E600001EBC5204A142249FFF773FF04E0224634
:100E700051464046FFF76DFFA74200D110E06D1CC0
:100E80004FF000090AEB440A08EB4408381B87B20C
:100E9000B7F5806F02DD4FF4806400E03C46AFE7B9
:100EA00000BF00F0CFF800BF9AE713B50446012257
:100EB00001A92046FFF789FF1CBD00007570646121
:100EC0007465206661696C6564212072657472794D
:100ED00020627920616E6F7468657220706F77652B
:100EE000726F6E2E2E2E0D0A000000000000080802
:100EF0004CF000202DE9F05F0546002092469B460D
:100F000088460646814640241BE02846414647461F
:100F1000224600F042F853465A46C01A914110D377
:100F200011461846224600F029F82D1A67EB0108F1
:100F30004F4622460120002100F020F817EB00095F
:100F40004E41201EA4F10104DFDC484631462A460A
:100F50004346BDE8F09F0000064C074D06E0E06800
:100F600040F0010394E8070098471034AC42F6D3F0
:100F7000FFF7C0F85C1900087C190008202A04DB80
:100F8000203A00FA02F1002070479140C2F120039C
:100F900020FA03F3194390407047202A04DB203ADB
:100FA00021FA02F00021704721FA02F3D040C2F189
:100FB0002002914008431946704700000249084446
:100FC000B0F8000C7047000000600040024A104476
:100FD000A0F8001C704700000060004070B5054696
:100FE00040F6FF76304600F075F8042813D10A4C1D
:100FF000206940F0020020616561206940F04000F6
:101000002061304600F066F8012804D0216941F6DD
:10101000FD721140216170BD00200240084904208A
:10102000CA68D20701D001207047CA68520701D5AB
:1010300002207047C968C906FBD50320704700002D
:10104000002002400248016941F0800101617047BF
:101050000020024004490A6822F010020A600A686F
:1010600002430A60704700000020024070B5064647
:101070000D460F2000F02EF804280FD1084C2069EF
:1010800040F00100206135800F2000F023F8012896
:1010900004D0216941F6FE721140216170BD00004B
:1010A0000020024004490A6802F038020A600A6817
:1010B00002430A60704700000020024003480249D2
:1010C00041600349416070472301674500200240A9
:1010D000AB89EFCD00B50346FFF7A0FF05E0FF2089
:1010E000401EFDD1FFF79AFF5B1E012802D1002BA5
:1010F000F5D101E0002B00D1052000BDF0B5CB7883
:101100000022DC0603F00F0301D58C7823430C8802
:101110000F2714F0FF0F4FF0010C1CD0D0F8005037
:101120000E880CFA02F42640A64210D1960007FA67
:1011300006FE25EA0E0E03FA06F5CE7845EA0E0500
:10114000282E00D14461CE78482E00D10461521C73
:10115000082AE5D305600A88FF2A1ED945680022BF
:1011600002F108060CFA06F40E882640A64210D1B9
:10117000960007FA06FE25EA0E0E03FA06F5CE786B
:1011800045EA0E05282E00D14461CE78482E00D1C4
:101190000461521C082AE3D34560F0BD41617047E9
:1011A0000161704702494CF6CC400860704700006E
:1011B0000030004002494AF6AA200860704700004B
:1011C0000030004001494860704700000030004096
:1011D0000149886070470000003000400149086004
:1011E0007047000000300040F0B50F23C27801784E
:1011F0004FF0E024012742B3D4F80C2D467802F4D6
:10120000E062C2F5E062120AC2F10405D3408278BE
:10121000AE401A40324315018A07D20E954021F0A4
:1012200003010B19D3F80064FF2191408E430D4058
:101230002E43C3F800640078410900F01F0004EB5E
:1012400081018740C1F80071F0BD01F01F008740A7
:10125000480904EB8000C0F88071F0BD02490843E2
:1012600002490860704700000000FA050CED00E03C
:10127000024A1140014302480160704780FFFF1F8E
:1012800008ED00E0034A516821F4404101435160F8
:101290007047000000100240044A0029D16901D0C3
:1012A000014300E08143D16170470000001002401B
:1012B000044A0029916901D0014300E08143916112
:1012C00070470000001002400B48016841F0010126
:1012D00001604168094A114041600168084A1140B3
:1012E0000160016821F4802101604268002122F43C
:1012F000FE02426081607047001002400000FFF86B
:10130000FFFFF6FE30B5204A5168204B11F00C016A
:1013100003D0042901D0082901D0036011E05168ED
:10132000022401F4701104EB91415468184D14F437
:10133000803F02D05468A40301D5694300E05943BB
:1013400001605168134B01F0F00109095C5C016810
:10135000E1404160546804F4E064240A1C5D21FA11
:1013600004F48460546804F46054E40A1B5DD940BA
:10137000C1605268074B02F44042920B1B1F9A5CFB
:10138000B1FBF2F1016130BD0010024000127A00A1
:1013900000093D004C190008034600205909094A7C
:1013A000012901D1116804E0022901D1116A00E08C
:1013B000516A03F01F02012393400B4200D0012029
:1013C00070470000001002400248406800F00C0026
:1013D0007047000000100240034A516821F0F001FC
:1013E0000143516070470000001002400B490A6839
:1013F00022F480320A600A68B0F5803F22F480222D
:101400000A6007D0B0F5802F03D1086840F4A0200F
:1014100008607047086840F48030F9E70010024027
:10142000034A516821F4E0610143516070470000B4
:1014300000100240034A516821F4605141EAC000A3
:101440005060704700100240014908667047000074
:1014500000004242034B5A68084322F47C121043B6
:101460005860704700100240034A516821F00301A0
:1014700001435160704700000010024030B50B4C32
:1014800040F2FF153120FFF787FF20706068401C95
:101490006060207810B96068A842F3D13120FFF76E
:1014A0007BFF002800D0012030BD0000400000205C
:1014B0000029018802D041F0400101E021F0400103
:1014C000018070470246128900200A4200D00120A4
:1014D0007047808970478181704770B502880B889A
:1014E0004E888C88CD8833432C430E8923434C8906
:1014F00033438D892343CC892B4302F44152234348
:1015000013430380828B22F400628283098A018262
:1015100070BD0A0A01219140C9430180704700292A
:10152000818902D041F4005101E021F40051818110
:1015300070470246128800200A4200D001207047FE
:1015400070B501F01F0501260024C1F3421306FA0D
:1015500005F2012B01D1838904E0022B01D1038A1A
:1015600000E0838A4FEA11210088134206FA01F64F
:1015700000EA060001D000B10124204670BD10B57C
:10158000C1F3421301F01F040121A140012B01D13D
:101590000C3004E0022B01D1103000E01430002A9E
:1015A000026801D00A4300E08A43026010BD0000D7
:1015B00030B50446008A85B00D464CF6FF710840F0
:1015C000E98801432182A0894EF6F3110840A988D9
:1015D0002A8911436A8902431143A181A08A4FF6E7
:1015E000FF410840A9890143A1826846FFF78AFEAE
:1015F0001048844201D1039800E002981921484321
:10160000296864228900B0FBF1F0B0FBF2F1090116
:101610000B096FF018056B43322500EB830005EBD7
:101620000010B0FBF2F000F00F000843208105B07D
:1016300030BD0000003801408088C0F308007047CA
:10164000C1F30801818070470FB4054B10B503A9A1
:10165000044A029800F018F810BC5DF814FB000072
:10166000A90700084800002002E008C8121F08C1AE
:10167000002AFAD170477047002001E001C1121F13
:10168000002AFBD1704700002DE9FF4F8DB09B462B
:101690000F460446002638E1252801D00F9959E06D
:1016A0000025641C9D49A84601222378203B02FAAC
:1016B00003F0084202D00543641CF6E720782E2888
:1016C00017D114F8010F45F004052A280ED06FF049
:1016D0002F022078A0F1300109290AD808EB8801EF
:1016E00002EB410100EB0108641CF2E757F8048BA0
:1016F000641C20786C280DD004DC4C2812D06A2899
:1017000011D104E074280DD07A280CD10AE045F4F8
:10171000001507E0617845F48015814202D1641C10
:1017200005F58015641C2278692A46D008DC002A59
:1017300070D0582A69D0632A11D0642A08D13CE0BD
:10174000702A69D0732A14D0752A5CD0782A5CD0AC
:101750000F9910465A46904706F10106D4E017F853
:10176000040B8DF8000000208DF80100E9460120EF
:1017700003E057F8049B4FF0FF3069074FF0000576
:1017800001D40AE06D1C45450DDA8542FADB19F8F3
:1017900005100029F6D106E06D1C8542FCDB19F826
:1017A00005100029F8D12E4404E019F8010B5A461F
:1017B0000F9990476D1EF8D2A6E00A200021CDE9CE
:1017C0000801C5F3025002280BD001CFC117002930
:1017D0000EDA4FF0000CD0EB0C006CEB01012D2366
:1017E00009E007F1070727F00707F7E80201EEE72E
:1017F0002B0504D52B238DF82830012330E0EB078F
:101800002ED02023F7E70A2000E010200021CDE9A8
:10181000080109E07DE0FFE71020002145F0040504
:10182000CDE908014FF00808C5F3025002281BD08B
:1018300001CF00214FF0000A2B0712D5702A19D0D2
:10184000DDE908C38CF0100C5CEA030C09D150EA06
:10185000010306D030238DF828308DF8292002238B
:101860009A46582A10D00AE0FF1D27F00707F7E82C
:101870000201DFE740228DF828204FF0010A28A25C
:101880000DF120090B9209E02AA2F9E7DDE908230E
:10189000FFF730FB0B9B9B5C09F8013D50EA01020E
:1018A000F4D1ADEB090000F120000890680701D4E5
:1018B0004FF001080899884502DDA8EB010000E01F
:1018C00000208046002506E00AA85A46405D0F9990
:1018D0009047761C6D1C5545F6DB04E030205A46D7
:1018E0000F999047761CB8F10001A8F10108F5DCCA
:1018F00005E019F8010B5A460F999047761C089994
:10190000481E08900029F4DC641C207800287FF42D
:10191000C3AE11B03046BDE8F08F000009280100C9
:101920003031323334353637383961626364656655
:101930000000000030313233343536373839414217
:101940004344454600000000020406080000000071
:101950000102030401020304060708097C190008B8
:10196000000000204C00000068160008C81900089C
:101970004C00002004FA000078160008323031379D
:101980002D30372D32382053512B594C5F3447209E
:1019900056312E3100000000000000000000000061
:1019A0000000000000000000000000000000000037
:1019B0000000000000000000000000000000000027
:0819C00000000000000000001F
:04000005080000ED02
:020000040800F2
:10300000904F002001310008DD6B0008DF6B0008E5
:10301000E36B0008E76B0008EB6B000800000000A2
:10302000000000000000000000000000F16B00083C
:10303000EF6B000800000000F36B0008F56B000860
:10304000FD6B0008FF6B0008016C0008036C0008B2
:103050001F6C0008216C0008236C0008256C000818
:10306000276C0008296C00082B6C00081731000839
:103070001731000817310008173100081731000810
:103080001731000817310008173100083D6C00089F
:103090003F6C0008416C0008436C0008456C000858
:1030A000476C0008496C00084B6C00084D6C000828
:1030B0004F6C0008C76C0008C96C0008CB6C000896
:1030C000CD6C0008CF6C0008D16C0008D36C0008F0
:1030D000D56C0008D76C00086B6D0008DB70000829
:1030E000C57100080172000803720008DFF80CD0F7
:1030F00008F0E6FF00480047C1590008904F002043
:1031000005480047FEE7FEE7FEE7FEE7FEE7FEE7CD
:10311000FEE7FEE7FEE7FEE7ED30000810B506F03B
:1031200081F8FE48C078FE490872FE48C078012840
:1031300006D002280AD003280ED0042818D111E0A6
:10314000F94890F80001F649487212E0F64890F804
:103150000101F34948720CE0F34890F80201F0498C
:10316000487206E0F04890F80301ED49487200E02B
:1031700000BF00BF10BD10B506F054F8EB48006862
:1031800005F079FCE548C078012806D0022834D043
:1031900003284AD0042879D15FE0E0480079E24969
:1031A00081F80001DD480079E1490870DE4890F8B7
:1031B0000001D8B9002004F0E8FB10B9002004F0A9
:1031C000E4FBDC484078042802D1012004F0DDFB58
:1031D000D8488078042802D1022004F0D6FBD548D4
:1031E000C078042802D1032004F0CFFB0020D1498D
:1031F000087048708870C87049E0C8480179CA48AA
:1032000080F80111C5480079C94948700220C949B0
:103210004870C54890F8010130B9012004F0B5FBB1
:1032200010B9012004F0B1FB31E0BC480179BE487F
:1032300080F80211B9480079BD4988700220BD4963
:103240008870B94890F8020130B9022004F09DFB63
:1032500010B9022004F099FB19E0B0480179B24896
:1032600080F80311AD480079B149C8700220B14916
:10327000C870AD4890F8030130B9032004F085FB15
:1032800010B9032004F081FB01E0FFE700BF00BF9D
:1032900005F0E3FF10BD70B505F0C4FF082600245B
:1032A00006E0A548211D405C00B903E0601CC4B2E3
:1032B000282CF6DB00BF2546002409E09E48211D8E
:1032C000425C3046711CCEB295490A54601CC4B2AF
:1032D000AC42F3DBE81C9949088070BD70B505F07D
:1032E000A1FF9248006805F0C6FB94480088C01E04
:1032F000C5B2272D00DD2725002407E08749201DC2
:103300000A5C8D48211D4254601CC4B2AC42F5DBFE
:1033100000228948211D425405F09FFF70BD70B501
:1033200005F080FF08257D48C27829466D1C7C4841
:1033300042547C48C078012806D0022814D00328C3
:1033400022D0042840D12FE000240AE07A4804F17A
:103350007C01425C2846691CCDB271490A54601C4C
:10336000C4B2062CF2DB30E000240AE0724904F11A
:1033700082000A5C2846691CCDB269490A54601C67
:10338000C4B2062CF2DB20E000240AE06A4904F112
:1033900088000A5C2846691CCDB261490A54601C49
:1033A000C4B2062CF2DB10E000240AE0624904F10A
:1033B0008E000A5C2846691CCDB259490A54601C2B
:1033C000C4B2062CF2DB00E000BF00BF70BD10B538
:1033D000044600205A49088001E009F05FF9584886
:1033E0000088A042F9DB10BD10B505F01BFF4F4867
:1033F000006805F040FB4948C078012806D0022843
:1034000012D003281DD0042835D127E0002408E07D
:103410004249201D0A5C484804F17C014254601C6A
:10342000C4B2062CF4DB27E0002407E03B49201D52
:103430000A5C41497E300A54601CC4B2062CF5DB9C
:103440001AE0002407E03549201D0A5C3A4984301F
:103450000A54601CC4B2062CF5DB0DE0002407E022
:103460002E49201D0A5C34498A300A54601CC4B2BB
:10347000062CF5DB00E000BF00BF05F0EEFE10BD3E
:1034800000B58BB0684605F03FFA2C2269462D48FE
:1034900008F0BCF92B48808A2B4908802948008A0B
:1034A000401C2A49088027488089294908802548E6
:1034B000007A284908702348007927490870214874
:1034C0000078264908700BB000BD70B5FFF7D8FF33
:1034D0001F20164908600846008800040860084656
:1034E000006805F0C8FA05F09DFE01201C4908801F
:1034F00032201C49088001201B4908801B49088094
:103500001B49086000201B490870487088701A49E0
:103510000870487088705920184931E08C080020E4
:10352000FC3100208C060020FC3B002038010020EC
:10353000DA000020DE000020FC3C00205E000020BD
:10354000B200002060060020340000203600002079
:10355000380000203C0000203D0000203E000020FC
:1035600082000020840000209400002092000020AF
:103570008800002096000020990000208D00002087
:10358000087053204870462088705320C87000206F
:103590000871FE4908704FF4E170FD490880002071
:1035A0004880052088800A20C8804FF6FF70088177
:1035B0000020F8490870F84908700120F7490870A0
:1035C000F74908703C2048700320F6490870012034
:1035D0004870022088700020C8700024F2480278E9
:1035E0002146641CF1484254EF48008802122146EB
:1035F000641CEE484254EE4802782146641CEB48B5
:103600004254EB48008802122146641CE7484254A9
:10361000E8480088C2B22146641CE4484254E548A8
:10362000008802122146641CE04842546424DD48AC
:1036300002782146641CDD484254DA48427820462C
:10364000611CCCB2D9490A54D64882782046611C04
:10365000CCB2D6490A54D348C2782046611CCCB2B9
:10366000D2490A54D4480088C2B22046611CCCB268
:10367000CE490A54D048008802122046611CCCB2C0
:10368000CA490A54CD4802782046611CCCB2C749C9
:103690000A54CA480088C0F307222046611CCCB2F5
:1036A000C2490A54C5480068C0F307422046611C5D
:1036B000CCB2BE490A54C1480068020E2046611CC3
:1036C000CCB2BA490A546E24BD4802782146641C23
:1036D000B6484254BA4842782046611CCCB2B3493D
:1036E0000A54B74882782046611CCCB2AF490A54CC
:1036F000B44802782046611CCCB2AC490A54B148A7
:1037000042782046611CCCB2A8490A54AD48827860
:103710002046611CCCB2A5490A54AB480278204629
:10372000611CCCB2A1490A54A74842782046611CCA
:10373000CCB29E490A54A44882782046611CCCB27F
:103740009A490A54A048C2782046611CCCB29749D5
:103750000A548E4802782046611CCCB293490A5420
:1037600079248B480088C2B22146641C8F48425499
:103770008748008802122046611CCCB28B490A544B
:1037800083484088C2B22046611CCCB287490A54A3
:103790007F48408802122046611CCCB283490A54FB
:1037A0007B488088C2B22046611CCCB27F490A5453
:1037B0007748808802122046611CCCB27B490A54AB
:1037C0007348C088C2B22046611CCCB277490A5403
:1037D0006F48C08802122046611CCCB273490A545B
:1037E0006B480089C2B22046611CCCB26F490A54B2
:1037F0006748008902122046611CCCB26B490A540A
:10380000644802782046611CCCB268490A54624878
:1038100002782046611CCCB264490A545F480278A1
:103820002046611CCCB261490A545D4802782046AA
:10383000611CCCB25D490A54594842782046611C4B
:10384000CCB25A490A5401206049087000204870DF
:103850008870C8705E4908705E4908705E490870DB
:1038600075205E4908709E204870D8208870FA2024
:10387000C870D920087111204871752088719E2167
:103880005648C171D8210172FA21417279218172A1
:103890006921C1727520514908739E214F484173B7
:1038A000D8218173FA21C173E42101740721417485
:1038B00075204A4988749E214848C174D8210175F1
:1038C000FA214175E42181750721C17500243F4823
:1038D00002782146641C424842543C4842782146C2
:1038E000641C3F484254394882782146641C3C4855
:1038F00042543648C2782146641C3948425400BFBD
:10390000334802782146641C354842542C243148FF
:1039100002782146641C3248425454242E480278CE
:103920002146641C2E4842547C242C4802782146AF
:10393000641C2B484254294842782046611CCCB272
:1039400027490A54254882782046611CCCB2244974
:103950000A542248C2782046611CCCB220490A543D
:103960001E4802792046611CCCB21D490A541B48EE
:1039700042792046611CCCB219490A541748827911
:103980002046611CCCB216490A542BE08C00002062
:1039900002280020310100203001002032010020E7
:1039A000330100209C02002082000020FC3B00200C
:1039B0008400002094000020920000208800002055
:1039C00096000020990000208D000020DA000020E1
:1039D000E62900200E2A0020362A0020CE290020C9
:1039E000FC3C0020F948C2792046611CCCB2F84961
:1039F0000A54F648027A2046611CCCB2F4490A54B3
:103A0000F248427A2146601CC4B2F1484254EF4861
:103A1000827A2046611CCCB2ED490A54EB48C27A46
:103A20002046611CCCB2EA490A54E848027B214690
:103A3000601CC4B2E6484254E448427B2046611C04
:103A4000CCB2E3490A54E148827B2046611CCCB2E7
:103A5000DF490A54DD48C27B2046611CCCB2DC49F8
:103A60000A54DA48027C2046611CCCB2D8490A5478
:103A7000D648427C2046611CCCB2D5490A54D34872
:103A8000827C2146601CC4B2D1484254CF48C27CDB
:103A90002046611CCCB2CE490A54CC48027D204657
:103AA000611CCCB2CA490A54C848427D2046611CF8
:103AB000CCB2C7490A54C548827D2046611CCCB2AD
:103AC000C3490A54C148C27D2046611CCCB2C049DA
:103AD0000A54002404E0FF21BE480155601CC4B212
:103AE000FF2CF8DBFF21BC4880F8FF12BB480088A0
:103AF000642190FBF1F0BA490870B848008864214D
:103B000090FBF1F201FB1200B5494870B5480088FE
:103B10008870B5480088C870B44800780871B44807
:103B200000784871B34800788871084605F014F9A8
:103B3000B149086008460068B0490988B0FBF1F255
:103B400001FB1200AC490968081AAB490860084635
:103B5000008881B2282008F00BFCA7480068010CFF
:103B6000402008F005FC05F078FB00209C49887196
:103B7000084605F0F1F805462946002005F03BF916
:103B80009F4908600846006804F075FF944805F0F6
:103B9000E3F805462946012005F02DF9984908600B
:103BA0000846006804F067FFAA2070BD10B5FFF753
:103BB00067FC8A480088642190FBF1F201FB120047
:103BC0009049087287480088487287480088887240
:103BD00086480078C872864800780873854800785F
:103BE000487310BD00B587B0874800798649C97809
:103BF00001EBC10202EB011100EB81008349486136
:103C000081484079401E08617F488079C8607E48BD
:103C1000C07988607C48007A48607B48407A0860B8
:103C2000084600887A4908801C2278491031684685
:103C300007F0ECFD75480FC804F081FE4AF2A5516B
:103C4000042008F095FB07B000BD10B500226E48B7
:103C50000078704C2080002105E06B48405C1044E7
:103C600082B2481C81B26C4800888142F5DB08466C
:103C70004C1CA1B2644C235C08464C1CA1B2624CA3
:103C8000205C03EB002083B29A4201D1002010BDDA
:103C90004FF0FF30FBE72DE9FC416048006807F07A
:103CA000FFFF04460D465E48006807F0F9FF064630
:103CB00032460B465B48CDE9004501785AA009F031
:103CC00043F83020614908705648007828B9302000
:103CD0005F4908705F49087013E052480078012876
:103CE00006D132205A49087030205A49087008E03D
:103CF0004C480078022804D13220554908705549B3
:103D000008704648006807F0CBFF04464FF0333296
:103D1000514B07F0EDFF03D233205049087010E0FB
:103D20003E48006807F0BCFF044600224C4B07F0F9
:103D3000CBFF03D234204949087002E030204749C4
:103D4000087048493648006808F00CF803D2332060
:103D5000454908700CE045493148006807F0F8FF14
:103D600003D234204049087002E030203E490870F8
:103D7000BDE8FC812DE9F04FADF6180D03468C46E9
:103D80000020CDF814084FF47A740025002700268F
:103D90003748B0F80290B0F804A0C08804903448C6
:103DA000008903904FF000080020029001900090DD
:103DB000002107E00020DFF8B8B001F1110E2BF868
:103DC0001E00491C9942F5DB002159E0CE29002054
:103DD000FC3C0020FC3D0020FC3B00203400002087
:103DE0000401002036000020380000203C000020A4
:103DF0003D0000203E0000202C0100203601002064
:103E000038010020FC3100208C08002060060020D2
:103E1000A2000020600000205E000020740000204E
:103E200078000020A0000020636F6C6C6563742034
:103E300025642C2074656D7020252E31662C20762B
:103E40006F6C7420252E31660D0A00007C00002066
:103E50007D0000208000002033332B407E000020B6
:103E6000000027400000A0427F000020000020C288
:103E7000B802002000200DF1140B4BF82100491C62
:103E80009942F7DB00217FE03CF8110050283DDD2E
:103E900001200DF1140B4BF82100022911DA002248
:103EA0000BE03CF81200282801DD012000E0002092
:103EB0000DF1140B4BF82200521CC81C8242F0DB9F
:103EC00024E0D81E884210DA8A1E0BE03CF812006B
:103ED000282801DD012000E000200DF1140B4BF833
:103EE0002200521C9A42F1DB10E08A1E0BE03CF8E3
:103EF0001200282801DD012000E000200DF1140B44
:103F00004BF82200521CC81C8242F0DB042906DC5C
:103F10000120DFF870B601F1110E2BF81E003CF8FD
:103F20001100282819DD042917DD01F10C00029089
:103F3000581F884202DC1530019002E001F11600A2
:103F40000190029A05E00120DFF838B62BF8120044
:103F5000521C01988242F6DD15E03CF81100282839
:103F600011DD04290FDC1120029001F116000190EF
:103F7000029A05E00120DFF80CB62BF81200521C63
:103F800001988242F6DD491C9942FFF67DAF01217E
:103F900013E0481E0DF1140B5BF8200001280BD133
:103FA000481C5BF82000012806D105A850F8210024
:103FB00010B901204BF82100491C581E8842E8DC4A
:103FC000002104E005A850F821008044491C9942D2
:103FD000F8DBB8F1060F44DB591E3BE0022924DD73
:103FE0009DB905A850F8210001280ED1481E0DF1F9
:103FF000140B5BF82000012807D1881E5BF8200015
:10400000012802D1481C85B223E075B1B4F57A7F4E
:104010000BD1481E0DF1140B5BF8200028B905A840
:1040200050F8210008B9481C84B24EB9B4F57A7F23
:1040300006D005A850F82100012801D1481C86B2FD
:1040400036B12FB905A850F8210008B9481C87B22D
:1040500000BF491E0029C1DA1DB1B4F57A7F00D135
:104060000024B8F1000F02DDB8F1060F03DBB8F150
:10407000060F3CDBDDBB002126E0B4F57A7F06D1DC
:1040800005A850F82100012801D18CB21BE045B9E8
:10409000B4F57A7F05D005A850F8210008B98DB293
:1040A00011E03DB137B905A850F82100012801D130
:1040B0008FB208E037B12EB905A850F8210008B931
:1040C0008EB203E000BF491C9942D6DB00BF0FB19E
:1040D00006B91E46B4F57A7F00D100243EB12846C9
:1040E000A34635463C4686B21FFA8BF700BF35B172
:1040F0000120CDF8140816B10220CDF81408B4F54B
:104100007A7F00D10024DFF87CB4DDF81408ABF826
:104110000000584644808580C780068109F105006B
:10412000844202DC601D814501DD012000900AF11E
:104130000500854202DC681D824501DD01200090FA
:104140000498401D874204DC07F1050B049858458C
:1041500001DD012000900398401D864204DC06F139
:10416000050B0398584501DD0120009000980128B7
:104170000BD1112105E00120DFF808B42BF8110064
:10418000491C03F111008842F5DCFE480DF6180DBC
:10419000BDE8F08F70B5FC490988FC4A128851438C
:1041A000491E88B2FA49FFF7E5FD0646002406E0FD
:1041B00036F81400F74921F81400601CC4B2112C21
:1041C000F6DBF1480088F14909884843103085B290
:1041D000002407E006EB440090F82200EE49085561
:1041E000601CC4B2AC42F5DBEA480088EB490978B0
:1041F00088420CDD002408E0E649601C31F810001C
:10420000E74921F81400601CC4B2102CF4DB002430
:104210001EE13020E34901F81400012101EB4401C3
:10422000E04A5054DB480088A0427DDD012101EBCB
:104230004401D84A32F811104FEA4402D84B33F8FF
:104240001220881A01D4014600E041428DB2D648BE
:104250008088A8420EDAD4488088A0F57F41FF39D3
:1042600008D0D04810F81400312803DA3120CD49A5
:1042700001F81400CC48C088A8420EDACA48C088A9
:10428000A0F57F41FF3908D0C64810F81400322845
:1042900003DA3220C34901F81400C3480089A84258
:1042A0000EDDC1480089A0F57F41FF3908D0BD4827
:1042B00010F81400322803DA3220BA4901F8140049
:1042C000012000EB4400B34931F81000B6490988D9
:1042D00088420EDDB4480088A0F57F41FF3908D040
:1042E000B04810F81400322803DA3220AD4901F842
:1042F0001400012000EB4400A64931F81000AA493F
:10430000498888420EDAA8484088A0F57F41FF39E5
:1043100008D0A44810F81400322803DA3220A1494A
:1043200001F81400022100E090E001EB4401994AF9
:1043300032F811104FF0010202EB4402984B33F8AF
:104340001220881A01D4014600E041428DB29648FD
:104350008088A84212DA94488088A0F57F41FF390E
:104360000CD0012000EB44008E49085C312805DAAE
:104370003120012101EB44018A4A50548A48C08807
:10438000A84212DA8848C088A0F57F41FF390CD0D6
:10439000012000EB44008349085C322805DA322012
:1043A000012101EB44017F4A50547F480089A84213
:1043B00012DD7D480089A0F57F41FF390CD0012036
:1043C00000EB44007749085C322805DA32200121ED
:1043D00001EB4401734A5054022000EB44006D4944
:1043E00031F8100070490988884212DD6E48008853
:1043F000A0F57F41FF390CD0012000EB4400694952
:10440000085C322805DA3220012101EB4401654ABB
:104410005054022000EB44005E4931F8100062491C
:104420004988884212DA60484088A0F57F41FF3908
:104430000CD0012000EB44005A49085C322805DA10
:104440003220012101EB4401564A5054601CC4B291
:10445000082CFFF6DEAE4F48007850490870002463
:1044600008E04C49601C31F810004D4921F8140057
:10447000601CC4B2102CF4DB70BD70B54B480078E2
:1044800010B9FFF787FE0EE048480078012803D1F5
:1044900009204249087006E044480078022802D109
:1044A0000A203E490870FFF7F6FB00203F490870DC
:1044B00002243F480088642190FBF1F0C2B22146FB
:1044C000641C3C4842543A480088642190FBF1F255
:1044D00001FB1200C2B22146641C364842543648E1
:1044E0000088C2B22146641C3248425433480088D6
:1044F000C2B22146641C2F484254314802782146FA
:10450000641C2C4842542F4802782146641C2948D8
:104510004254224802782046611CCCB225490A54F4
:10452000002512E01E4810F815202046611CCCB270
:1045300020490A541A4830F8150002122046611C1E
:10454000CCB21C490A54681CC5B2102DEADB002508
:1045500008E01448425D2046611CCCB215490A545B
:10456000681CC5B2102DF4DB392401222146641CDD
:1045700010484254144802782146641C0D484254A5
:10458000124825E0B80200208200002084000020AC
:10459000B0230020D02700200C280020810000201C
:1045A000B0270020F227002002280020A0000020D1
:1045B00034000020FC3200203600002038000020AB
:1045C0003C0000203D0000207C0000207D000020F9
:1045D00002782046611CCCB2FB490A54FB480278A1
:1045E0002046611CCCB2F8490A54F94802782046AA
:1045F000611CCCB2F4490A54F64802782046611C8A
:10460000CCB2F1490A5408460470201248700025C3
:104610000DE0201F2844EC49085C302805D00846EE
:1046200090F83900401C81F83900681CC5B2042D8F
:10463000EFDB204670BD2DE9FC5FE7480088E749C5
:1046400009884843401E4FF6FF7101EA40090224E1
:10465000E3480088642190FBF1F0C2B22146641C5B
:10466000D9484254DE480088642190FBF1F201FBF6
:104670001200C2B22146641CD3484254D948008873
:10468000C2B22146641CD0484254D7480088C2B206
:104690002146641CCC484254D44802782146641C0C
:1046A000C9484254D24802782146641CC648425444
:1046B000002509E0CF49A81D0A5C2046611C8CB288
:1046C000C1490A54681C85B24D45F3DBCA49CB4841
:1046D000006807F0E2F8834607F0E2FA0022C84BD0
:1046E000CDE9000107F00FF9074607F0C0FA1FFAFD
:1046F00080FA2046611C8CB2B34901F800A04FEA51
:104700002A222046611C8CB2AF490A540021BD48C0
:10471000006807F027FB12D8B749BA48006807F0CD
:10472000BCF8834607F0BCFA07460022B44B07F0FA
:10473000EAF8CDE9000107F07BFA06B211E0AE49D4
:10474000B048006807F0A9F8834607F0A9FA0022EC
:10475000AB4BCDE9000107F077F9074607F068FA9F
:1047600006B22146601C84B297484654C6F307221D
:104770002046611C8CB294490A54002512E0A248DC
:1047800010F815202046611C8CB28F490A549E48AF
:1047900030F8150002122046611C8CB28A490A5476
:1047A000681C85B2112DEADB87490C702012487015
:1047B0004FEA6909002507E0944830F8151094A0E5
:1047C00008F0C2FA681C85B24D45F5DBAFF68810DB
:1047D00008F0BAFA002507E08B4830F815108CA0D5
:1047E00008F0B2FA681C85B2112DF5DBAFF6A810FF
:1047F00008F0AAFA2046BDE8FC9F10B5764B1B884E
:10480000764C248863435B1E4FF6FF7404EA430230
:104810007E49002005E0774C831DE35C0B54431C6C
:1048200098B29042F7DB10BD10B5002271480078B5
:10483000704C647800EB0420764C2080002105E069
:104840006C48405C104482B2481C81B272480088B7
:104850008142F5DB08464C1CA1B2664C235C08463D
:104860004C1CA1B2634C205C03EB002083B29A4243
:1048700001D1002010BD4FF0FF30FBE710B504461A
:1048800066480460012008F06EF901E007F006FFB9
:10489000624800680028F9D1801E08F064F9002001
:1048A00008F061F910BD2DE9F041012210215C48AA
:1048B00007F0E6FE0024AA222146641C594842540F
:1048C00055480088C2B22146641C5648425452489A
:1048D000008802122146641C524842544D48008808
:1048E000C2B22146641C4F4842544A480088021212
:1048F0002146641C4B4842544B480088C2B22146B2
:10490000641C484842544848008802122146641CEE
:104910004448425445480088C2B22046611CCCB28B
:1049200040490A544148008802122046611CCCB21A
:104930003C490A54002538480088C01CC7B20324EB
:1049400005E03848005D284485B2601CC4B2BC4212
:10495000F7DB2046611CCCB232490D542A122046A6
:10496000611CCCB22F490A54DD222046611CCCB216
:104970002C490A5400202E4908802E480480012228
:1049800040F227712C4808F07BF92C48068802E099
:1049900007F084FE00BF264800882649098888421F
:1049A00004DA26480088801B0628F1DB0120FFF787
:1049B00065FF002210211A4807F062FE802020497E
:1049C0000880BDE8F0810000FC3200207E0000205D
:1049D0007F00002080000020820000208400002052
:1049E0003400002036000020380000203C00002069
:1049F0003D000020680F00200000204174000020CE
:104A00000000E03F78000020D0270020B0230020E5
:104A100025752000700000206E0000202800002076
:104A200000100140681F0020920000209400002028
:104A3000640000206200002000480040A400002024
:104A40006A00002070B5FE480088002834D1FD4877
:104A50000088FD4909884843401E85B2A81DFB49CE
:104A60000880FB48007870B9FA48007858B90024EB
:104A700006E00121F84A04F109001154601C84B2D7
:104A8000AC42F6DB0BE0002407E0F448015DF24A9B
:104A900004F109001154601C84B2AC42F5DB45F20C
:104AA0008610EF4908808020EE490880FFF7FBFE62
:104AB000ED480088E2490880EB480088E049098811
:104AC000401A10281BDAE748008887281CD1FFF716
:104AD000ABFE00280EDBE2480088A0F5A2410639B3
:104AE00003D10020D649088070BD0020D449088039
:104AF000401EF9E70020D2490880401EF4E700205C
:104B0000CF490880401EEFE70220EDE72DE9F04F86
:104B10008BB04FF00008C14640F6FF7AD34600251F
:104B20000026002442E0002000EB4400CF4931F889
:104B300010000544002000EB440031F8100040450F
:104B400004DD002000EB440031F81080002000EB71
:104B50004400C64931F81000504504DA002000EB4B
:104B6000440031F810A0012000EB4400BF4931F8A7
:104B700010000644012000EB440031F810004845C5
:104B800004DD012000EB440031F81090012000EB1F
:104B90004400B64931F81000584504DA012000EB12
:104BA000440031F810B007F079FD641C122CBADB18
:104BB000A5EB0800A0EB0A00C0F30B15A6EB09005B
:104BC000A0EB0B00C0F30B16284607F024F8A84A08
:104BD000A84BCDE9040106F03DFF0022A64BCDE92C
:104BE000060106F0A9FFCDE9080107F095F8A349F1
:104BF0000860304607F00FF8A14AA24BCDE9040146
:104C000006F028FF00229C4BCDE9060106F094FF38
:104C1000CDE9080107F080F80746384607F040F86C
:104C2000994A9A4BCDE9000106F011FF0022984BFA
:104C3000CDE9020106F00EFF0022964BCDE90401FA
:104C400006F07AFF0022944BCDE9060106F05BFEE8
:104C5000CDE9080107F060F8904908600BB0BDE8A5
:104C6000F08F10B58E48008878B906207749088003
:104C700045F286007A49088080207A490880FFF74B
:104C800012FE794800888649088009E007F006FD91
:104C900074480088872803D100208149088010BD0E
:104CA000714800887E490988401A0228EEDB0020FE
:104CB0007B490880401EF2E770B57A4804F04CF852
:104CC0000446282007F04CFB0546402007F048FB2F
:104CD00005EB00407449086008460068A04205D80A
:104CE0000846006871490844A0420CD26E4804602E
:104CF000008881B2282007F03BFB6B480068010C5C
:104D0000402007F035FB70BD3EB5012220216848E8
:104D100007F0B6FC00220821654807F0B1FC00222C
:104D20001021634807F0ACFC80206249088062498A
:104D300008804C490880002404E024205F4908557D
:104D4000601C84B2642CF8DB5D495EA007F0FCFFB8
:104D50000120FEF73CFBFEF793FB5C4800785C49C2
:104D600008805C480088642190FBF1F04D49087090
:104D700058480088642190FBF1F201FB1200494978
:104D8000487055480088887054480088C87030487A
:104D9000007808712F48007848714E4800886421D7
:104DA00090FBF1F04E4908704A480088642190FB5E
:104DB000F1F201FB12004A494870474800888870A8
:104DC00046480088C8702248007808712148007859
:104DD0000A2190FBF1F201FB12001E490978081A22
:104DE0003F4948710020887138480078194909788E
:104DF000174A1278CDE900210290384803883648D6
:104E000002883448018837A007F09EFFBC2007F0D5
:104E1000A7FAC0B2AB2803D10021BC2007F0A8FA42
:104E20003C48007804F05DF83B490880084600885B
:104E300000EB80004FF6FF7101EA400036496DE05B
:104E40002E00002082000020840000206E00002040
:104E50003C0000203D000020681F00200C2800209E
:104E6000700000206A000020A400002068230020B9
:104E7000EC51B81E852B30400000B040740000207B
:104E80004E62105839B40A40B81E85EB51B8F63F4F
:104E90000088C34000804540000039407800002071
:104EA0002C000020040100202C010020008D270090
:104EB000001001404A0000205A000020FC3E002063
:104EC000000000200D0A25730D0A00003E0000209E
:104ED000A20000203400002036000020380000200E
:104EE00012010020253034642D253032642D253008
:104EF000326420253032643A253032643A2530322B
:104F0000642053797374656D205265736574210D47
:104F10000A00000032010020360100200880012034
:104F2000FE490870FFF7C8FE002404E00120FC4998
:104F30000855601C84B2B4F5E17FF7DB3EBD70B567
:104F400004F070F900242146641CF648405CF649E0
:104F500008802146641CF348405CF349098801EB52
:104F60000020F14908802146641CEE48405CEF496E
:104F700008802146641CEB48405CEC49098801EB41
:104F80000020EA4908802146641CE648405CE84964
:104F900008802146641CE348405CE549098801EB30
:104FA0000020E34908806424DE4890F86400082863
:104FB00020DADC4890F8650001281BD1D94890F828
:104FC0006600032816DAD74890F86700022811DA3D
:104FD000D44890F86400D7490870D24890F865002A
:104FE0004870D04890F866008870CE4890F8670006
:104FF000C87008E00320CF490870022088700120A3
:1050000048700020C87068242146641CC548405C74
:10501000C94908802046611CCCB2C249085CC64917
:10502000098801EB0020C44908802046611CCCB2ED
:10503000BC49085CC14908602046611CCCB2B94932
:10504000085CBE49096801EB0020BC4908602046A5
:10505000611CCCB2B349085CB849096801EB004057
:10506000B64908602046611CCCB2AE49085CB34921
:10507000096801EB0060B14908602046611CCCB2B0
:10508000A849085CAE4908702046611CCCB2A5490D
:10509000085CAB4948702046611CCCB2A149085C51
:1050A000A74988702046611CCCB29E49085CA5497E
:1050B00008702046611CCCB29A49085CA14948702E
:1050C0002046611CCCB29749085C9E4988702046F6
:1050D000611CCCB29349085C9B4908702046611C56
:1050E000CCB29049085C984948702046611CCCB20B
:1050F0008C49085C944988702046611CCCB289496F
:10510000085C9149C8702046611CCCB28549085C96
:105110008E4908702046611CCCB28249085C8C49DB
:105120000880084602882046611CCCB27D49085C94
:1051300002EB0020864908802046611CCCB27949E8
:10514000085C83494880084642882046611CCCB2EE
:105150007449085C02EB00207D4948802046611CB0
:10516000CCB27049085C7A4988800846828820461B
:10517000611CCCB26B49085C02EB0020744988804A
:105180002046611CCCB26749085C7149C88008465A
:10519000C2882046611CCCB26249085C02EB002048
:1051A0006B49C8802046611CCCB25E49085C6849E6
:1051B0000881084602892046611CCCB25949085C26
:1051C00002EB0020624908812046611CCCB255499F
:1051D000085C604908702046611CCCB25149085CEB
:1051E0005D4908702046611CCCB24E49085C5B49A1
:1051F00008702046611CCCB24A49085C58490870C6
:105200002046611CCCB24749085C554948700024CF
:105210002146641C5348405C534908702146641C75
:105220005048405C504948702146641C4D48405CE1
:105230004D4988702146641C4A48405C4A49C87000
:10524000002508E02046611CCCB24649085C47496D
:105250004855681CC5B2282DF4DB002508E020461F
:10526000611CCCB23F49085C41494855681CC5B235
:10527000282DF4DB002508E02046611CCCB239491A
:10528000085C3C494855681CC5B2282DF4DB002059
:10529000364981F82700364981F82700354981F8D9
:1052A00027002046611CCCB22E49085C32490870A8
:1052B0002046611CCCB22B49085C2F49487020461F
:1052C000611CCCB22749085C2B4988702046611CC0
:1052D000CCB22449085C2849C8702046611CCCB275
:1052E0002049085C244908712046611CCCB21D4944
:1052F000085C214948712046611CCCB21949085C00
:105300001D4988712046611CCCB21649095C1A48B7
:10531000C1712046611CCCB212492FE09F000020D1
:105320000C280020FC3B002082000020840000208C
:10533000940000209C0200209200002088000020A1
:1053400096000020990000208D0000208C00002095
:10535000022800203101002030010020320100200D
:1053600033010020FC3C0020DA000020E629002068
:105370000E2A0020362A0020CE290020095CFE4893
:1053800001722046611CCCB2FC49095CFA484172AA
:105390002046611CCCB2F949095CF748817220466D
:1053A000611CCCB2F549095CF348C1722046611C0E
:1053B000CCB2F249085CF04908732046611CCCB2BB
:1053C000EE49095CEC4841732046611CCCB2EB49C4
:1053D000095CE94881732046611CCCB2E749095C4D
:1053E000E548C1732046611CCCB2E449095CE2483F
:1053F00001742046611CCCB2E049095CDE4841746E
:105400002046611CCCB2DD49085CDB49887420462B
:10541000611CCCB2D949095CD748C1742046611CD3
:10542000CCB2D649095CD44801752046611CCCB287
:10543000D249095CD04841752046611CCCB2CF49A5
:10544000095CCD4881752046611CCCB2CB49095C12
:10545000C948C17503F0B0FF70BD00B591B0002020
:105460000C9001208DF834008DF835004FF4602049
:105470000E9000200F9002208DF840000CA9C0482B
:1054800006F0E2FE012006F051FF07230122082169
:10549000BB4806F0FDFE072302221021B84806F0A3
:1054A000F7FE0121B64806F0ACFE0121B44806F033
:1054B000B2FEB34806F026FF00BFB14806F0BCFEBE
:1054C0000028FAD1AE4806F02CFF00BFAC4806F029
:1054D000ACFE0028FAD10121A94806F018FF0121ED
:1054E000084607F053F9A74806F054FFA4484C308B
:1054F0000190A548029000200390242004900020F1
:1055000005908020069040000790800008902020A1
:10551000099000020A9000200B9001A9994806F01A
:10552000A9FF0121974806F02BFF11B000BD0EB571
:1055300042F20F70ADF8040041F61F40ADF80000D4
:105540000020ADF80600ADF8020069464FF080403B
:1055500007F042FB0121880707F027FB01221146D3
:10556000900707F030FB0121880707F021FB0EBDF3
:105570001FB54FF4165000900020ADF80400ADF8B0
:105580000600ADF80800ADF80C000C20ADF80A00DC
:1055900069467E4807F08CFB4FF4E1300090694685
:1055A0007B4807F085FB4FF4165000906946794818
:1055B00007F07EFB012240F22551744807F060FBA2
:1055C000012240F22551724807F05AFB012240F2B5
:1055D0002551704807F054FB01216C4807F020FB6F
:1055E00001216B4807F01CFB01216A4807F018FBFA
:1055F0001FBD10B5042007F0AAFA674807F0D1FADA
:10560000012007F0C2FA10BD00B587B001214FF0AC
:10561000C05007F0C7F8012007F0A8F8042006F0F2
:105620009FFEA0F52541A53950D006F08FFE012040
:1056300007F082F900BF412007F03AF90028FAD0BC
:105640004FF4807007F0B2F9012007F0A9F907F0D4
:105650003DFA07F031FA4FF4FB60504948610020F1
:1056600008610120C86000208860486008601C2232
:105670001031684606F0CAF848480FC803F05FF9D1
:105680000821142006F074FE0121182006F070FE97
:1056900001211C2006F06CFE0021202006F068FE8F
:1056A0000021242006F064FE4AF2A551042006F0F1
:1056B0005FFE0121084607F0D3F907F0FDF947F630
:1056C000FF7007F0E9F907F0F7F909E007F0FEF9D4
:1056D00007F0F2F90121084607F0C2F907F0ECF9EA
:1056E00007B000BD0EB5F820ADF8080003208DF816
:1056F0000A0010208DF80B0002A9294806F05EFF71
:105700000220ADF8080003208DF80A0010208DF863
:105710000B0002A9234806F051FF012280212048F6
:1057200006F0AEFF4FF48060ADF8080004208DF85D
:105730000B0002A91B4806F041FF0820ADF8080045
:1057400048208DF80B0002A9164806F037FF4FF4E9
:105750000060ADF8080004208DF80B0002A9124883
:1057600006F02CFF4FF40070ADF8080003208DF810
:105770000A0018201AE00000CE290020FC3C00207E
:105780000024014008000240682300200038014046
:10579000004400400048004080FC0A0060060020F1
:1057A0000010014000080140000C01408DF80B0082
:1057B00002A9F74806F002FF0420ADF8080002A98C
:1057C000F34806F0FBFE4FF48060ADF8080002A934
:1057D000F04806F0F3FE0120ADF8080000208DF837
:1057E0000B0002A9EB4806F0E9FE4FF48050ADF83B
:1057F000080003208DF80A0004208DF80B0002A990
:10580000E44806F0DBFE0C21012006F0C3FE4FF455
:105810008050009000208DF804000C208DF80500C9
:1058200001208DF80600684606F056FE0EBD10B544
:1058300045F2555006F046FF032006F037FF40F2D0
:10584000E24006F039FF06F029FF06F01FFF10BD09
:1058500008B5D1494FF0006006F07EFF4FF4C060FC
:1058600006F070FF03208DF8000000208DF8010085
:1058700002208DF8020001208DF80300684606F032
:1058800027FF25208DF8000001208DF8010003205E
:105890008DF8020001208DF80300684606F018FF1D
:1058A00026208DF8000004208DF8020001208DF8DC
:1058B0000300684606F00CFF27208DF80000052045
:1058C0008DF8020001208DF80300684606F000FF05
:1058D00028208DF8000000208DF801008DF80200CE
:1058E00001208DF80300684606F0F2FE00208DF8D6
:1058F000000001208DF80100684606F0E9FE122044
:105900008DF8000000208DF801008DF802000120C4
:105910008DF80300684606F0DBFE1C208DF80000C1
:1059200000208DF8010001208DF802008DF80300A1
:10593000684606F0CDFE08BD10B506F051FF4FF4E5
:10594000803006F0DFFF07F043F80446012C28D131
:10595000102006F007FE022006F010FE002006F0E0
:10596000C7FF002007F002F8A00206F0F5FF4FF491
:10597000404006F001FF4FF4E011200407F006F864
:10598000012006F0FDFF00BF392006F091FF00283E
:10599000FAD0022007F012F800BF06F0A1FF082895
:1059A000FBD1012144F21D2006F008FF01214FF434
:1059B000C02006F0F7FE0121084606F0F3FE10BDF8
:1059C000FFF7BAFFFFF744FFFFF731FFFFF78AFE4B
:1059D000FFF71AFEFFF70DFEFFF7CAFD02F0C2FF48
:1059E000FFF7A5FDFFF739FDFFF7A9FAFFF78CF9DF
:1059F000E5E206F053FE02F0FFFD684800883C280F
:105A000060DD6748007800285CD1FDF739FD654806
:105A100000783C2190FBF1F201FB12005F49088005
:105A200061480088642190FBF1F0604908705E488D
:105A30000088642190FBF1F201FB12005B49487081
:105A40005B48008888705B480088C8705A480078B6
:105A500008715A48007848710020887157480078CA
:105A60000A2190FBF1F201FB120040BBFFF724F981
:105A7000FFF7F7F8002819DAFFF7F3F800280EDA35
:105A8000FFF7EFF8002803DA02204D49087013E011
:105A900001204B4908706420FEF7F0FE0CE0012065
:105AA000474908706420FEF7E9FE05E001204449FB
:105AB00008706420FEF7E2FEFFF728F802E00320FA
:105AC0003F4908703E48007801285FD1FEF7BAFFD1
:105AD000B0F1FF3F02D0002859D17FE03248008862
:105AE000642190FBF1F0374908702F480088642149
:105AF00090FBF1F201FB1200324948702C480088FB
:105B000088702C480088C8702B48007808712B4892
:105B100000780A2190FBF1F201FB12002749097875
:105B2000081A284948710020887101202649087008
:105B3000FEF7A3FC254908801C49002003F08EF9DC
:105B40002348007801281AD12248007818B1174953
:105B5000002003F0E4F91F48407880B1134803F0B7
:105B6000FBF804461B49487803F0BBF9B4FBF0F19D
:105B700000FB114018B90D49012003F0D0F90120B4
:105B80001549087000200E49087089E089E086E018
:105B900000080140000C014000300008A200002075
:105BA000E80000203E000020340000200401002016
:105BB00036000020380000203C0000203D0000207E
:105BC0009C00002012010020A00000200201002003
:105BD00031010020330100209F000020F848008898
:105BE000642190FBF1F0F7490870F54800886421C2
:105BF00090FBF1F201FB1200F2494870F248008874
:105C00008870F2480088C870F14800780871F1483F
:105C100000780A2190FBF1F201FB1200ED490978AE
:105C2000081AE849487100208871EB490870FEF7AE
:105C3000E4FDFEF722FCE9490880E949002003F071
:105C40000DF9FEF7F8FCE5490880E549012003F06D
:105C500005F9E448007801281AD1E348007818B122
:105C6000DF49002003F05BF9DF48407880B1DC4871
:105C700003F072F80446DC49487803F032F9B4FBCB
:105C8000F0F100FB114018B9D549012003F047F9A4
:105C90000120D64908700020D549087000E000BFF7
:105CA0006AE0D3480078022854D1C54800886421AE
:105CB00090FBF1F0C3490870C1480088642190FB53
:105CC000F1F201FB1200BF494870BF48008888709C
:105CD000BE480088C870BE4800780871BD4800788A
:105CE0000A2190FBF1F201FB1200BA490978081A67
:105CF000B4494871002088710220B7490870FEF746
:105D0000BCFBB6490880B649002003F0A7F8B548A7
:105D1000007801281AD1B448007818B1B0490020A1
:105D200003F0FDF8B048407880B1AD4803F014F8B6
:105D30000446AD49487803F0D4F8B4FBF0F100FB19
:105D4000114018B9A649012003F0E9F80020A8493C
:105D5000087011E0A648007803280DD1A14800780A
:105D6000012806D1A048007818B19D49002003F011
:105D7000D6F800209E4908709C480078012805D17B
:105D80009C480078042801D103F018FA9A4800785A
:105D9000012801D103F0CAF998480078002801DDF4
:105DA00003F0A3F996480078012801D105F0C1FC61
:105DB00094480088872870D1002093490880FDF717
:105DC00044FF0028F7D1914800888F2873D00CDC5D
:105DD000842830D004DC812810D082281DD11DE019
:105DE00085285BD08E28F9D187E0952879D0962830
:105DF00078D09C2877D09D28F0D1CFE0FDF7F2FE37
:105E00000320834908800F208049088000208149B1
:105E100008808148007802F02BF9CCE0FDF7C6FE3F
:105E200009207B4908800220784908807A48007858
:105E300002F01EF9BFE01420784908707848C07855
:105E4000487077480079887075484079C870744800
:105E5000807908717248C0794871002088710846BD
:105E600002F07AFF6F4908606D48007A6B4948700C
:105E70006B48407A88706A48807AC8706848C07AEF
:105E800008716748007B4871084602F065FF654964
:105E900048600120584908708DE090E0FDF7F0FA65
:105EA000FDF713FBAA2807D10320594908800F20CA
:105EB0005649088006E040E00320554908800E203E
:105EC000524908805448007802F0D2F80220FDF7C9
:105ED0007EFA5148007801F058FD012804D100BF36
:105EE000FEE737E043E04CE00220FDF770FA4A4855
:105EF000007801F04AFD00BFFEE7FDF775FA0320C8
:105F0000434908800F20414908804348007802F047
:105F1000AFF80220FDF75BFA3F48007801F035FD4D
:105F2000012801D100BFFEE70220FDF750FA3A48F0
:105F3000007801F02AFD00BFFEE7FDF7F0F90A2026
:105F4000334908801F20314908803348007802F027
:105F50008FF830E0FDF7C2F903202D4908800F20AB
:105F60002A4908802C48007802F082F823E0FDF7E7
:105F700092F92020254908802748007802F078F817
:105F800019E0FDF7F8F80320214908800F201F4988
:105F900008802148007802F06BF800BFFDF7BEF8DA
:105FA00005201B4908801E20184908801A480078DF
:105FB00002F05EF800BF00BF80201249088018E59B
:105FC000340000201201002036000020380000209C
:105FD0003C0000203D000020A00000200201002025
:105FE0000401002031010020330100209F00002027
:105FF0009C000020DE0000209E0000209D0000206C
:10600000A50200205A000020A60000206000002009
:106010005E000020EA000020EC0000200B010020C0
:106020008C08002024010020F748006820B1F648C1
:106030000068401EF4490860704701B54FF4C8710C
:106040000098B0FBF1F201FB120008B9012008BD75
:1060500064210098B0FBF1F201FB120008B90020A6
:10606000F5E7009810F0030F01D10120EFE70020C1
:10607000EDE770B50022E5480078E54E308000215C
:1060800005E0E248405C104482B2481CC1B2E148DD
:1060900000888142F5DB08464E1CF1B2DB4E345CD1
:1060A00008464E1CF1B2D94E305C0502601983B22D
:1060B0009A4201D1012070BD0020FCE72DE9F0419A
:1060C000FE20D549087048708870AA20C870D14851
:1060D00000880871CE4800884871D04800888871CF
:1060E000CF480088C8710025CA480088401D87B283
:1060F000052405E0C848005D284485B2601C84B2D0
:10610000BC42F7DB2046611C8CB2C3490D542A12F5
:106110002046611C8CB2C0490A54DD20085500207D
:10612000C0490880BB4800880830BF490880012268
:1061300040F22771BD4806F0A3FDBD48068802E085
:1061400006F0ACFA00BFB7480088B7490988884212
:1061500004DAB7480088801B1028F1DB8020B5499D
:106160000880BDE8F0812DE9F041FE20B2490870B9
:1061700048708870AA20C870B04800880871B0487C
:1061800000884871A54800888871AC4800880012D2
:10619000C8710025A9480088401D87B2052405E084
:1061A000A548005D284485B2601C84B2BC42F7DB80
:1061B0002046611C8CB2A0490D542A122046611C55
:1061C0008CB29D490A54DD20085500209D49088065
:1061D0009A48008808309C490880012240F22771C3
:1061E0009A4806F04DFD9248068802E006F056FAFD
:1061F00000BF9448008894490988884204DA8C4892
:106200000088801B1028F1DBBDE8F08170B5904854
:1062100000788F49497800EB012085B28D480078DD
:1062200004281FD1012086490880681C8349088002
:10623000002001F057FD0826022408E08448025D92
:106240003046711C8EB27C490A54601C84B2AC4248
:10625000F4DBFFF788FF002001F096FD10B9022063
:106260007C4908707B480078042801D1002070BD6B
:106270004FF0FF30FBE72DE9FE4F81460F466748A0
:1062800000887549CDE9001074480378744875A1F9
:106290000268614806F068FD79793879FA78CDE9C5
:1062A000002002917878397801EBC10C0CEB0111D8
:1062B00000EB8102BB7871A15748153006F054FD00
:1062C000B9F1000F07D17348027873A15248243006
:1062D00006F04AFD06E06F48427871A14E4824302E
:1062E00006F042FD7048007A09286EDA6E4890F890
:1062F0003930007A42006DA14748283006F034FD5D
:106300000926002588E106EB850084B2082D7AD2A3
:10631000DFE805F0041B3B5CFEF8F7F66249A01CC1
:10632000095CDFF884C1E01C1CF8000001EB0023CD
:106330006046015D601C1CF8000001EB00225EA1BC
:1063400035482F3006F010FD63E1DFF85CC1A11C79
:106350001CF801C0DFF850B1E11C1BF801100CEB78
:106360000123594611F804C0611C1BF801100CEB05
:10637000012205EBC50149002F31DFF89CC001EB7C
:106380000C0053A106F0F0FC43E1DFF81CC1A11C96
:106390001CF801C0DFF810B1E11C1BF801100CEB78
:1063A0000123594611F804C0611C1BF801100CEBC5
:1063B000012205EBC50149002F31DFF85CC001EB7C
:1063C0000C0049A106F0D0FC23E14CE1DFF8D8C075
:1063D000A11C1CF801C0DFF8D0B0E11C1BF80110B3
:1063E0000CEB0123594611F804C0611C1BF8011085
:1063F0000CEB012205EBC50149002F31DFF818C075
:1064000001EB0C0080E003E1280000208C06002056
:10641000500000204E0000208C0700209200002039
:106420009400002044000020420000200038014079
:10643000A40000204A0000208C0900205E000020FB
:106440006000002054000020520000200044004062
:10645000FC370020DE0000208D0000208C00002092
:106460008800002042472C2530356C642C253032C2
:10647000642C25732C253033642C000025303464C3
:106480002530326425303264253032642530326460
:1064900030302C003301002030253032642C0000D5
:1064A00031253032642C0000FC3600202530336466
:1064B0002C253032642C0000415248612C253033A9
:1064C000642C415248632C253033642C00000000BA
:1064D000415249612C253033642C415249632C25AB
:1064E0003033642C0000000041524A612C253033C7
:1064F000642C41524A632C253033642C0000000088
:1065000066E045E024E003E0F7A106F02DFC80E022
:10651000DFF8ECC3A11C1CF801C0DFF8E4B3E11CF8
:106520001BF801100CEB0123594611F804C0611C43
:106530001BF801100CEB012205EBC50149002F31BE
:10654000DFF8C0C301EB0C00EFA106F00DFC60E02A
:10655000DFF8ACC3A11C1CF801C0DFF8A4B3E11C38
:106560001BF801100CEB0123594611F804C0611C03
:106570001BF801100CEB012205EBC50149002F317E
:10658000DFF880C301EB0C00E5A106F0EDFB40E075
:10659000DFF86CC3A11C1CF801C0DFF864B3E11C78
:1065A0001BF801100CEB0123594611F804C0611CC3
:1065B0001BF801100CEB012205EBC50149002F313E
:1065C000DFF840C301EB0C00DBA106F0CDFB20E0BF
:1065D000DFF82CC3A11C1CF801C0DFF824B3E11CB8
:1065E0001BF801100CEB0123594611F804C0611C83
:1065F0001BF801100CEB012205EBC50149002F31FE
:10660000DFF800C301EB0C00D1A106F0ADFB00E008
:1066100000BF00BF681C85B2B948007AA8423FF7A6
:1066200072AE05EBC5002F2101EB400084B2292694
:1066300000250BE03046711C8EB2B1490A5C204641
:10664000611C8CB2AF490A54681C85B2AC48007A10
:10665000B5EB400FEEDBD5B12C222046611C8CB28D
:10666000A8490A5413E0A648007A0B2809DAA4487E
:1066700090F83920BCA1A348283006F075FB3624D9
:1066800005E0BDA19F48283006F06EFB2E243A2677
:106690009C490819BAA105F0DDF8A01C84B2314666
:1066A000761C9748425C2046611C8CB295490A547E
:1066B0002C222046611C8CB292490A543146761C29
:1066C0008F48405C302814D08E490819ADA105F0E0
:1066D000C1F8A01D84B2701E89490A5C2046611C65
:1066E0008CB288490A542C222046611C8CB2854900
:1066F0000A543046711C8EB28149085C302814D08F
:1067000080490819A1A105F0A5F8E01C84B2701E0B
:106710007B490A5C2046611C8CB27A490A542C22BF
:106720002046611C8CB277490A543046711C8EB2E7
:106730007349085C302814D07249081994A105F0F7
:1067400089F8E01C84B2701E6D490A5C2046611C09
:106750008CB26C490A542C222046611C8CB26949C7
:106760000A543046711C8EB26549085C302814D03A
:106770006449081987A105F06DF8E01C84B2701E09
:106780005F490A5C2046611C8CB25E490A542C2287
:106790002146601C84B25B4842544FF0000800253B
:1067A00004E05848405D8044681C85B2A542F8DB8F
:1067B0004FF47A70B8FBF0F00A21B0FBF1F201FB64
:1067C000120030302146621C94B24E4A505464206C
:1067D000B8FBF0F00A21B0FBF1F201FB12003030FF
:1067E0002146621C94B2474A50540A20B8FBF0F08C
:1067F0000A21B0FBF1F201FB120030302146621C8D
:1068000094B2404A50540A20B8FBF0F100FB1181C9
:1068100030312046621C94B23A4A11542C22204650
:10682000611C8CB237490A5445222146601C84B24F
:106830003448425444222046611C8CB231490A54E7
:106840000D222046611C8CB22E490A540A22204691
:10685000611C8CB22B490A5400204F4908804F48D4
:106860000480012240F227714D4806F009FA4D4894
:10687000B0F800A002E005F011FF00BF4648008814
:1068800046490988884205DA46480088A0EB0A0094
:106890000528F0DB802044490880BDE8FE8F2DE903
:1068A000F04188B007460D46E7B94048007869795D
:1068B0002A79EB78CDE90432CDE90610A878697819
:1068C0002A7802EBC20303EB021201EB8201384A81
:1068D0001288384BCDE90032CDE9021036480378F2
:1068E00036486DE072E0000041524B612C25303398
:1068F000642C41524B632C253033642C0000000083
:10690000FC3600208C07002041524C612C2530338E
:10691000642C41524C632C253033642C0000000061
:1069200041524D612C253033642C41524D632C254E
:106930003033642C0000000041524E612C2530336E
:10694000642C41524E632C253033642C000000002F
:1069500041524F612C253033642C41524F632C251A
:106960003033642C000000003030302C253033648C
:106970002C2F2F2F2F2F2C002F2F2F2F2F2C0000BD
:106980007A2C0000795F4152422C000078422C00A2
:1069900077412C0074432C0044000020420000206A
:1069A00000380140A40000204A00002033010020EC
:1069B000920000208D0000208C0000208800002024
:1069C0005DA102686B4806F0CFF920E06A48407884
:1069D00069792A79EB78CDE90432CDE90610A878F7
:1069E00069782A7802EBC20303EB021201EB820101
:1069F000624A1288624BCDE90032CDE9021061484B
:106A00000378614861A102685A4806F0ADF9002692
:106A1000002404E05748005D0644601C84B22E2C1C
:106A2000F8DB4FF47A70B6FBF0F00A21B0FBF1F21C
:106A300001FB120030302146621C94B24D4A505482
:106A40006420B6FBF0F00A21B0FBF1F201FB12006A
:106A500030302146621C94B2464A50540A20B6FB9C
:106A6000F0F00A21B0FBF1F201FB120030302146B8
:106A7000621C94B23F4A50540A20B6FBF0F100FB6E
:106A8000116030302146621C94B23A4A50542C2294
:106A90002046611C8CB237490A5445222046611CAD
:106AA0008CB234490A5444222046611C8CB23149CC
:106AB0000A540D222046611C8CB22E490A540A2227
:106AC0002146601C84B22B48425400203E49088075
:106AD0003E480480012240F227713D4806F0D0F87C
:106AE0003C48B0F8008002E005F0D8FD00BF364811
:106AF000008836490988884205DA36480088A0EBC4
:106B000008000528F0DB80203349088008B0BDE884
:106B1000F08170B504460D46E1B22D4806F010F93B
:106B200001E005F0BBFD8021294806F083F800282C
:106B3000F7D0204670BD000042472C2530356C64EC
:106B40002C253032642C25732C253033642C2530D1
:106B50003464253032642530326425303264253087
:106B6000326430302C30253032642C2F2F2F2F2FD1
:106B70002C0000008C070020330100209200002030
:106B80008D0000208C0000208800002042472C252A
:106B900030356C642C253032642C25732C25303331
:106BA000642C25303464253032642530326425303D
:106BB00032642530326430302C31253032642C2F51
:106BC0002F2F2F2F2C000000440000204200002017
:106BD00000380140A40000204A000020704700BF98
:106BE000FEE700BFFEE700BFFEE700BFFEE770471D
:106BF0007047704710B5FFF717FA10BD7047704720
:106C0000704710B5012005F01DFF38B1FE4800881F
:106C1000401CFD490880012005F0F4FE10BD7047BE
:106C200070477047704770477047704770477047AC
:106C3000704770477047704770477047704770479C
:106C4000704770477047704770477047704710B57E
:106C5000EE480088401CED490880ED480088401C43
:106C6000EB490880EB480088401CEA490880EA4864
:106C70000088401CE849088008464088401C48803D
:106C800008468088401C88800846C088401CC88010
:106C9000E2480088401CE1490880E1480088401C27
:106CA000DF4908804021DF4805F0DFFCC0F101002A
:106CB000C4B222464021DB4805F0E2FC01218807EE
:106CC00005F073FF10BD70477047704770477047FD
:106CD00070477047704770B540F22551D24805F0B3
:106CE000B0FF064626B3D04806F026F8C5B240F2FB
:106CF0002551CD4805F08EFFCC480078A0BB00247C
:106D000005E0CB49601C085C0855601CC4B2632CCC
:106D1000F7DBC748055590F862000D2824D1C44818
:106D200090F863000A281FD10120C04908701BE0B9
:106D300040F22771BC4805F06DFFBE48028800880C
:106D4000401CBC4B1880BC48815CB74805F0F8FF7C
:106D5000B8480088B9490988884205DB002240F21A
:106D60002771B14805F08CFF70BD70B540F2255118
:106D7000B34805F066FF0546002D70D0B04805F019
:106D8000DBFFC4B240F22551AD4805F043FFAD48EA
:106D900001880088401CAB4A1080AB484454104620
:106DA0000088FA2802DB002011460880A7480088E6
:106DB000902808D1A64801880088401CA44A108069
:106DC000A44844546EE0A1480088802805D12B2CAB
:106DD00068D181209D49088064E09C480088812812
:106DE00009D1512C03D18220984908805AE0802093
:106DF0009649088056E095480088822809D1492C98
:106E000003D18320914908804CE080208F4908807D
:106E100048E08E480088832809D1552C03D184206E
:106E20008A4908803EE08020884908803AE0874807
:106E30000088842809D1522C03D1852083490880F9
:106E400030E08020814908802CE080480088852837
:106E50000AD1432C04D186207C49088022E01FE11E
:106E600080207A4908801DE078480088862809D16A
:106E70003A2C03D188207549088013E0802073499B
:106E800008800FE07148008888280BD1202C06D19B
:106E900090206E49088000206D49088002E0802023
:106EA0006A4908806C4800788038122871D2DFE87F
:106EB00000F0090F19232D37414B555FE9E9E9E946
:106EC000E9E9717B2B2C02D1812063490870DDE058
:106ED000512C03D182206049087002E080205E4975
:106EE0000870D3E0492C03D183205B49087002E08D
:106EF000802059490870C9E04F2C03D1842056499D
:106F0000087002E0802054490870BFE0502C03D183
:106F100085205149087002E080204F490870B5E093
:106F2000452C03D186204C49087002E080204A4954
:106F30000870ABE04E2C03D187204749087002E06F
:106F4000802045490870A1E03A2C03D188204249AD
:106F5000087002E080204049087097E0202C03D19F
:106F600089203D49087002E080203B4908708DE08F
:106F70003A4804700078302807DB38480078332816
:106F800003DC90203449087002E080203249087008
:106F90007CE077E02C2C03D191202F49087002E08F
:106FA00080202D49087071E0302C1CD12B480078CE
:106FB000302802D101202A49087028480078312859
:106FC00002D101202649487024480078322802D195
:106FD0000120234988702148007833284ED10120B0
:106FE0001F49C8704AE01D480078302802D1FF20B0
:106FF0001B49087019480078312802D1FF20184930
:107000004870164800782DE0A2000020A60000205D
:10701000A4000020B2000020AA000020A800002048
:10702000B40000200010014000380140A5020020FB
:10703000FC3E0020440000208C070020420000207D
:107040000044004058000020023100205A00002077
:10705000F6000020262B0020B7000020B6000020FC
:10706000F8000020322802D1FF206F4988706F4855
:107070000078332802D1FF206B49C87080206C490A
:10708000087003E080206A49087000BF00BF6948AB
:107090000078012820D12146674805F051FE1BE009
:1070A00040F22771654805F0B5FD65480288008803
:1070B000401C634B18806348815C604805F040FECB
:1070C0005F48008860490988884205DB002240F259
:1070D00027715A4805F0D4FD70BD70B540F22551B6
:1070E0005A4805F0AEFD0546002D4ED0574805F034
:1070F00023FEC4B240F22551544805F08BFD54489C
