:020000040800F2
:1000000050FA002009010008490800084B080008C0
:100010004F080008530800085708000800000000B7
:100020000000000000000000000000005D08000863
:100030005B080008000000005F0800086108000875
:1000400063080008650800086708000869080008D8
:100050006B0800086D0800086F08000871080008A8
:100060007308000875080008770800081F010008D9
:100070001F0100081F0100081F0100081F010008E0
:100080001F0100081F0100081F010008890800085F
:100090008B0800088D0800088F08000891080008E8
:1000A00093080008950800089708000899080008B8
:1000B0009B0800089D0800089F080008A108000888
:1000C000A3080008A5080008A7080008A908000858
:1000D000AB080008AD080008DF080008E1080008C8
:1000E000E3080008E5080008E7080008DFF80CD07E
:1000F00000F032FF004800478302000850FA002059
:1001000080F308887047000005480047FEE7FEE7D7
:10011000FEE7FEE7FEE7FEE7FEE7FEE7FEE7FEE7B7
:10012000ED000008002108E0002201E0531C9AB213
:10013000B2F5E15FFADB4B1C99B28142F4DB704708
:100140001FB54FF4E13000900020ADF80400ADF889
:100150000600ADF80800ADF80C000C20ADF80A0060
:100160006946FE4801F024FA012240F22551FB487D
:1001700001F005FA0121F94801F0D1F91FBD08B5D8
:100180004FF48060ADF8000004208DF8030069464C
:10019000F34800F0B3FF4FF40070ADF80000032007
:1001A0008DF8020018208DF803006946EC4800F035
:1001B000A5FF08BD08B500214FF0006001F058F818
:1001C0004FF4C06001F04AF825208DF800000120AE
:1001D0008DF8010003208DF8020001208DF8030046
:1001E000684601F001F800208DF8000001208DF82C
:1001F0000100684600F0F8FF08BD10B501F064F892
:100200004FF4803001F0F2F801F038F90446012C87
:1002100028D1102000F01EFF022000F043FF002034
:1002200001F0DAF8002001F005F9A00201F0F8F879
:100230004FF4404001F026F84FF4E011200401F0A3
:1002400009F9012001F000F900BF392001F0A4F8FC
:100250000028FAD0022001F007F900BF01F0B4F83D
:100260000828FBD1012144F21D2001F021F80121D1
:100270004FF4C02001F010F80121084601F00CF8FD
:1002800010BDFFF7BAFFFFF795FFFFF778FFFFF705
:1002900057FF00F03FFB6420FFF744FFBC2000F055
:1002A0008DFEB049088008460078AB2810D0AE48D3
:1002B000007868B9AD48406800F07F40B0F1006F49
:1002C00003D1AA4800F02BFD02E0A9A001F0BCF97F
:1002D000AE49AFA001F0B8F954E200F06BFFA148BD
:1002E000008800F47F40042806DD9E480078AB2893
:1002F00002D00220B3490870B248007800287DD1AE
:10030000B1A001F0A1F9B748B74908600422084636
:100310000168B64800F075FCB4480088B3494988C4
:1003200000EB0140B2490860B0488088AF49C988F5
:1003300000EB0140AF49086008460268AC4801681C
:10034000ADA001F081F9AA48007810F0010F05D1A5
:10035000A74800684008A649086006E0A44800686D
:10036000012101EB5000A2490860A14800684FF448
:100370007041B1EB400F13D2AAA001F065F96420DF
:10038000FFF7D0FE7748008800F580707549088037
:1003900008460188BC2000F019FE744800F0BFFC3C
:1003A000A848914908600020A7490860A74908802B
:1003B0007FE0A648008868B904228B4801688B4812
:1003C00000F01FFC8948C08800F47F40B0F5006F42
:1003D00000D07AE09D480088401CC0EB00108449A2
:1003E0000968B1EBC02F27D94FF4F0427E4801686D
:1003F0007E4800F006FC7C48006800E087E000F5DD
:100400007040794908600020914908800EE07748E3
:100410008F49098830F811008B49096808448A49D6
:1004200008608B480088401C8949088088480088FB
:10043000B0F5F04FEBDB37E06D4800688349098881
:100440004FF4F04303FB110082B26748016867482C
:1004500000F0D7FB00207E49088019E063487C4902
:10046000098810F81100784909680844764908603D
:100470005E487749098830F811007349096801EB33
:1004800010207149086072480088401C704908803B
:10049000574800686D4909884FF4F04202FB11008B
:1004A0006B4909888842D9D868480088401C674948
:1004B00008804F4800684FF4F041B0FBF1F0401C59
:1004C0006249098888423FF674AF00BF5E48006801
:1004D00048490968884213D05EA001F0B5F864204D
:1004E000FFF720FE1F48008800F580701D49088036
:1004F00008460188BC2000F069FD1C4800F00FFC94
:100500005BA001F0A1F801202E49087039E12D48C7
:1005100000780128FAD15D480078401C5B490870DA
:100520005BA001F091F847482F4908600F485E49E9
:100530000860002045490880EFE044480088401CDE
:10054000C0EB00102A490968B1EBC02F04D94FF461
:10055000F04225480168A9E0BFE0000000380140F2
:10056000000801403600002038000020003000085C
:10057000696C6C6567616C206170702C63616E20C2
:100580006E6F742072756E210D0A0000000000204D
:10059000626F6F746C6F61646572207665727369E7
:1005A0006F6E3A2025730D0A626F6F746C6F616411
:1005B00065722069732072756E6E696E672E2E2EBD
:1005C0000D0A0000300000207573657220617070A4
:1005D00020636865636B20626567696E2E2E2E0D41
:1005E0000A00000000FF1F001C0000204C0000203B
:1005F000240000202800002075736572206170704F
:10060000206C656E6774683A20256C752042797499
:1006100065732C206372633A2030782558200D0AC8
:10062000000000007573657220617070206C656E4B
:10063000677468206F766572206C696D6974210D2E
:100640000A00000000101F002C00002034000020D1
:1006500032000020757365722061707020637263D0
:1006600020636865636B206661696C210D0A000078
:1006700075736572206170702063726320636865B2
:10068000636B206F6B210D0A000000003100002019
:100690007573657220617070207570646174652E69
:1006A0002E2E0D0A0000000020000020474800F018
:1006B000A8FA4748006800F57040454908604FF4C3
:1006C000F04242494348006800F07FFB414800681F
:1006D00000F570403F4908601AE03F4800683F4914
:1006E00009884FF4F04303FB110082B238480168D7
:1006F000364800F086FA38480068384909884FF4CF
:10070000F04303FB110082B23049354800F05DFB35
:1007100032480088401C314908802F4800684FF457
:10072000F041B0FBF1F0401C2C49098888423FF6AB
:1007300004AF2CA000F088FF31A000F085FF6420FA
:10074000FFF7F0FC2648406800F07F40B0F1006FF2
:100750000ED13048008800F580702E490880084688
:100760000188BC2000F032FC1D4800F0D8FA08E0F7
:1007700006E029A000F068FF41F28830FFF7D2FCC4
:10078000F7E700BFA9E510B545F2555000F026FD8A
:10079000052000F017FD40F6354000F019FD00F08F
:1007A00009FD00F0FFFC10BD70B504460D46E1B236
:1007B000244800F045FF01E000F0FCFC80212148C6
:1007C00000F0B7FE0028F7D0204670BD4C00002096
:1007D0001C00002020000020240000203400002005
:1007E0000030000875736572206170702075706448
:1007F0006174652066696E697368210D0A000000E6
:1008000073746172742075736572206170702E2E1E
:100810002E0D0A0036000020626F6F742065727220
:100820006F722120726574727920627920616E6F17
:100830007468657220706F7765726F6E2E2E2E0D44
:100840000A00000000380140704700BFFEE700BF0B
:10085000FEE700BFFEE700BFFEE770477047704746
:1008600070477047704770477047704770477047D0
:1008700070477047704770477047704770477047C0
:1008800070477047704770477047704770477047B0
:1008900070477047704770477047704770477047A0
:1008A00070477047704770477047704710B540F207
:1008B0002551164800F044FE044654B140F225513B
:1008C000124800F026FE114800F0B6FE10490870EC
:1008D00004E040F227710D4800F01BFE10BD704788
:1008E0007047704770477047704770477047704750
:1008F0007047704770477047704770477047704740
:1009000070477047704770477047000000380140DB
:100910003800002000B587B0012141F2040000F04A
:10092000C7FCE020ADF8040003208DF80600182075
:100930008DF8070001A9F74800F0E0FB1020ADF8A2
:10094000040003208DF8060010208DF8070001A98F
:10095000F04800F0D3FB1021EE4800F021FC00200D
:10096000ADF808004FF48270ADF80A000020ADF831
:100970000C000220ADF80E000120ADF8100040027E
:10098000ADF812000820ADF814000020ADF81600F4
:100990000720ADF8180002A9DF4800F09EFD0121F4
:1009A000DD4800F085FD07B000BD10B5044600BF6E
:1009B0000221D94800F086FD0028F9D02146D6480A
:1009C00000F089FD00BF0121D34800F07BFD002825
:1009D000F9D0D14800F07DFDC0B210BD10B50024A3
:1009E0001021CC4800F0DAFB0520FFF7DEFF00BF46
:1009F000A520FFF7DAFF044600F0DCFB14F0010F3E
:100A0000F6D11021C34800F0CBFB10BD10B510216A
:100A1000C04800F0C3FB0620FFF7C7FF1021BD4808
:100A200000F0BEFB10BD10B50446FFF7EFFF10212C
:100A3000B84800F0B3FBD820FFF7B7FFC4F3074076
:100A4000FFF7B3FFC4F30720FFF7AFFFE0B2FFF7F4
:100A5000ACFF1021AF4800F0A3FBFFF7BFFF10BDB4
:100A600010B5FFF7D3FF1021AA4800F097FBC7206D
:100A7000FFF79BFF1021A74800F092FBFFF7AEFFA6
:100A800010BD70B505460C461646FFF7BFFF102196
:100A9000A04800F083FB0220FFF787FFC4F3074064
:100AA000FFF783FFC4F30720FFF77FFFE0B2FFF7F4
:100AB0007CFF05E02878FFF778FF6D1C00F07AFBDB
:100AC0003000A6F101018EB2F4D11021914800F05E
:100AD00067FBFFF783FF70BD2DE9F05F07460E4609
:100AE00014464FF00008C146C2460025AB4606F04A
:100AF000FF0ACAF10000C5B22046E11704EB1161FC
:100B0000C1F30728E11704EB11610912A4EB0121DD
:100B100001F0FF09BAF1000F22D1B8F1000F05D1A1
:100B2000224631463846FFF7ACFF68E00BE04FF451
:100B3000807231463846FFF7A4FF06F5807607F548
:100B4000807700F037FB5FEA0800A8F1010101F0AF
:100B5000FF08ECD14A4631463846FFF792FF4EE097
:100B6000B8F1000F18D1A94510DDA9EB050000F080
:100B7000FF0B2A4631463846FFF783FF2E442F44A9
:100B80005A4631463846FFF77CFF38E02246314668
:100B90003846FFF776FF32E0601B84B22046E1174B
:100BA00004EB1161C1F30728E11704EB116109128D
:100BB000A4EB012101F0FF092A4631463846FFF730
:100BC00060FF2E442F440BE04FF4807231463846CC
:100BD000FFF757FF06F5807607F5807700F0EAFA11
:100BE0005FEA0800A8F1010101F0FF08ECD1B9F1BA
:100BF000000F04D04A4631463846FFF742FFBDE8B1
:100C0000F09F70B504460D4616461021414800F08D
:100C1000C5FA0320FFF7C9FEC5F30740FFF7C5FE7D
:100C2000C5F30720FFF7C1FEE8B2FFF7BEFE10E0F4
:100C3000A520FFF7BAFE2080A520FFF7B6FE218889
:100C400001EB00202080A41C00F0B4FA032E00D198
:100C500000BF3000A6F101018EB2E9D110212D486C
:100C600000F09EFA70BD2DE9F04100240025002619
:100C700000271021274800F091FA9F20FFF795FEEA
:100C8000A520FFF792FE0546A520FFF78EFE06463B
:100C9000A520FFF78AFE074610211E4800F080FAC3
:100CA000280440EA062040EA07042046BDE8F08117
:100CB00010B504461021174800F070FA0320FFF722
:100CC00074FEC4F30740FFF770FEC4F30720FFF77C
:100CD0006CFEE0B2FFF769FE10BD10B5A520FFF76E
:100CE00064FE10BD10B5044600BF02210A4800F0A2
:100CF000E9FB0028F9D02146074800F0ECFB00BFD3
:100D00000121054800F0DEFB0028F9D0024800F080
:100D1000E0FB10BD0008014000300140704710B5F5
:100D20000446206807490840B0F1005F08D16068B8
:100D3000054908602068FFF7E3F903480068804729
:100D400010BD00000000FE2F3C0000200146088876
:100D500070472DE9F04106460D46174600241FE076
:100D600035F81410304600F081F9308835F8141049
:100D7000884212D035F81410304600F077F93088E8
:100D800035F81410884208D006E04CA000F05CFC56
:100D900041F28830FFF7C6F9F7E7B61C601C84B251
:100DA000BC42DDDBBDE8F08130B503460C4615469C
:100DB000002207E01846FFF7C9FF24F812009B1C29
:100DC000501C82B2AA42F5DB30BD2DE9F05F8046AF
:100DD0008A461746B8F1006F02D34448804501D3D4
:100DE000BDE8F09F00F06AF9A8F1006B4FEADB253F
:100DF000CBF34909C9F58064A74200DC3C464EE0CC
:100E00004FF0006101EBC5204A143949FFF7CCFFD0
:100E100000260BE009EB0600354931F81000A0F57B
:100E20007F41FF3900D003E0701C86B2A642F1DB9F
:100E300000BFA6421BDA4FF0006101EBC52000F0B5
:100E4000CDF8002608E03AF8160006EB0901284A1A
:100E500022F81100701C86B2A642F4DB4FF000614C
:100E600001EBC5204A142249FFF773FF04E0224634
:100E700051464046FFF76DFFA74200D110E06D1CC0
:100E80004FF000090AEB440A08EB4408381B87B20C
:100E9000B7F5806F02DD4FF4806400E03C46AFE7B9
:100EA00000BF00F0CFF800BF9AE713B50446012257
:100EB00001A92046FFF789FF1CBD00007570646121
:100EC0007465206661696C6564212072657472794D
:100ED00020627920616E6F7468657220706F77652B
:100EE000726F6E2E2E2E0D0A000000000000080802
:100EF0004CF000202DE9F05F0546002092469B460D
:100F000088460646814640241BE02846414647461F
:100F1000224600F042F853465A46C01A914110D377
:100F200011461846224600F029F82D1A67EB0108F1
:100F30004F4622460120002100F020F817EB00095F
:100F40004E41201EA4F10104DFDC484631462A460A
:100F50004346BDE8F09F0000064C074D06E0E06800
:100F600040F0010394E8070098471034AC42F6D3F0
:100F7000FFF7C0F85C1900087C190008202A04DB80
:100F8000203A00FA02F1002070479140C2F120039C
:100F900020FA03F3194390407047202A04DB203ADB
:100FA00021FA02F00021704721FA02F3D040C2F189
:100FB0002002914008431946704700000249084446
:100FC000B0F8000C7047000000600040024A104476
:100FD000A0F8001C704700000060004070B5054696
:100FE00040F6FF76304600F075F8042813D10A4C1D
:100FF000206940F0020020616561206940F04000F6
:101000002061304600F066F8012804D0216941F6DD
:10101000FD721140216170BD00200240084904208A
:10102000CA68D20701D001207047CA68520701D5AB
:1010300002207047C968C906FBD50320704700002D
:10104000002002400248016941F0800101617047BF
:101050000020024004490A6822F010020A600A686F
:1010600002430A60704700000020024070B5064647
:101070000D460F2000F02EF804280FD1084C2069EF
:1010800040F00100206135800F2000F023F8012896
:1010900004D0216941F6FE721140216170BD00004B
:1010A0000020024004490A6802F038020A600A6817
:1010B00002430A60704700000020024003480249D2
:1010C00041600349416070472301674500200240A9
:1010D000AB89EFCD00B50346FFF7A0FF05E0FF2089
:1010E000401EFDD1FFF79AFF5B1E012802D1002BA5
:1010F000F5D101E0002B00D1052000BDF0B5CB7883
:101100000022DC0603F00F0301D58C7823430C8802
:101110000F2714F0FF0F4FF0010C1CD0D0F8005037
:101120000E880CFA02F42640A64210D1960007FA67
:1011300006FE25EA0E0E03FA06F5CE7845EA0E0500
:10114000282E00D14461CE78482E00D10461521C73
:10115000082AE5D305600A88FF2A1ED945680022BF
:1011600002F108060CFA06F40E882640A64210D1B9
:10117000960007FA06FE25EA0E0E03FA06F5CE786B
:1011800045EA0E05282E00D14461CE78482E00D1C4
:101190000461521C082AE3D34560F0BD41617047E9
:1011A0000161704702494CF6CC400860704700006E
:1011B0000030004002494AF6AA200860704700004B
:1011C0000030004001494860704700000030004096
:1011D0000149886070470000003000400149086004
:1011E0007047000000300040F0B50F23C27801784E
:1011F0004FF0E024012742B3D4F80C2D467802F4D6
:10120000E062C2F5E062120AC2F10405D3408278BE
:10121000AE401A40324315018A07D20E954021F0A4
:1012200003010B19D3F80064FF2191408E430D4058
:101230002E43C3F800640078410900F01F0004EB5E
:1012400081018740C1F80071F0BD01F01F008740A7
:10125000480904EB8000C0F88071F0BD02490843E2
:1012600002490860704700000000FA050CED00E03C
:10127000024A1140014302480160704780FFFF1F8E
:1012800008ED00E0034A516821F4404101435160F8
:101290007047000000100240044A0029D16901D0C3
:1012A000014300E08143D16170470000001002401B
:1012B000044A0029916901D0014300E08143916112
:1012C00070470000001002400B48016841F0010126
:1012D00001604168094A114041600168084A1140B3
:1012E0000160016821F4802101604268002122F43C
:1012F000FE02426081607047001002400000FFF86B
:10130000FFFFF6FE30B5204A5168204B11F00C016A
:1013100003D0042901D0082901D0036011E05168ED
:10132000022401F4701104EB91415468184D14F437
:10133000803F02D05468A40301D5694300E05943BB
:1013400001605168134B01F0F00109095C5C016810
:10135000E1404160546804F4E064240A1C5D21FA11
:1013600004F48460546804F46054E40A1B5DD940BA
:10137000C1605268074B02F44042920B1B1F9A5CFB
:10138000B1FBF2F1016130BD0010024000127A00A1
:1013900000093D004C190008034600205909094A7C
:1013A000012901D1116804E0022901D1116A00E08C
:1013B000516A03F01F02012393400B4200D0012029
:1013C00070470000001002400248406800F00C0026
:1013D0007047000000100240034A516821F0F001FC
:1013E0000143516070470000001002400B490A6839
:1013F00022F480320A600A68B0F5803F22F480222D
:101400000A6007D0B0F5802F03D1086840F4A0200F
:1014100008607047086840F48030F9E70010024027
:10142000034A516821F4E0610143516070470000B4
:1014300000100240034A516821F4605141EAC000A3
:101440005060704700100240014908667047000074
:1014500000004242034B5A68084322F47C121043B6
:101460005860704700100240034A516821F00301A0
:1014700001435160704700000010024030B50B4C32
:1014800040F2FF153120FFF787FF20706068401C95
:101490006060207810B96068A842F3D13120FFF76E
:1014A0007BFF002800D0012030BD0000400000205C
:1014B0000029018802D041F0400101E021F0400103
:1014C000018070470246128900200A4200D00120A4
:1014D0007047808970478181704770B502880B889A
:1014E0004E888C88CD8833432C430E8923434C8906
:1014F00033438D892343CC892B4302F44152234348
:1015000013430380828B22F400628283098A018262
:1015100070BD0A0A01219140C9430180704700292A
:10152000818902D041F4005101E021F40051818110
:1015300070470246128800200A4200D001207047FE
:1015400070B501F01F0501260024C1F3421306FA0D
:1015500005F2012B01D1838904E0022B01D1038A1A
:1015600000E0838A4FEA11210088134206FA01F64F
:1015700000EA060001D000B10124204670BD10B57C
:10158000C1F3421301F01F040121A140012B01D13D
:101590000C3004E0022B01D1103000E01430002A9E
:1015A000026801D00A4300E08A43026010BD0000D7
:1015B00030B50446008A85B00D464CF6FF710840F0
:1015C000E98801432182A0894EF6F3110840A988D9
:1015D0002A8911436A8902431143A181A08A4FF6E7
:1015E000FF410840A9890143A1826846FFF78AFEAE
:1015F0001048844201D1039800E002981921484321
:10160000296864228900B0FBF1F0B0FBF2F1090116
:101610000B096FF018056B43322500EB830005EBD7
:101620000010B0FBF2F000F00F000843208105B07D
:1016300030BD0000003801408088C0F308007047CA
:10164000C1F30801818070470FB4054B10B503A9A1
:10165000044A029800F018F810BC5DF814FB000072
:10166000A90700084800002002E008C8121F08C1AE
:10167000002AFAD170477047002001E001C1121F13
:10168000002AFBD1704700002DE9FF4F8DB09B462B
:101690000F460446002638E1252801D00F9959E06D
:1016A0000025641C9D49A84601222378203B02FAAC
:1016B00003F0084202D00543641CF6E720782E2888
:1016C00017D114F8010F45F004052A280ED06FF049
:1016D0002F022078A0F1300109290AD808EB8801EF
:1016E00002EB410100EB0108641CF2E757F8048BA0
:1016F000641C20786C280DD004DC4C2812D06A2899
:1017000011D104E074280DD07A280CD10AE045F4F8
:10171000001507E0617845F48015814202D1641C10
:1017200005F58015641C2278692A46D008DC002A59
:1017300070D0582A69D0632A11D0642A08D13CE0BD
:10174000702A69D0732A14D0752A5CD0782A5CD0AC
:101750000F9910465A46904706F10106D4E017F853
:10176000040B8DF8000000208DF80100E9460120EF
:1017700003E057F8049B4FF0FF3069074FF0000576
:1017800001D40AE06D1C45450DDA8542FADB19F8F3
:1017900005100029F6D106E06D1C8542FCDB19F826
:1017A00005100029F8D12E4404E019F8010B5A461F
:1017B0000F9990476D1EF8D2A6E00A200021CDE9CE
:1017C0000801C5F3025002280BD001CFC117002930
:1017D0000EDA4FF0000CD0EB0C006CEB01012D2366
:1017E00009E007F1070727F00707F7E80201EEE72E
:1017F0002B0504D52B238DF82830012330E0EB078F
:101800002ED02023F7E70A2000E010200021CDE9A8
:10181000080109E07DE0FFE71020002145F0040504
:10182000CDE908014FF00808C5F3025002281BD08B
:1018300001CF00214FF0000A2B0712D5702A19D0D2
:10184000DDE908C38CF0100C5CEA030C09D150EA06
:10185000010306D030238DF828308DF8292002238B
:101860009A46582A10D00AE0FF1D27F00707F7E82C
:101870000201DFE740228DF828204FF0010A28A25C
:101880000DF120090B9209E02AA2F9E7DDE908230E
:10189000FFF730FB0B9B9B5C09F8013D50EA01020E
:1018A000F4D1ADEB090000F120000890680701D4E5
:1018B0004FF001080899884502DDA8EB010000E01F
:1018C00000208046002506E00AA85A46405D0F9990
:1018D0009047761C6D1C5545F6DB04E030205A46D7
:1018E0000F999047761CB8F10001A8F10108F5DCCA
:1018F00005E019F8010B5A460F999047761C089994
:10190000481E08900029F4DC641C207800287FF42D
:10191000C3AE11B03046BDE8F08F000009280100C9
:101920003031323334353637383961626364656655
:101930000000000030313233343536373839414217
:101940004344454600000000020406080000000071
:101950000102030401020304060708097C190008B8
:10196000000000204C00000068160008C81900089C
:101970004C00002004FA000078160008323031379D
:101980002D30372D32382053512B594C5F3447209E
:1019900056312E3100000000000000000000000061
:1019A0000000000000000000000000000000000037
:1019B0000000000000000000000000000000000027
:0819C00000000000000000001F
:04000005080000ED02
:020000040800F2
:103000004857002001310008997300089B7300089D
:103010009F730008A3730008A77300080000000056
:10302000000000000000000000000000AD73000878
:10303000AB73000800000000AF730008B173000814
:10304000B9730008BB730008BD730008BF730008A4
:10305000DB730008DD730008DF730008E17300080C
:10306000E3730008E5730008E773000817310008F0
:103070001731000817310008173100081731000810
:10308000173100081731000817310008F9730008DC
:10309000FB730008FD730008FF730008017400084B
:1030A0000374000805740008077400080974000818
:1030B0000B74000883740008857400088774000886
:1030C000897400088B7400088D7400088F740008E0
:1030D000917400089374000841750008B3780008E3
:1030E0009D790008D9790008DB790008DFF80CD059
:1030F00009F056FC004800473B5A0008485700209A
:1031000005480047FEE7FEE7FEE7FEE7FEE7FEE7CD
:10311000FEE7FEE7FEE7FEE7ED30000810B506F03B
:103120006DFCFE48C078FE490872FE48C078012850
:1031300006D002280AD003280ED0042818D111E0A6
:10314000F94890F80001F649487212E0F64890F804
:103150000101F34948720CE0F34890F80201F0498C
:10316000487206E0F04890F80301ED49487200E02B
:1031700000BF00BF10BD10B506F040FCEB48006872
:1031800006F065F8E548C078012806D0022834D05A
:1031900003284AD0042879D15FE0E0480079E24969
:1031A00081F80001DD480079E1490870DE4890F8B7
:1031B0000001D8B9002004F0D4FF10B9002004F0B9
:1031C000D0FFDC484078042802D1012004F0C9FF78
:1031D000D8488078042802D1022004F0C2FFD548E4
:1031E000C078042802D1032004F0BBFF0020D1499D
:1031F000087048708870C87049E0C8480179CA48AA
:1032000080F80111C5480079C94948700220C949B0
:103210004870C54890F8010130B9012004F0A1FFC1
:1032200010B9012004F09DFF31E0BC480179BE488F
:1032300080F80211B9480079BD4988700220BD4963
:103240008870B94890F8020130B9022004F089FF73
:1032500010B9022004F085FF19E0B0480179B248A6
:1032600080F80311AD480079B149C8700220B14916
:10327000C870AD4890F8030130B9032004F071FF25
:1032800010B9032004F06DFF01E0FFE700BF00BFAD
:1032900006F0CFFB10BD70B506F0B0FB0826002489
:1032A00006E0A548211D405C00B903E0601CC4B2E3
:1032B000282CF6DB00BF2546002409E09E48211D8E
:1032C000425C3046711CCEB295490A54601CC4B2AF
:1032D000AC42F3DBE81C9949088070BD70B506F07C
:1032E0008DFB9248006805F0B2FF94480088C01E2C
:1032F000C5B2272D00DD2725002407E08749201DC2
:103300000A5C8D48211D4254601CC4B2AC42F5DBFE
:1033100000228948211D425406F08BFB70BD70B518
:1033200006F06CFB08257D48C27829466D1C7C4858
:1033300042547C48C078012806D0022814D00328C3
:1033400022D0042840D12FE000240AE07A4804F17A
:103350007C01425C2846691CCDB271490A54601C4C
:10336000C4B2062CF2DB30E000240AE0724904F11A
:1033700082000A5C2846691CCDB269490A54601C67
:10338000C4B2062CF2DB20E000240AE06A4904F112
:1033900088000A5C2846691CCDB261490A54601C49
:1033A000C4B2062CF2DB10E000240AE0624904F10A
:1033B0008E000A5C2846691CCDB259490A54601C2B
:1033C000C4B2062CF2DB00E000BF00BF70BD10B538
:1033D000044600205A49088001E009F0CFFD584812
:1033E0000088A042F9DB10BD10B506F007FB4F487E
:1033F000006805F02CFF4948C078012806D0022853
:1034000012D003281DD0042835D127E0002408E07D
:103410004249201D0A5C484804F17C014254601C6A
:10342000C4B2062CF4DB27E0002407E03B49201D52
:103430000A5C41497E300A54601CC4B2062CF5DB9C
:103440001AE0002407E03549201D0A5C3A4984301F
:103450000A54601CC4B2062CF5DB0DE0002407E022
:103460002E49201D0A5C34498A300A54601CC4B2BB
:10347000062CF5DB00E000BF00BF06F0DAFA10BD55
:1034800000B58BB0684605F02BFE2C2269462D480E
:1034900008F062FE2B48808A2B4908802948008A60
:1034A000401C2A49088027488089294908802548E6
:1034B000007A284908702348007927490870214874
:1034C0000078264908700BB000BD70B5FFF7D8FF33
:1034D0001F20164908600846008800040860084656
:1034E000006805F0B4FE06F089FA01201C49088046
:1034F00032201C49088001201B4908801B49088094
:103500001B49086000201B490870487088701A49E0
:103510000870487088705920184931E0AC080020C4
:103520001C320020AC0600201C3C00203C01002086
:10353000E0000020E40000201C3D00205E00002090
:10354000B800002080060020340000203600002053
:10355000380000203C0000203D0000203E000020FC
:1035600082000020840000209400002092000020AF
:103570008800002096000020990000208D00002087
:10358000087053204870462088705320C87000206F
:103590000871FE4908704FF4E170FD490880002071
:1035A0004880052088800A20C8804FF6FF70088177
:1035B0000020F8490870F84908700120F7490870A0
:1035C000F74908703C2048700320F6490870012034
:1035D0004870022088700020C8700024F2480278E9
:1035E0002146641CF1484254EF48008802122146EB
:1035F000641CEE484254EE4802782146641CEB48B5
:103600004254EB48008802122146641CE7484254A9
:10361000E8480088C2B22146641CE4484254E548A8
:10362000008802122146641CE04842546424DD48AC
:1036300002782146641CDD484254DA48427820462C
:10364000611CCCB2D9490A54D64882782046611C04
:10365000CCB2D6490A54D348C2782046611CCCB2B9
:10366000D2490A54D4480088C2B22046611CCCB268
:10367000CE490A54D048008802122046611CCCB2C0
:10368000CA490A54CD4802782046611CCCB2C749C9
:103690000A54CA480088C0F307222046611CCCB2F5
:1036A000C2490A54C5480068C0F307422046611C5D
:1036B000CCB2BE490A54C1480068020E2046611CC3
:1036C000CCB2BA490A546E24BD4802782146641C23
:1036D000B6484254BA4842782046611CCCB2B3493D
:1036E0000A54B74882782046611CCCB2AF490A54CC
:1036F000B44802782046611CCCB2AC490A54B148A7
:1037000042782046611CCCB2A8490A54AD48827860
:103710002046611CCCB2A5490A54AB480278204629
:10372000611CCCB2A1490A54A74842782046611CCA
:10373000CCB29E490A54A44882782046611CCCB27F
:103740009A490A54A048C2782046611CCCB29749D5
:103750000A548E4802782046611CCCB293490A5420
:1037600079248B480088C2B22146641C8F48425499
:103770008748008802122046611CCCB28B490A544B
:1037800083484088C2B22046611CCCB287490A54A3
:103790007F48408802122046611CCCB283490A54FB
:1037A0007B488088C2B22046611CCCB27F490A5453
:1037B0007748808802122046611CCCB27B490A54AB
:1037C0007348C088C2B22046611CCCB277490A5403
:1037D0006F48C08802122046611CCCB273490A545B
:1037E0006B480089C2B22046611CCCB26F490A54B2
:1037F0006748008902122046611CCCB26B490A540A
:10380000644802782046611CCCB268490A54624878
:1038100002782046611CCCB264490A545F480278A1
:103820002046611CCCB261490A545D4802782046AA
:10383000611CCCB25D490A54594842782046611C4B
:10384000CCB25A490A5401206049087000204870DF
:103850008870C8705E4908705E4908705E490870DB
:1038600075205E4908709E204870D8208870FA2024
:10387000C870D920087111204871752088719E2167
:103880005648C171D8210172FA21417279218172A1
:103890006921C1727520514908739E214F484173B7
:1038A000D8218173FA21C173E42101740721417485
:1038B00075204A4988749E214848C174D8210175F1
:1038C000FA214175E42181750721C17500243F4823
:1038D00002782146641C424842543C4842782146C2
:1038E000641C3F484254394882782146641C3C4855
:1038F00042543648C2782146641C3948425400BFBD
:10390000334802782146641C354842542C243148FF
:1039100002782146641C3248425454242E480278CE
:103920002146641C2E4842547C242C4802782146AF
:10393000641C2B484254294842782046611CCCB272
:1039400027490A54254882782046611CCCB2244974
:103950000A542248C2782046611CCCB220490A543D
:103960001E4802792046611CCCB21D490A541B48EE
:1039700042792046611CCCB219490A541748827911
:103980002046611CCCB216490A542BE08C00002062
:1039900022280020350100203401002036010020BB
:1039A00037010020B8020020820000201C3C0020CB
:1039B0008400002094000020920000208800002055
:1039C00096000020990000208D000020E0000020DB
:1039D000062A00202E2A0020562A0020EE29002048
:1039E0001C3D0020FE48C2792046611CCCB2FD4936
:1039F0000A54FB48027A2046611CCCB2F9490A54A9
:103A0000F748427A2146601CC4B2F6484254F44852
:103A1000827A2046611CCCB2F2490A54F048C27A3C
:103A20002046611CCCB2EF490A54ED48027B214686
:103A3000601CC4B2EB484254E948427B2046611CFA
:103A4000CCB2E8490A54E648827B2046611CCCB2DD
:103A5000E4490A54E248C27B2046611CCCB2E149E9
:103A60000A54DF48027C2046611CCCB2DD490A546E
:103A7000DB48427C2046611CCCB2DA490A54D84863
:103A8000827C2146601CC4B2D6484254D448C27CD1
:103A90002046611CCCB2D3490A54D148027D20464D
:103AA000611CCCB2CF490A54CD48427D2046611CEE
:103AB000CCB2CC490A54CA48827D2046611CCCB2A3
:103AC000C8490A54C648C27D2046611CCCB2C549CB
:103AD0000A54002404E0FF21C3480155601CC4B20D
:103AE000FF2CF8DBFF21C14880F8FF12C048008896
:103AF000642190FBF1F0BF490870BD480088642143
:103B000090FBF1F201FB1200BA494870BA480088F4
:103B10008870BA480088C870B94800780871B948F8
:103B200000784871B84800788871084605F000FDB3
:103B3000B649086008460068B5490988B0FBF1F24B
:103B400001FB1200B1490968081AB049086008462B
:103B5000008881B2282009F07BF8AC480068010C8D
:103B6000402009F075F805F064FF0020A149887134
:103B7000084605F0DDFC05462946002005F027FD36
:103B8000A44908600846006805F061FB994805F003
:103B9000CFFC05462946012005F019FD9D49086026
:103BA0000846006805F053FBAA2070BD10B5FFF76A
:103BB00067FC8F480088642190FBF1F201FB120042
:103BC000954908728C48008848728C480088887231
:103BD0008B480078C8728B48007808738A48007850
:103BE000487310BD00B587B08C4800798B49C978FF
:103BF00001EBC10202EB011100EB81008849486131
:103C000086484079401E086184488079C8608348AE
:103C1000C07988608148007A48608048407A0860AE
:103C2000084600887F4908801C227D49103168467B
:103C300008F092FA7A480FC805F06DFA4AF2A551D9
:103C4000042009F005F807B000BD10B50022734844
:103C50000078754C2080002105E07048405C1044DD
:103C600082B2481C81B2714800888142F5DB084667
:103C70004C1CA1B2694C235C08464C1CA1B2674C99
:103C8000205C03EB002083B29A4201D1002010BDDA
:103C90004FF0FF30FBE770B530206549087065488C
:103CA000007828B93020644908706449087013E02E
:103CB00060480078012806D132205F490870302022
:103CC0005E49087008E05B480078022804D1322081
:103CD00059490870594908705948006808F098FC1B
:103CE00004464FF03332574B08F0BAFC03D233206E
:103CF0005549087010E05248006808F089FC0446F5
:103D00000022524B08F098FC03D234204E49087030
:103D100002E030204C4908704D494E48006808F0D8
:103D2000D9FC03D233204C4908700CE04B49494878
:103D3000006808F0C5FC03D234204749087002E04F
:103D400030204549087070BD2DE9F04FADF6740D77
:103D500006460F460020CDF870084FF47A78814669
:103D6000CDF86C088246CDF868088346CDF8640823
:103D7000CDF86008CDF85C08CDF85808CDF85408A7
:103D8000CDF85008CDF84C08CDF84808CDF84408D7
:103D9000CDF840084FF4006110A808F0F6F930485B
:103DA00000880F902E4840880E902D4880880D90F6
:103DB0002B48C0880C902A4800890B9028484089DD
:103DC0000A90274880890990002008900790069063
:103DD000059004900F2003900A200290019041E08A
:103DE000EE2900201C3D00201C3E00201C3C002031
:103DF0003400002008010020360000203800002098
:103E00003C0000203D0000203E000020300100204A
:103E10003A0100203C0100201C320020AC080020A8
:103E200080060020A8000020600000205E00002026
:103E30007C000020A00000207D00002080000020E9
:103E40007400002033332B407E0000200000274008
:103E50000000A042780000207F000020000020C267
:103E6000D8020020002442E037F814100398814261
:103E70003CDD012010A941F82400022C11DA0025B4
:103E80000BE037F815100298814201DD012000E0B7
:103E9000002010A941F825006D1CE01C8542F0DBD4
:103EA00024E0F01EA04210DAA51E0BE037F8151032
:103EB0000298814201DD012000E0002010A941F8B4
:103EC00025006D1CB542F1DB10E0A51E0BE037F8B4
:103ED00015100298814201DD012000E0002010A9A8
:103EE00041F825006D1CE01C8542F0DB641CB442E7
:103EF000BADB012414E010A850F8240001280ED1E8
:103F000010A9601C51F8200048B9A01C51F82000ED
:103F1000012804D1012110AA601C42F82010641C61
:103F2000B01EA042E7DC002406E010A850F82410E0
:103F3000089808440890641CB442F6DB741EE3E061
:103F4000B9F1000F08D110A850F82400012803D1BE
:103F5000601C1FFA80F9D6E0B9F1000F09D0B8F55E
:103F60007A7F06D110A850F8240010B9601C1FFAFF
:103F700080F8BAF1000F0AD1B8F57A7F07D010A8FF
:103F800050F82400012802D1601C1FFA80FABAF10F
:103F9000000F0AD0DDF86C0838B910A850F82400DA
:103FA00018B9601C80B2CDF86C08BBF1000F0AD1C3
:103FB000DDF86C0838B110A850F82400012802D1AF
:103FC000601C1FFA80FBBBF1000F0AD0DDF8680807
:103FD00038B910A850F8240018B9601C80B2CDF888
:103FE0006808DDF8600858B9DDF8680840B110A825
:103FF00050F82400012803D1601C80B2CDF860087D
:10400000DDF8600850B1DDF8640838B910A850F840
:10401000240018B9601C80B2CDF86408DDF8580897
:1040200058B9DDF8640840B110A850F82400012800
:1040300003D1601C80B2CDF85808DDF8580850B1A3
:10404000DDF85C0838B910A850F8240018B9601CD5
:1040500080B2CDF85C08DDF8500858B9DDF85C088E
:1040600040B110A850F82400012803D1601C80B290
:10407000CDF85008DDF8500850B1DDF8540838B9D3
:1040800010A850F8240018B9601C80B2CDF854086C
:10409000DDF8480858B9DDF8540840B110A850F8C8
:1040A0002400012803D1601C80B2CDF84808DDF857
:1040B000480850B1DDF84C0838B910A850F8240071
:1040C00018B9601C80B2CDF84C08DDF8400858B92A
:1040D000DDF84C0840B110A850F82400012803D1A5
:1040E000601C80B2CDF84008DDF8400850B1DDF822
:1040F000440838B910A850F8240018B9601C80B2E0
:10410000CDF8440800BF641E002CBFF619AFB9F10A
:10411000000F04D0B8F57A7F01D14FF00008B8F550
:104120007A7F01D14FF00008B9F1000F01D00120D2
:1041300000E00020BAF1000F01D0012100E00021D1
:104140000844BBF1000F01D0012100E0002101442F
:10415000DDF8600808B1012000E000200144DDF82E
:10416000580808B1012000E000200144DDF85008A3
:1041700008B1012000E000200144DDF8480808B142
:10418000012000E000200144DDF8400808B10120D2
:1041900000E000200844CDF87008FE49DDF8700802
:1041A00008800846A0F80280A0F80490DDF86C08AA
:1041B000C8800846A0F808A0DDF8680848810846CD
:1041C000A0F80CB0DDF86408C881DDF8600808824A
:1041D000DDF85C084882DDF858088882DDF854086C
:1041E000C882DDF850080883DDF84C084883DDF804
:1041F00048088883DDF84408C883DDF8400808844F
:1042000008468088952801D1962088800120049056
:10421000049850B1112404E00120DE4921F8140073
:10422000641C06F11100A042F6DCDA480DF6740DAC
:10423000BDE8F08F70B5D8490988D84A1288514333
:10424000491E88B2D649FFF77FFD0646002406E0E6
:1042500036F81400D34921F81400601CC4B2112CA4
:10426000F6DBCD480088CD4909884843103085B237
:10427000002407E006EB440090F82200CA490855E4
:10428000601CC4B2AC42F5DBC6480088C749097857
:1042900088420CDD002408E0C249601C31F810009F
:1042A000C34921F81400601CC4B2102CF4DB0024B4
:1042B0001EE13020BF4901F81400012101EB440147
:1042C000BC4A5054B7480088A0427DDD012101EB73
:1042D0004401B44A32F811104FEA4402B44B33F8A7
:1042E0001220881A01D4014600E041428DB2B24842
:1042F0008088A8420EDAB0488088A0F57F41FF3957
:1043000008D0AC4810F81400312803DA3120A9494C
:1043100001F81400A848C088A8420EDAA648C08850
:10432000A0F57F41FF3908D0A24810F814003228C8
:1043300003DA32209F4901F814009F480089A842FF
:104340000EDD9D480089A0F57F41FF3908D09948CE
:1043500010F81400322803DA3220964901F81400CC
:10436000012000EB44008F4931F810009249098880
:1043700088420EDD90480088A0F57F41FF3908D0C3
:104380008C4810F81400322803DA3220894901F8E9
:104390001400012000EB4400824931F810008649E6
:1043A000498888420EDA84484088A0F57F41FF3969
:1043B00008D0804810F81400322803DA32207D49F2
:1043C00001F81400022100E090E001EB4401754A7D
:1043D00032F811104FF0010202EB4402744B33F833
:1043E0001220881A01D4014600E041428DB2724881
:1043F0008088A84212DA70488088A0F57F41FF3992
:104400000CD0012000EB44006A49085C312805DA31
:104410003120012101EB4401664A50546648C088AE
:10442000A84212DA6448C088A0F57F41FF390CD059
:10443000012000EB44005F49085C322805DA322095
:10444000012101EB44015B4A50545B480089A842BA
:1044500012DD59480089A0F57F41FF390CD00120B9
:1044600000EB44005349085C322805DA3220012170
:1044700001EB44014F4A5054022000EB44004949EB
:1044800031F810004C490988884212DD4A480088FA
:10449000A0F57F41FF390CD0012000EB44004549D5
:1044A000085C322805DA3220012101EB4401414A3F
:1044B0005054022000EB44003A4931F810003E49C4
:1044C0004988884212DA3C484088A0F57F41FF398C
:1044D0000CD0012000EB44003649085C322805DA94
:1044E0003220012101EB4401324A5054601CC4B215
:1044F000082CFFF6DEAE2B4800782C49087000240B
:1045000008E02849601C31F81000294921F81400FE
:10451000601CC4B2102CF4DB70BD70B52748007865
:1045200010B9FFF787FE0EE024480078012803D178
:1045300009201E49087006E020480078022802D1B0
:104540000A201A490870FFF7A6FB00201B490870D3
:1045500002241B480088642190FBF1F0C2B221467E
:10456000641C1848425416480088642190FBF1F2FC
:1045700001FB1200C2B22146641C12484254124888
:104580000088C2B22146641C0E4842540F4800887D
:10459000C2B21DE0D802002082000020840000206A
:1045A000D0230020F02700202C28002081000020AC
:1045B000D02700201228002022280020A000002060
:1045C000340000201C33002036000020380000207A
:1045D0002146641CFE484254FE4802782146641C71
:1045E000FB484254FC4802782146641CF848425477
:1045F000FA4802782046611CCCB2F5490A540025DD
:1046000012E0F74810F815202046611CCCB2F049A2
:104610000A54F34830F8150002122046611CCCB24F
:10462000EB490A54681CC5B2102DEADB002508E0EE
:10463000EC48425D2046611CCCB2E5490A54681C36
:10464000C5B2102DF4DB392401222146641CE04858
:104650004254E54802782146641CDD484254E34850
:1046600002782046611CCCB2D9490A54E04802784D
:104670002046611CCCB2D6490A54DE480278204656
:10468000611CCCB2D2490A54DB4802782046611C36
:10469000CCB2CF490A540846047020124870002555
:1046A0000DE0CB4890F83C00302806D0C84890F880
:1046B0003900401CC64981F83900681CC5B2042D78
:1046C000EFDBC34890F83C0030B1C14890F83900A6
:1046D000401CBF4981F83900204670BD2DE9FC5FC0
:1046E000C6480088C64909884843401E4FF6FF71F6
:1046F00001EA400A0224C3480088642190FBF1F0DB
:10470000C2B22146641CB2484254BE4800886421AB
:1047100090FBF1F201FB1200C2B22146641CAC48CE
:104720004254B9480088C2B22146641CA848425489
:10473000B6480088C2B22146641CA5484254A54828
:1047400002782146641CA2484254A34802782146BC
:10475000641C9F484254002509E0AD49A81D0A5C2D
:104760002046611C8CB29A490A54681C85B2554592
:10477000F3DBA849A848006807F047FD834607F027
:1047800047FF0022A54BCDE9000107F074FD074665
:1047900007F025FF1FFA80F92046611C8CB28C4976
:1047A00001F800904FEA29222046611C8CB288490A
:1047B0000A5400219A48006807F08CFF12D89549E6
:1047C0009748006807F021FD834607F021FF074660
:1047D0000022924B07F04FFDCDE9000107F0E0FE0B
:1047E00006B211E08B498E48006807F00EFD834643
:1047F00007F00EFF0022894BCDE9000107F0DCFD38
:10480000074607F0CDFE06B22046611C8CB2704907
:104810000E54C6F307222046611C8CB26C490A5420
:10482000002512E07F4810F815202046611C8CB24C
:1048300067490A547B4830F8150002122046611C73
:104840008CB263490A54681C85B2112DEADB6049B9
:104850000C70201248704FEA6A0A2046BDE8FC9F9F
:1048600010B5664B1B88664C248863435B1E4FF66D
:10487000FF7404EA43026C49002005E0644C831D88
:10488000E35C0B54431C98B29042F7DB10BD10B5AB
:1048900000225F4800785E4C647800EB0420634C93
:1048A0002080002105E05A48405C104482B2481C38
:1048B00081B25F4800888142F5DB08464C1CA1B2FA
:1048C000534C235C08464C1CA1B2514C205C03EBBA
:1048D000002083B29A4201D1002010BD4FF0FF307A
:1048E000FBE710B5044653480460012008F0ABFD17
:1048F00001E008F043FB4F4800680028F9D1801E12
:1049000008F0A1FD002008F09EFD10BD2DE9F0414A
:1049100001221021484808F023FB0024AA22214646
:10492000641C4648425442480088C2B22146641C76
:10493000424842543E48008802122146641C3F48C7
:1049400042543A480088C2B22146641C3B48425453
:104950003648008802122146641C384842543848C0
:104960000088C2B22146641C34484254344800884E
:1049700002122146641C3148425432480088C2B2B7
:104980002046611CCCB22D490A542E4800880212E0
:104990002046611CCCB229490A54002524480088CD
:1049A000C01CC7B2032405E02448005D284485B23A
:1049B000601CC4B2BC42F7DB2046611CCCB21F496C
:1049C0000D542A122046611CCCB21C490A543BE00B
:1049D0001C3300203C0000203D000020810000200E
:1049E000D0270020122800207C0000207D0000201D
:1049F0007E0000207F000020800000208200002038
:104A00008400002034000020360000203800002000
:104A1000880F002000002041740000200000E03FCB
:104A200078000020F0270020D02300207000002014
:104A30006E0000202800002000100140881F002088
:104A40009200002094000020DD222046611CCCB2A0
:104A5000FE490A540020FE490880FE4804800122D5
:104A600040F22771FC4808F07BFDFC48068802E014
:104A700008F084FA00BFF6480088F64909888842A1
:104A800004DAF6480088801B0628F1DB0120FFF7D6
:104A900028FF00221021F24808F062FA8020F14934
:104AA0000880BDE8F08170B5EF480088002834D157
:104AB000EE480088EE4909884843401E85B2A81D8B
:104AC000EC490880EC48007870B9EC48007858B997
:104AD000002406E00121DD4A04F109001154601CA4
:104AE00084B2AC42F6DB0BE0002407E0E448015D51
:104AF000D64A04F109001154601C84B2AC42F5DBC3
:104B000045F28610DF4908808020D6490880FFF7EB
:104B1000FDFED2480088D4490880D0480088D24998
:104B20000988401A10281BDACE48008887281CD133
:104B3000FFF7ADFE00280EDBD2480088A0F5A241A9
:104B4000063903D10020C849088070BD0020C6493D
:104B50000880401EF9E70020C3490880401EF4E7A2
:104B60000020C1490880401EEFE70220EDE72DE953
:104B7000F04F8BB04FF00008C14640F6FF7AD346A5
:104B800000250026002442E0002000EB4400BE493E
:104B900031F810000544002000EB440031F810000B
:104BA000404504DD002000EB440031F81080002077
:104BB00000EB4400B44931F81000504504DA0020FD
:104BC00000EB440031F810A0012000EB4400AE4996
:104BD00031F810000644012000EB440031F81000C9
:104BE000484504DD012000EB440031F8109001201D
:104BF00000EB4400A44931F81000584504DA0120C4
:104C000000EB440031F810B008F0B8F9641C122C25
:104C1000BADBA5EB0800A0EB0A00C0F30B15A6EB6E
:104C20000900A0EB0B00C0F30B16284607F0ABFC05
:104C3000964A974BCDE9040107F0C4FB0022954B3F
:104C4000CDE9060107F030FCCDE9080107F01CFDB5
:104C500091490860304607F096FC904A904BCDE9A8
:104C6000040107F0AFFB00228A4BCDE9060107F0F3
:104C70001BFCCDE9080107F007FD0746384607F0A1
:104C8000C7FC884A884BCDE9000107F098FB002259
:104C9000864BCDE9020107F095FB0022844BCDE95C
:104CA000040107F001FC0022824BCDE9060107F068
:104CB000E2FACDE9080107F0E7FC7F4908600BB094
:104CC000BDE8F08F10B57D48008878B906206949A5
:104CD000088045F286006B49088080206149088081
:104CE000FFF714FE5D4800887449088009E008F069
:104CF00045F95C480088872803D100206F49088067
:104D000010BD564800886D490988401A0228EEDB1C
:104D100000206A490880401EF2E770B5684804F038
:104D200007FC0446282007F08BFF0546402007F0CB
:104D300087FF05EB00406349086008460068A04211
:104D400005D80846006860490844A0420CD25D4876
:104D50000460008881B2282007F07AFF5948006873
:104D6000010C402007F074FF70BD3EB501222021E8
:104D70003B4808F0F5F800220821394808F0F0F81F
:104D800000221021364808F0EBF880204F490880B7
:104D90004F49088033490880002404E024204D490D
:104DA0000855601C84B2B4F5006FF7DB4A494BA08C
:104DB00008F03AFC0120FEF70AFBFEF761FB4948C8
:104DC00000784949088049480088642190FBF1F047
:104DD0003B49087045480088642190FBF1F201FBD3
:104DE000120037494870424800888870414800885E
:104DF000C8702148007808712048007848713B4805
:104E00000088642190FBF1F03B4908703748008826
:104E1000642190FBF1F201FB1200374948703448DD
:104E20000088887033480088C8701348007808717B
:104E3000124800780A2190FBF1F201FB12000F49A1
:104E40000978081A2C494871002057E0881F002073
:104E5000640000206200002000480040AA000020FA
:104E6000001001406A0000202E0000208200002077
:104E7000840000206E0000203C0000203D00002047
:104E80002C2800207000002088230020EC51B81E40
:104E9000852B30400000B040740000204E62105856
:104EA00039B40A40B81E85EB51B8F63F0088C340BC
:104EB0000080454000003940780000202C00002090
:104EC0000801002030010020008D27004A0000204A
:104ED0005A0000201C3F0020000000200D0A25730E
:104EE0000D0A00003E000020A80000203400002031
:104EF0003600002038000020160100208871FA4892
:104F00000078FA490978FA4A1278CDE9002102902E
:104F1000F8480388F8480288F8480188F8A008F0A3
:104F200083FBBC2007F08CFEC0B2AB2803D100216C
:104F3000BC2007F08DFEFE48007804F0BEFBFD4962
:104F400008800846008800EB80004FF6FF7101EAF8
:104F50004000F84908800120F7490870FFF7DDFE9E
:104F6000002404E00120F5490855601C84B2B4F522
:104F7000E17FF7DB3EBD70B504F040FD0024214623
:104F8000641CEF48405CEF4908802146641CEC48F3
:104F9000405CEC49098801EB0020EA490880214681
:104FA000641CE748405CE84908802146641CE448EA
:104FB000405CE549098801EB0020E349088021466F
:104FC000641CDF48405CE14908802146641CDC48E1
:104FD000405CDE49098801EB0020DC49088064243C
:104FE000D74890F86400082820DAD54890F8650082
:104FF00001281BD1D24890F86600032816DAD04861
:1050000090F86700022811DACD4890F86400D04982
:105010000870CB4890F865004870C94890F8660061
:105020008870C74890F86700C87008E00320C84936
:10503000087002208870012048700020C870682421
:105040002146641CBE48405CC24908802046611C61
:10505000CCB2BB49085CBF49098801EB0020BD49BF
:1050600008802046611CCCB2B549085CBA4908608A
:105070002046611CCCB2B249085CB749096801EB13
:105080000020B54908602046611CCCB2AC49085CE0
:10509000B149096801EB0040AF4908602046611C36
:1050A000CCB2A749085CAC49096801EB0060AA4989
:1050B00008602046611CCCB2A149085CA749087071
:1050C0002046611CCCB29E49085CA4494870204629
:1050D000611CCCB29A49085CA04988702046611CCA
:1050E000CCB29749085C9E4908702046611CCCB23E
:1050F0009349085C9A4948702046611CCCB290499B
:10510000085C974988702046611CCCB28C49085CC9
:10511000944908702046611CCCB28949085C9149C9
:1051200048702046611CCCB28549085C8D49887066
:105130002046611CCCB28249085C8A49C87020466E
:10514000611CCCB27E49085C874908702046611C0E
:10515000CCB27B49085C8549088008460288204615
:10516000611CCCB27649085C02EB00207F490880C4
:105170002046611CCCB27249085C7C4948800846D4
:1051800042882046611CCCB26D49085C02EB0020CD
:10519000764948802046611CCCB26949085C734955
:1051A0008880084682882046611CCCB26449085C2D
:1051B00002EB00206D4988802046611CCCB260491A
:1051C000085C6A49C8800846C2882046611CCCB287
:1051D0005B49085C02EB00206449C8802046611CE2
:1051E000CCB25749085C61490881084602892046CB
:1051F000611CCCB25249085C02EB00205B4908817B
:105200002046611CCCB24E49085C594908702046C2
:10521000611CCCB24A49085C564908702046611CA2
:10522000CCB24749085C424908702046611CCCB2A8
:105230004349085C504908702046611CCCB2404983
:10524000085C4D49487000242146641C4B48405C72
:105250004B4908702146641C4848405C48494870E6
:105260002146641C4548405C454988702146641CC1
:105270004248405C4249C870002508E02046611C55
:10528000CCB23E49085C3F494855681CC5B2282D40
:10529000F4DB002508E02046611CCCB23749085CED
:1052A00039494855681CC5B2282DF4DB002508E0B3
:1052B0002046611CCCB23149085C34494855681C11
:1052C000C5B2282DF4DB00202E4981F827002E4995
:1052D00081F827002D4981F827002046611CCCB2B7
:1052E0002649085C2A4955E03E0000203D00002088
:1052F0003C00002038000020360000203400002050
:10530000253034642D253032642D2530326420253B
:105310003032643A253032643A2530326420537991
:105320007374656D205265736574210D0A00000069
:10533000360100203A0100209F0000202C28002088
:105340001C3C0020820000208400002094000020EB
:10535000B802002092000020880000209600002063
:10536000990000208D0000208C00002022280020C1
:105370003501002034010020370100201C3D0020B1
:10538000E0000020062A00202E2A0020562A0020B5
:10539000EE29002008702046611CCCB2FE49085C52
:1053A000FE4948702046611CCCB2FB49085CFB49B1
:1053B00088702046611CCCB2F749085CF749C87078
:1053C0002046611CCCB2F449085CF44908712046BF
:1053D000611CCCB2F049085CF04948712046611C60
:1053E000CCB2ED49085CED4988712046611CCCB215
:1053F000E949095CE948C1712046611CCCB2E64923
:10540000095CE64801722046611CCCB2E249095CA5
:10541000E24841722046611CCCB2DF49095CDF489A
:1054200081722046611CCCB2DB49095CDB48C17249
:105430002046611CCCB2D849085CD8490873204684
:10544000611CCCB2D449095CD44841732046611C2C
:10545000CCB2D149095CD14881732046611CCCB2E1
:10546000CD49095CCD48C1732046611CCCB2CA4904
:10547000095CCA4801742046611CCCB2C649095C6B
:10548000C64841742046611CCCB2C349085CC3497C
:1054900088742046611CCCB2BF49095CBF48C17406
:1054A0002046611CCCB2BC49095CBC480175204651
:1054B000611CCCB2B849095CB84841752046611CF2
:1054C000CCB2B549095CB54881752046611CCCB2A7
:1054D000B149095CB148C17504F05AFB70BD00B513
:1054E00091B000200C9001208DF834008DF835002B
:1054F0004FF460200E9000200F9002208DF84000A5
:105500000CA9A74807F010FB012007F07FFB072339
:1055100001220821A24807F02BFB072302221021B9
:105520009F4807F025FB01219D4807F0DAFA012189
:105530009B4807F0E0FA9A4807F054FB00BF9848F0
:1055400007F0EAFA0028FAD1954807F05AFB00BFA5
:10555000934807F0DAFA0028FAD10121904807F0C1
:1055600046FB0121084607F081FD8E4807F082FBCB
:105570008B484C3001908C480290002003902420EE
:105580000490002005908020069040000790800045
:1055900008902020099000020A9000200B9001A999
:1055A000804807F0D7FB01217E4807F059FB11B076
:1055B00000BD0EB542F20F70ADF8040041F61F4079
:1055C000ADF800000020ADF80600ADF80200694615
:1055D0004FF0804007F070FF0121880707F055FF6A
:1055E00001221146900707F05EFF0121880707F0AE
:1055F0004FFF0EBD1FB54FF4165000900020ADF8C0
:105600000400ADF80600ADF80800ADF80C000C2061
:10561000ADF80A006946654807F0BAFF4FF4E1307B
:1056200000906946624807F0B3FF4FF416500090AF
:105630006946604807F0ACFF012240F225515B4803
:1056400007F08EFF012240F22551594807F088FFEC
:10565000012240F22551574807F082FF01215348AB
:1056600007F04EFF0121524807F04AFF012151483F
:1056700007F046FF1FBD10B5042007F0D8FE4E48C6
:1056800007F0FFFE012007F0F0FE10BD00B587B067
:1056900001214FF0C05007F0F5FC012007F0D6FCC7
:1056A000042007F0CDFAA0F52541A53950D007F028
:1056B000BDFA012007F0B0FD00BF412007F068FDF2
:1056C0000028FAD04FF4807007F0E0FD012007F0C9
:1056D000D7FD07F06BFE07F05FFE4FF4FB60374924
:1056E0004861002008610120C8600020886048608F
:1056F00008601C221031684606F02EFD2F480FC8A6
:1057000003F009FD0821142007F0A2FA0121182056
:1057100007F09EFA01211C2007F09AFA00212020B0
:1057200007F096FA0021242007F092FA4AF2A551D8
:10573000042007F08DFA0121084607F001FE07F06A
:105740002BFE47F6FF7007F017FE07F025FE09E075
:1057500007F02CFE07F020FE0121084607F0F0FDBF
:1057600007F01AFE07B000BD0EB5F820ADF808002E
:1057700003208DF80A0010208DF80B0002A91048B4
:1057800007F08CFB0220ADF8080003208DF80A001A
:1057900010208DF80B0015E01C3D0020EE290020A4
:1057A0000024014008000240882300200038014006
:1057B000004400400048004080FC0A0080060020B1
:1057C0000010014002A9FE4807F068FB0122802179
:1057D000FC4807F0C5FB4FF48060ADF808000420DA
:1057E0008DF80B0002A9F64807F058FB0820ADF829
:1057F000080048208DF80B0002A9F14807F04EFB85
:105800004FF40060ADF8080004208DF80B0002A9E9
:10581000ED4807F043FB4FF40070ADF8080003209B
:105820008DF80A0018208DF80B0002A9E44807F053
:1058300035FB0420ADF8080002A9E14807F02EFB73
:105840004FF48060ADF8080002A9DF4807F026FB9E
:105850000120ADF8080000208DF80B0002A9DA48FD
:1058600007F01CFB4FF48050ADF8080003208DF8C2
:105870000A0004208DF80B0002A9D34807F00EFBA4
:105880000C21012007F0F6FA4FF480500090002020
:105890008DF804000C208DF8050001208DF806001D
:1058A000684607F089FA0EBD10B545F2555007F06D
:1058B00079FB032007F06AFB40F2E24007F06CFB43
:1058C00007F05CFB07F052FB10BD08B5BF494FF075
:1058D000006007F0B1FB4FF4C06007F0A3FB0320AA
:1058E0008DF8000000208DF8010002208DF80200E4
:1058F00001208DF80300684607F05AFB25208DF83B
:10590000000001208DF8010003208DF80200012025
:105910008DF80300684607F04BFB26208DF8000049
:1059200004208DF8020001208DF80300684607F07E
:105930003FFB27208DF8000005208DF80200012094
:105940008DF80300684607F033FB28208DF800002F
:1059500000208DF801008DF8020001208DF8030071
:10596000684607F025FB00208DF8000001208DF827
:105970000100684607F01CFB12208DF80000002093
:105980008DF801008DF8020001208DF803006846B3
:1059900007F00EFB1C208DF8000000208DF80100A0
:1059A00001208DF802008DF80300684607F000FB27
:1059B00008BD10B507F084FB4FF4803007F012FCEF
:1059C00007F076FC0446012C28D1102007F03AFAA3
:1059D000022007F043FA002007F0FAFB002007F04E
:1059E00035FCA00207F028FC4FF4404007F034FBE0
:1059F0004FF4E011200407F039FC012007F030FCDF
:105A000000BF392007F0C4FB0028FAD0022007F0BD
:105A100045FC00BF07F0D4FB0828FBD1012144F26C
:105A20001D2007F03BFB01214FF4C02007F02AFBAB
:105A30000121084607F026FB10BDFFF7BAFFFFF76C
:105A400044FFFFF731FFFFF78FFEFFF71FFEFFF761
:105A500012FEFFF7CFFD03F071FBFFF7AAFDFFF782
:105A60003EFDFFF788FAFFF780F919E307F086FAA1
:105A700003F0AEF9564800883C2860DD55480078B0
:105A800000285CD1FDF7FCFC534800783C2190FBDA
:105A9000F1F201FB12004E49088050480088642151
:105AA00090FBF1F04E4908704C480088642190FB4F
:105AB000F1F201FB12004A4948704A480088887098
:105AC00049480088C87049480078087148480078FB
:105AD000487100208871464800780A2190FBF1F255
:105AE00001FB120040BBFFF718F9FFF7EBF80028A5
:105AF00019DAFFF7E7F800280EDAFFF7E3F80028D5
:105B000003DA02203B49087013E00120394908708C
:105B10006420FEF7E6FE0CE00120364908706420A0
:105B2000FEF7DFFE05E00120324908706420FEF731
:105B3000D8FEFFF71CF802E003202E4908702D481C
:105B4000007801287ED1FEF7AEFFB0F1FF3F02D012
:105B5000002878D17FE021480088642190FBF1F093
:105B6000254908701D480088642190FBF1F201FB73
:105B70001200214948701B48008888701A48008824
:105B8000C8701A4800780871194800780A2190FBFB
:105B9000F1F201FB120016490978081A16494871FA
:105BA00000208871012015490870FEF7B6FC1449E1
:105BB00008800B49002003F03DFD1248007823E0E7
:105BC0000008014000100140000C014000300008B6
:105BD000A8000020EE0000203E000020340000203D
:105BE0000801002036000020380000203C00002082
:105BF0003D0000209C00002016010020A000002095
:105C0000060100203501002001281AD1FB48007848
:105C100018B1FB49002003F06EFDF848407880B1D0
:105C2000F74803F085FC0446F449487803F045FD45
:105C3000B4FBF0F100FB114018B9F149012003F069
:105C40005AFD01E06AE067E00120EE49087000209B
:105C5000ED49087061E0ED480088642190FBF1F0A7
:105C6000EB490870E9480088642190FBF1F201FBE0
:105C70001200E7494870E74800888870E6480088C5
:105C8000C870E64800780871E54800780A2190FB62
:105C9000F1F201FB1200E2490978081ADC49487167
:105CA00000208871DF490870FEF7DAFDFEF735FC49
:105CB000DD490880D249002003F0BCFCFEF70EFD50
:105CC000D9490880CE49012003F0B4FCD7480078B8
:105CD00001281AD1C948007818B1C949002003F039
:105CE0000AFDC648407880B1C54803F021FC04464F
:105CF000C249487803F0E1FCB4FBF0F100FB11402D
:105D000018B9BF49012003F0F6FC0120BD49087015
:105D10000020BD49087000E000BF6AE0BA48007882
:105D2000022854D1B9480088642190FBF1F0B849A9
:105D30000870B6480088642190FBF1F201FB120064
:105D4000B3494870B34800888870B3480088C87069
:105D5000B24800780871B24800780A2190FBF1F24D
:105D600001FB1200AE490978081AA94948710020C0
:105D700088710220AB490870FEF7CFFBAA49088062
:105D80009F49002003F056FCA848007801281AD14A
:105D90009A48007818B19A49002003F0ACFC974863
:105DA000407880B1964803F0C3FB04469349487895
:105DB00003F083FCB4FBF0F100FB114018B99049EB
:105DC000012003F098FC00208F49087011E08E48F4
:105DD000007803280DD195480078012806D187481E
:105DE000007818B18649002003F085FC0020864920
:105DF000087084480078012805D18D48007804286F
:105E000001D103F0C7FD8B480078012801D103F0D0
:105E100079FD89480078002801DD03F052FD8748AC
:105E20000078012801D106F0E0F88548008887282D
:105E300070D1002083490880FDF707FF0028F7D1C3
:105E4000814800888F2873D00CDC842830D004DC93
:105E5000812810D082281DD11DE085285BD08E2896
:105E6000F9D187E0952879D0962878D09C2877D0EA
:105E70009D28F0D103E1FDF7B5FE032073490880AA
:105E80000F2071490880002071490880714800780E
:105E900002F0DAFC00E1FDF789FE09206B49088079
:105EA0000220694908806B48007802F0CDFCF3E0DD
:105EB0001420694908706948C078487067480079BB
:105EC000887066484079C870644880790871634872
:105ED000C079487100208871084603F029FB6049A9
:105EE00008605E48007A5C4948705C48407A887077
:105EF0005A48807AC8705948C07A08715748007B60
:105F00004871084603F014FB55494860012049498F
:105F10000870C1E0C4E0FDF7B3FAFDF7D6FAAA288D
:105F200007D10320494908800F204749088006E02F
:105F300040E00320454908800E2043490880454839
:105F4000007802F081FC0220FDF741FA4148007818
:105F500002F007F9012804D100BFFEE737E043E073
:105F600080E00220FDF733FA3A48007802F0F9F8B1
:105F700000BFFEE7FDF738FA0320344908800F2000
:105F8000314908803348007802F05EFC0220FDF7BA
:105F90001EFA3048007802F0E4F8012801D100BF71
:105FA000FEE70220FDF713FA2A48007802F0D9F83C
:105FB00000BFFEE7FDF7B3F90A20244908801F203F
:105FC000214908802348007802F03EFC64E0FDF798
:105FD00085F903201D4908800F201B4908801D48B2
:105FE000007802F031FC57E0FDF755F92020164902
:105FF00008801848007802F027FC4DE037010020A7
:10600000080100209F0000209C0000203400002098
:106010001601002036000020380000203C0000203F
:106020003D000020A00000200601002035010020D6
:10603000E40000209E0000209D000020C4020020FB
:106040005A000020AC000020600000205E0000200C
:10605000F0000020F20000200F010020AC0800201A
:1060600028010020FDF787F80320FA4908800F2057
:10607000F9490880F948007802F0E6FB00BFFDF717
:106080004DF80520F34908801E20F3490880F348A5
:10609000007802F0D9FB00BF00BF8020F0490880E3
:1060A000E4E4F048006820B1EE480068401EED4985
:1060B0000860704701B54FF4C8710098B0FBF1F269
:1060C00001FB120008B9012008BD64210098B0FB53
:1060D000F1F201FB120008B90020F5E7009810F07A
:1060E000030F01D10120EFE70020EDE770B500229A
:1060F000DD480078DD4E3080002105E0DA48405C64
:10610000104482B2481CC1B2D94800888142F5DBF4
:1061100008464E1CF1B2D44E345C08464E1CF1B217
:10612000D14E305C0502601983B29A4201D1012040
:1061300070BD0020FCE72DE9F041FE20CD4908703C
:1061400048708870AA20C870C94800880871C7487C
:1061500000884871C84800888871C8480088C8719C
:106160000025C3480088401D87B2052405E0C148CA
:10617000005D284485B2601C84B2BC42F7DB204637
:10618000611C8CB2BB490D542A122046611C8CB292
:10619000B8490A54DD2008550020B9490880B448A0
:1061A00000880830B7490880012240F22771B648BC
:1061B00007F0D6F9B548068802E006F0DFFE00BF1A
:1061C000AF480088AF490988884204DAAF480088A0
:1061D000801B1028F1DB8020AD490880BDE8F081EC
:1061E0002DE9F041FE20AB49087048708870AA2064
:1061F000C8709848008808719748008848719E4880
:1062000000888871934800880012C8710025914861
:106210000088401D87B2052405E09E48005D2844A3
:1062200085B2601C84B2BC42F7DB2046611C8CB294
:1062300098490D542A122046611C8CB295490A5483
:10624000DD200855002094490880824800880830E5
:1062500092490880012240F22771914807F080F9A5
:106260008A48068802E006F089FE00BF8A48008856
:106270008A490988884204DA84480088801B1028EB
:10628000F1DBBDE8F08170B5864800788549497832
:1062900000EB012085B28448007804281FD101203A
:1062A0006D490880681C6B490880002002F006F9DF
:1062B0000826022408E07B48025D3046711C8EB23D
:1062C00074490A54601C84B2AC42F4DBFFF788FFC7
:1062D000002002F045F910B9022073490870724895
:1062E0000078042801D1002070BD4FF0FF30FBE79B
:1062F0002DE9FE4F81460F465F4800886B49CDE986
:1063000000106B4803786B486BA10268594807F08E
:106310009BF978793979FA78CDE90021029078787B
:10632000397801EBC10C0CEB011100EB8102BB7859
:1063300067A15048153007F087F9B9F1000F07D170
:106340006948027869A14B48243007F07DF906E0DE
:106350006548427867A14748243007F075F96748D7
:10636000007A092874DA6548007A10B90120634977
:106370000872624890F83930007A420060A13D48C6
:10638000283007F061F9092600258CE106EB85002D
:1063900084B2082D5DD2DFE805F0041B3BDDFDFC77
:1063A000FBFA5649A01C095CDFF850C1E01C1CF840
:1063B000000001EB00236046015D601C1CF800003A
:1063C00001EB002251A12B482F3007F03DF967E186
:1063D000DFF828C1A11C1CF801C0DFF820B1E11CC6
:1063E0001BF801100CEB0123594611F804C0611C85
:1063F0001BF801100CEB012205EBC50149002F3100
:10640000DFF870C001EB0C0046A107F01DF947E171
:10641000DFF8E8C0A11C1CF801C0DFF8E0B0E11C07
:106420001BF801100CEB0123594611F804C0611C44
:106430001BF801100CEB012205EBC50149002F31BF
:10644000DFF830C001EB0C003CA107F0FDF827E1BC
:106450005BE124E15E00002060000020F2000020EB
:106460005A00002028000020AC0600205000002028
:106470004E000020AC070020920000209400002075
:10648000440000204200002000380140AA00002003
:106490004A000020AC0900205400002052000020D7
:1064A000004400401C380020E40000208D00002043
:1064B0008C0000208800002042472C2530356C6479
:1064C0002C253032642C25732C253033642C0000AD
:1064D000253034642530326425303264253032640E
:1064E0002530326430302C00370100203025303226
:1064F000642C000031253032642C00001C37002051
:10650000253033642C253032642C00004152486120
:106510002C253033642C415248632C253033642CB5
:1065200000000000415249612C253033642C415257
:1065300049632C253033642C0000000041524A612D
:106540002C253033642C41524A632C253033642C83
:1065500000000000DFF81CC4A11C1CF801C0DFF81B
:1065600014B4E11C1BF801100CEB0123594611F87F
:1065700004C0611C1BF801100CEB012205EBC501E6
:1065800049002F31DFF8F0C301EB0C0003E066E0B7
:1065900045E024E003E0F9A107F056F880E0DFF8D9
:1065A000D4C3A11C1CF801C0DFF8C8B3E11C1BF860
:1065B00001100CEB0123594611F804C0611C1BF8B3
:1065C00001100CEB012205EBC50149002F31DFF86A
:1065D000A8C301EB0C00EFA107F036F860E0DFF88C
:1065E00094C3A11C1CF801C0DFF888B3E11C1BF8A0
:1065F00001100CEB0123594611F804C0611C1BF873
:1066000001100CEB012205EBC50149002F31DFF829
:1066100068C301EB0C00E5A107F016F840E0DFF8D5
:1066200054C3A11C1CF801C0DFF848B3E11C1BF8DF
:1066300001100CEB0123594611F804C0611C1BF832
:1066400001100CEB012205EBC50149002F31DFF8E9
:1066500028C301EB0C00DBA106F0F6FF20E0DFF819
:1066600014C3A11C1CF801C0DFF808B3E11C1BF81F
:1066700001100CEB0123594611F804C0611C1BF8F2
:1066800001100CEB012205EBC50149002F31DFF8A9
:10669000E8C201EB0C00D1A106F0D6FF00E000BF7C
:1066A00000BF681C85B2B348007AA8423FF76EAEBF
:1066B0004DB900231A46AFF2AC11AF482F3006F0A7
:1066C000C3FF681C85B205EBC5002F2101EB40001C
:1066D00084B2292600250BE03046711C8EB2A549F4
:1066E0000A5C2146601C84B2A3484254681C85B2EF
:1066F000A048007AB5EB400FEEDBD5B12C22204646
:10670000611C8CB29C490A5413E09A48007A0B2809
:1067100009DA984890F83920B6A19748283006F051
:1067200093FF352405E0B7A19348283006F08CFF8D
:106730002E243A2690490819B4A105F043FDA01C67
:1067400084B23146761C8B48425C2046611C8CB278
:1067500089490A542C222046611C8CB286490A546D
:106760003146761C8348405C302814D08249081991
:10677000A7A105F027FDA01D84B2701E7D490A5C0B
:106780002046611C8CB27C490A542C222046611C94
:106790008CB279490A543046711C8EB27549085C36
:1067A000302828D0744908199BA105F00BFDE01C86
:1067B00084B2701E6F490A5C2046611C8CB26E491F
:1067C0000A542C222046611C8CB26B490A540819C9
:1067D00092A105F0F7FCE01C84B2701E65490A5CCA
:1067E0002046611C8CB264490A542C222046611C4C
:1067F0008CB261490A543046711C8EB25D49085C06
:10680000302814D05C49081985A105F0DBFCE01C98
:1068100084B2701E57490A5C2046611C8CB25649EE
:106820000A542C222046611C8CB253490A544FF062
:106830000008002504E05048405D8044681C85B293
:10684000A542F8DB4FF47A70B8FBF0F00A21B0FBF8
:10685000F1F201FB120030302146621C94B2464A2C
:1068600050546420B8FBF0F00A21B0FBF1F201FBB8
:10687000120030302146621C94B23F4A50540A2024
:10688000B8FBF0F00A21B0FBF1F201FB120030304E
:106890002146621C94B2384A50540A20B8FBF0F1E9
:1068A00000FB118030302146621C94B2324A5054B1
:1068B0002C222146601C84B22F4842544522204697
:1068C000611C8CB22C490A5444222046611C8CB2B3
:1068D00029490A540D222146601C84B2264842549C
:1068E0000A222046611C8CB223490A5400204D49DB
:1068F00008804D480480012240F227714B4806F081
:106900002FFE4B48B0F800A002E006F037FB00BFB6
:106910004448008844490988884205DA4448008888
:10692000A0EB0A000528F0DB802042490880002502
:1069300011E00320FDF7D5FF40213F4806F005FB9D
:10694000C0F1010000F0FF0B5A4640213A4806F022
:1069500007FB681C85B2052DEBDBBDE8FE8F2DE93A
:10696000F041364936480088FDF7EEF90746002425
:106970006FE000001C370020AC07002041524B6143
:106980002C253033642C41524B632C253033642C3E
:106990000000000041524C612C253033642C4152E0
:1069A0004C632C253033642C0000000041524D61B3
:1069B0002C253033642C41524D632C253033642C0C
:1069C0000000000041524E612C253033642C4152AE
:1069D0004E632C253033642C0000000041524F617F
:1069E0002C253033642C41524F632C253033642CDA
:1069F000000000003030302C253032642C2F2F2F37
:106A00002F2F2C002F2F2F2F2F2C00007A2C00003F
:106A1000795F4152422C000078422C0078442C00CF
:106A200077412C0044000020420000200038014043
:106A3000AA0000204A00002000100140D0230020BE
:106A4000A200002037F81400F94921F81400601C56
:106A5000C4B2112CF6DBF648008828B90120F449AD
:106A60000880002048808880F248008818B1F148EA
:106A70000088EF494880EF48408818B1ED484088C9
:106A8000EB49888000241EE13020EB4901F8140016
:106A9000012101EB4401E84A5054E5480088A04236
:106AA0007DDD012101EB4401E14A32F811104FEA8A
:106AB0004402E24B33F81220881A01D4014600E068
:106AC00041428DB2DE488088A8420EDADC488088D8
:106AD000A0F57F41FF3908D0D74810F814003128BD
:106AE00003DA3120D44901F81400D548C088A842FF
:106AF0000EDAD348C088A0F57F41FF3908D0CE48D0
:106B000010F81400322803DA3220CB4901F81400BF
:106B1000CB480089A8420EDDC9480089A0F57F4115
:106B2000FF3908D0C44810F81400322803DA3220A4
:106B3000C14901F81400012000EB4400BC4931F8C0
:106B40001000BF49098888420EDDBD480088A0F5C5
:106B50007F41FF3908D0B84810F81400322803DA12
:106B60003220B54901F81400012000EB4400B0497F
:106B700031F81000B249498888420EDAB04840889E
:106B8000A0F57F41FF3908D0AB4810F81400322837
:106B900003DA3220A84901F81400022100E090E055
:106BA00001EB4401A24A32F811104FF0010202EB4E
:106BB0004402A24B33F81220881A01D4014600E0A7
:106BC00041428DB29E488088A84212DA9C48808853
:106BD000A0F57F41FF390CD0012000EB440096491D
:106BE000085C312805DA3120012101EB4401924A89
:106BF00050549348C088A84212DA9148C088A0F542
:106C00007F41FF390CD0012000EB44008A49085C29
:106C1000322805DA3220012101EB4401864A505422
:106C200087480089A84212DD85480089A0F57F4188
:106C3000FF390CD0012000EB44007F49085C32286A
:106C400005DA3220012101EB44017B4A5054022035
:106C500000EB4400764931F81000794909888842F0
:106C600012DD77480088A0F57F41FF390CD0012064
:106C700000EB44007049085C322805DA322001211B
:106C800001EB44016C4A5054022000EB4400684977
:106C900031F810006A494988884212DA6848408809
:106CA000A0F57F41FF390CD0012000EB4400624980
:106CB000085C322805DA3220012101EB44015E4AEA
:106CC0005054601CC4B2082CFFF6DEAE5848007861
:106CD0005C490870002408E05549601C31F8100038
:106CE000564921F81400601CC4B2102CF4DB55483E
:106CF0000078554908720926002412E04F4810F820
:106D000014203046711CCEB24F490A544B4830F81B
:106D1000140002123046711CCEB24B490A54601C5A
:106D2000C4B2102CEADB002408E04348025D304680
:106D3000711CCEB244490A54601CC4B2102CF4DB5E
:106D4000BDE8F0812DE9FE43404800884049CDE987
:106D50000010404803784048AFF6A40102683F485D
:106D600006F072FC3E4840793D4909793C4AD278A8
:106D7000CDE9002102903A484178007800EBC00C40
:106D80000CEB001001EB80023548837835A13348C5
:106D9000153006F059FC2C48007A10B901202A4918
:106DA00008722948007A42000123AFF6AC012B4853
:106DB000283006F049FC0024C2E0092707EB8400D4
:106DC00085B22148415D0246681C105C01EB002041
:106DD00087B21146A81C095CE81C105C01EB00207E
:106DE0001FFA80F8B7F57A7F06DB4FF47A7097FBCD
:106DF000F0F100FB117087B2B8F57A7F07DB4FF432
:106E00007A7098FBF0F100FB11801FFA80F8082CD3
:106E100077D2DFE804F00435424F5C69778443465B
:106E20003A46AFF618110D482F3006F00DFC84E0FD
:106E3000F0270020A400002012280020D0270020E6
:106E400022280020810000201C3700209200002012
:106E50008D0000208C00002088000020AC0700205E
:106E60000801002025303464253032642530326436
:106E7000253032642530326430302C3030312C00F3
:106E800004EBC40149002F31FE4A881843463A46B4
:106E9000AFF6701106F0D8FB4FE004EBC4014900D7
:106EA0002F31F84A881843463A46AFF6701106F07B
:106EB000CBFB42E004EBC40149002F31F14A8818B2
:106EC00043463A46AFF24C5106F0BEFB35E004EBC8
:106ED000C40149002F31EB4A881843463A46AFF2C5
:106EE0004C5106F0B1FB28E004EBC40149002F31FE
:106EF000E44A881843463A46AFF2505106F0A4FBE4
:106F00001BE019E004EBC40149002F31DD4A881869
:106F100043463A46AFF2545106F096FB0DE004EBBF
:106F2000C40149002F31D74A881843463A46AFF288
:106F3000545106F089FB00E000BF00BF601C84B222
:106F4000D148007AA0423FF738AF4CB900231A4627
:106F5000AFF64821CB482F3006F076FB601C84B298
:106F600004EBC4002F2101EB400085B22927002447
:106F70000BE03846791C8FB2C3490A5C2846691C6D
:106F80008DB2C0490A54601C84B2BF48007AB4EB89
:106F9000400FEEDB2CB12C222846691C8DB2B9497A
:106FA0000A54B8494819AFF29C5105F00BF9A81CD6
:106FB00085B230222846691C8DB2B2490A542C226F
:106FC0002846691C8DB2AF490A540026002404E00B
:106FD000AC48005D0644601C84B2AC42F8DB4FF460
:106FE0007A70B6FBF0F00A21B0FBF1F201FB12005F
:106FF000303029466A1C95B2A24A50546420B6FB30
:10700000F0F00A21B0FBF1F201FB1200303029460A
:107010006A1C95B29B4A50540A20B6FBF0F00A2134
:10702000B0FBF1F201FB1200303029466A1C95B228
:10703000944A50540A20B6FBF0F100FB1160303046
:1070400029466A1C95B28F4A50542C222846691C46
:107050008DB28C490A5445222846691C8DB2894953
:107060000A5444222846691C8DB286490A540D22CE
:107070002946681C85B2834842540A222846691C66
:107080008DB280490A5400208049088080480580DC
:10709000012240F227717F4806F062FA7E48B0F87C
:1070A000008002E005F06AFF00BF78480088784958
:1070B0000988884205DA78480088A0EB080005288E
:1070C000F0DB802075490880002411E00320FDF7E3
:1070D00008FC4021724805F038FFC0F1010000F0C3
:1070E000FF094A4640216E4805F03AFF601C84B211
:1070F000052CEBDBBDE8FE832DE9F04389B00746A4
