:020000040800F2
:10000000E8130020010100088D0C00088F0C000887
:10001000930C0008970C00089B0C000800000000DF
:10002000000000000000000000000000A10C00081B
:100030009F0C000800000000A30C0008A50C00089D
:10004000A70C0008A90C0008AB0C0008AD0C0008B8
:10005000BF0C0008C10C0008C30C0008C50C000848
:10006000C70C0008C90C0008CB0C000817010008D9
:100070001701000817010008170100081701000800
:10008000170100081701000817010008DD0C00081F
:10009000DF0C0008E10C0008E30C0008E50C000888
:1000A000E70C0008E90C0008EB0C0008ED0C000858
:1000B000EF0C0008050D0008070D0008170D0008DB
:1000C000190D00081B0D00081D0D00081F0D00086C
:1000D000210D0008230D0008B50D0008290E0008A9
:1000E000530E00088F0E0008910E0008DFF80CD0A8
:1000F00001F03AFE00480047F1050008E81300202F
:1001000005480047FEE7FEE7FEE7FEE7FEE7FEE7FD
:10011000FEE7FEE7FEE7FEE7ED000008014608E027
:10012000002002E000BF421C90B248F6A04290427C
:10013000F8DB0A00A1F1010399B2F1D170470EB5C5
:1001400042F20F70ADF8040040F60F60ADF8000009
:100150000020ADF80600ADF8020069464FF080407F
:1001600002F046FC0121880702F065FB01221146DE
:10017000900702F06EFB0121880702F05FFB02206E
:10018000ADF804002320ADF800000020ADF8060013
:10019000ADF802006946FE4802F02AFC0121FC4845
:1001A00002F049FB01221146F94802F052FB0121FD
:1001B000F74802F043FB0EBD00B591B02320ADF827
:1001C000400000208DF8430010A9F24802F07CF9AD
:1001D0000121084602F02AFAEF4802F0BBF8EF4886
:1001E0000590EF480690002007900420089000201A
:1001F000099080200A9040000B9080000C902020F5
:100200000D9000020E9000200F9005A9E24802F028
:1002100011F90121E04802F093F80020009001203C
:100220008DF804008DF805004FF460200290002046
:10023000039004208DF810006946D8484C3801F02E
:10024000FDFF002002F0E8F9012002F069F8012327
:100250001A460021D1484C3802F014F8012302223A
:100260001946CE484C3802F00DF80123032205212F
:10027000CA484C3802F006F8012304221021C7486E
:100280004C3801F0FFFF0121C4484C3801F0BDFF9C
:100290000121C2484C3801F0AEFFC0484C3802F092
:1002A0002BF800BFBD484C3801F0C0FF0028F9D141
:1002B000BA484C3802F02FF800BFB8484C3801F06B
:1002C000AEFF0028F9D10121B4484C3802F019F8EA
:1002D00011B000BD30B589B005460C4601210220A1
:1002E00002F0B0F901210C2002F0B8F90120ADF8BC
:1002F000200018208DF8230003208DF8220008A983
:10030000A84802F0E1F8ADF81850ADF8144000200C
:10031000ADF81A00ADF8160005A9A34802F068FB75
:100320006020ADF804000120ADF806000020ADF813
:100330000A00ADF80C0001A99B4802F093FA0821CD
:10034000994802F0CDFA0120ADF806000020ADF882
:100350000A0001A9944802F0CBFA0821924802F061
:1003600003FB0120ADF806000020ADF80A0001A94A
:100370008D4802F0FFFA08218B4802F02BFB012187
:10038000894802F04DFA0121874802F057FA09B076
:1003900030BD08B54FF49150ADF8000003208DF842
:1003A000020010208DF803006946804802F08CF8A6
:1003B00020217E4802F0E1F84FF400717B4802F002
:1003C000DCF84FF48051794802F0D7F84FF4807090
:1003D000ADF8000003208DF8020010208DF8030016
:1003E00069466C4802F070F84FF48071694802F079
:1003F000C2F808BD00B585B04FF48060ADF80000CC
:1004000004208DF803006946624802F05DF8082078
:10041000ADF8000069465F4802F056F84FF40070EE
:10042000ADF8000003208DF8020018208DF80300BD
:100430006946584802F048F80420ADF800006946C3
:10044000544802F041F84FF4E13001900020ADF83B
:100450000800ADF80A00ADF80C00ADF810000C2053
:10046000ADF80E0001A9524802F02EFB01A9514837
:1004700002F02AFB012240F225514D4802F00CFB0C
:10048000012240F227714A4802F006FB012240F2A5
:100490002551484802F000FB012240F227714548EF
:1004A00002F0FAFA0121424802F0C6FA012141485D
:1004B00002F0C2FA40213E4802F0C8FA40213D480D
:1004C00002F0C4FA05B000BD08B54FF4C06002F0F8
:1004D00099F825208DF8000001208DF801008DF895
:1004E00002008DF80300684602F052F826208DF8CD
:1004F000000001208DF802008DF80300684602F02C
:1005000047F827208DF8000001208DF802008DF8B3
:100510000300684602F03CF81C208DF80000002023
:100520008DF801008DF8020001208DF80300684667
:1005300002F02EF81E208DF8000001208DF8010039
:1005400002208DF8020001208DF80300684602F0B9
:100550001FF808BD10B502F08DF8102001F09CFFC7
:10056000022001F0A5FF002002F00CF94FF480609A
:1005700002F01CF94FF4806002F00EF94FF4E01124
:10058000002002F023F9012002F01AF900BF13E065
:100590000008004000080140080002404C240140CF
:1005A00044000020000C0140000400400010014005
:1005B0000038014000440040392002F0C3F8002810
:1005C000E5D0022002F00CF900BF02F0D3F80828B1
:1005D000FBD1012144F21D2002F040F801214FF42B
:1005E000C02002F02FF80121052002F02BF810BDE9
:1005F0009EB0FFF7AFFFFFF767FFFFF7FBFEFFF7C8
:10060000C8FE40F60F6144F61F60FFF763FE00214D
:10061000FE4802F0E6F940F2E731FC4802F0E3F967
:100620006321FA4802F0E1F9F9A002F099FA00F02A
:100630002EFEFFF7C1FDFFF782FD79E00120FFF7F5
:100640006DFDF848006801F08CF904460D46F64847
:10065000006801F086F9064632460B46F348CDE9BC
:1006600000450168F2A002F07BFAF949486A01F0FE
:1006700078F904460D46F649086A01F072F9064613
:100680000F46F349C86901F06CF980468946F04984
:10069000886901F066F982468B46ED49486901F0A8
:1006A00060F9CDE91C01EA49086901F05AF9CDE980
:1006B0001A01E749C86801F054F9CDE91801E44985
:1006C000886801F04EF9CDE91601E149486801F06A
:1006D00048F9CDE91401DE49086801F042F9CDE995
:1006E0000AABCDE90C89CDE90E67CDE91045CDE91E
:1006F0001201DDE91C01CDE90801DDE91A01CDE9AE
:100700000601DDE91801CDE90401DDE91601CDE9B5
:100710000201DDE91401CDE90001CEA0DDE91223DB
:1007200002F01EFAD8480078012801D100F02DFD12
:1007300084E72DE9FC5FD549888801F0BFF882463F
:100740004FF06632D24B00F0D3FF80460022D14BEF
:1007500000F0CEFF06460022CF4B01F03BF80446E6
:100760000022CE4B01F036F8CDE9000101F00CF982
:10077000AD490860C549C88801F0A0F880464FF02F
:100780006632C34B00F0B4FF06460022C34B01F0B3
:1007900021F8044601F0F8F8A2490860084600680C
:1007A00001F0DFF8BE4ABF4BCDE9000100F09DFF2C
:1007B00006460022BC4B00F09BFF80460022BB4B4C
:1007C00001F008F804460022B94B00F0EAFE824628
:1007D00001F0DAF893490860BDE8FC9F2DE9F0418B
:1007E0000446FFF7A6FF40F6B83084427DDA204683
:1007F00001F05FF807468C480168384600F055FE66
:10080000064601F068F8051E01DB284600E0684254
:1008100005286ADD84480168A648006800F045FEA6
:10082000064601F058F8051E01DB284600E0684244
:100830000528DBDA204601F03CF805467A480168D5
:10084000284601F0C7F871D2204601F032F806467A
:1008500075480168304600F028FE0546964901F0CB
:10086000B9F820D2B4F57A7F07DD9449944800683E
:1008700000F0C9FD9249086007E04FF080419048C0
:10088000006800F0C0FD8E4908608E498C48006801
:1008900000F011FE064601F037F885B229465B48A4
:1008A00002F09FF820E1204601F003F806465E487A
:1008B0000168304600F0F9FD0546834901F08AF8E9
:1008C00017D24FF07E517E48006800F09CFD7C49B5
:1008D00008607C497A48006800F0EDFD064601F0AA
:1008E00013F885B22946494800E001E102F079F8A1
:1008F000FAE07348006801F034F80546734A744B17
:1009000000F04FFE074601F03FF86D4908606D4961
:100910006B48006800F0CFFD064600F0F5FF85B299
:1009200029463A4802F05DF8DEE0FFE7204600F095
:10093000C0FF05463C480168284601F041F82DD229
:10094000204600F0B6FF064637480168304600F002
:10095000AFFD0546584901F03DF820D2B4F57A7F45
:1009600007DD56495648006800F09FFD544908606D
:1009700007E04FF080415248006800F096FD504972
:10098000086050494E48006800F095FD064600F0AA
:10099000BBFF85B229461D4802F023F8A4E020469B
:1009A00000F087FF064620480168304600F080FDD1
:1009B0000546454901F00EF815D24FF07E514048EA
:1009C000006800F072FD3E4908603E493C480068FE
:1009D00000F071FD064600F097FF85B229460B48EE
:1009E00001F0FFFF80E03648006800F0BAFF0546DE
:1009F000364A374B00F076FE074600F0C5FF304917
:100A0000086030492E48006864E00000000400409F
:100A10007468697320697320612074657374210D93
:100A20000A00000054000020500000204000002078
:100A3000256C6420B8F62C252E316620B7FCCCD866
:100A40002C252E316620C9E3CACFB6C8202000006D
:100A5000BC020020252E326620252E326620252E4F
:100A6000326620252E326620252E326620252E3233
:100A70006620252E326620252E326620252E3266EF
:100A800020252E32660D0A00AE0000204400002012
:100A900066660A40286EF84000A050400000B04052
:100AA000E17A14AE47E1F63F0088C340008045403C
:100AB00000003940380000200000C8420000A0407B
:100AC0005C00002000002041000048429A9999995A
:100AD0009999B93F00F0EFFC064600F015FF85B28A
:100AE0002946574801F07DFF56480088564908803E
:100AF00056495748006800F06DFF09D351480088F7
:100B000051490988401A0A2805DD4F48008810B16C
:100B100000204D4908804F4800684F490860BDE8F3
:100B2000F0812DE9F8434D480088ADF800004B48AE
:100B30004088ADF80200BDF80210BDF80000C830D2
:100B4000814261DD46480088002864D1BDF802007A
:100B500044490988884204DBBDF802004149088005
:100B60004DE04048008800F0A4FE81464FF08B41E4
:100B700000F0D7FC044600F0F4FE07464FF0663262
:100B8000394B00F0B5FD054600F0FEFE37490A7806
:100B90000978491C354B1970354941F8220018462F
:100BA0000078092802DD0020194608702D480088C9
:100BB0008021C1EB20102B490880084600882D4970
:100BC0000978884215DD274800882B490978884232
:100BD0000FDA2A482349098850F82100401C274988
:100BE000204A128841F8220025480068401C244908
:100BF000086000201B490880012019490880022153
:100C0000204801F0BAFC06E00020154908800221C6
:100C10001C4801F0B0FCBDE8F88370B504460D46F1
:100C2000E1B2194801F098FF01E001F0A9FC802130
:100C3000154801F00BFF0028F7D0204670BD0000DA
:100C4000000400404C0000203400002000007042EE
:100C50005C000020500000203800002044000020EC
:100C60003E0000203C00002066660A406000002034
:100C7000BC0200202800002029000020BC00002029
:100C800040000020000C014000440040704700BFBD
:100C9000FEE700BFFEE700BFFEE700BFFEE77047CC
:100CA00070477047704770477047704710B5012014
:100CB00001F0A8FD10B1012001F09CFD10BD7047AE
:100CC000704770477047704770477047704770476C
:100CD000704770477047704770477047704770475C
:100CE000704770477047704770477047704710B53E
:100CF00070480088401C6F4908800121880701F076
:100D00009AFD10BD704710B501216B4801F093FDAD
:100D1000FFF707FF10BD7047704770477047704777
:100D2000704770B540F22551644801F096FE0546C3
:100D3000002D38D0614801F00BFFC4B240F22551BC
:100D40005E4801F073FE5E48007810BB5D48008885
:100D5000FF2809D100205B4908800888411C594AB6
:100D6000118059490C5424E0574856490988405C81
:100D70000D280FD10A2C0DD101205149087051487E
:100D80000088401C80B24F4908804F490C5400F045
:100D9000FCF90EE04B480088401C80B249490880AD
:100DA00049490C5405E0002240F22771434801F004
:100DB00073FE70BD70B540F22551444801F04DFE00
:100DC000054655B3414801F0C3FEC4B240F2255177
:100DD0003E4801F02BFE3A48007820BB3948008895
:100DE000B0F5807F02D10020364908800A2C0CD152
:100DF00034480088401E3449085C0D2805D131482C
:100E0000008810B101202E4908702E490888411C25
:100E10002C4A11802C490C5405E0002240F2277125
:100E20002A4801F039FE70BD10B540F2255128481E
:100E300001F013FE04462CB140F22551244801F084
:100E4000F5FD05E0002240F22771214801F024FE63
:100E500010BD70B54FF4805001F010FBB0B100240C
:100E600009E0002503E001F08BFB681CC5B2FF2DF3
:100E7000F9DB601CC4B20A2CF3DB4FF48051154837
:100E800001F072FB4FF4805001F0F2FA70BD704730
:100E9000704770477047704770477047704770479A
:100EA000704770477047704770477047704770478A
:100EB000704770474C000020000800400038014097
:100EC000AE000020AC000020E402002000440040FE
:100ED00000480040000C0140014609E00278602A09
:100EE00005DD02787B2A02DA0278203A0270401C83
:100EF0000278002AF2D1084670472DE9FC5F83464C
:100F00005846FFF7E9FF83464FF000090EE009EB72
:100F10004900A64A02EB8001584600F055FA044603
:100F200004B106E009F1010000F0FF09B9F1060F74
:100F3000EDDB00BFB9F1060F71DA9D4880F8009033
:100F4000007806286CD2DFE800F003076C91B0F25D
:100F500098A001F005FE12E1E41C20780D2812D1C2
:100F60009F48006800F0FDFC05460E469D4800685D
:100F700000F0F7FC07463A460B469BA0CDE9005629
:100F800001F0EEFD4AE0641C204602F072FA0546CC
:100F900000F0FAFC9349086098A1204600F014FA8A
:100FA0000446641C204602F064FA054600F0ECFC9E
:100FB0008B4908604FF07E518A48006800F00AFDB6
:100FC00029D800218648006800F004FD23D8854810
:100FD00001688B4800F0A5FA07464FF07E5100F0FB
:100FE00064FA064600F090FC85B2294640F2E730EC
:100FF000FFF770F983497A48006800F05CFA06460A
:1010000000F082FC85B229467F4801F0EAFC7FA00F
:1010100001F0A6FD02E07FA001F0A2FDAFE0AFE08D
:10102000A9E00A3420780D2808D160780A2805D173
:101030007A4801887AA001F093FD16E0641C2046EE
:1010400000F0D4F975490880084600886438000229
:1010500042F2107190FBF1F01FFA80FA0AF0FF00E3
:1010600000F099F969A001F07BFD88E0E41D20788B
:101070000D280DD160780A280AD16C48006800F06C
:1010800070FC05462A460B4669A001F069FD0BE09D
:10109000641C204602F0EDF9054600F075FC63493A
:1010A00008605AA001F05CFD69E0241D20780D283D
:1010B0000DD160780A280AD15F48006800F051FC21
:1010C00005462A460B465AA001F04AFD2DE0641C55
:1010D000204602F0CEF9054600F056FC564908605D
:1010E00056495548006800F075FC03D249A001F04C
:1010F00037FD1AE050480168514800F0DCF9054618
:1011000000F002FC45490880084600886438000267
:1011100042F2107190FBF1F01FFA80FA0AF0FF0022
:1011200000F039F939A001F01BFD28E0FFE7093490
:1011300020780D2807D1434802784348017843A01E
:1011400001F00EFD16E0641C204600F04FF93E4908
:1011500008702AA1204600F037F90446641C204696
:1011600002F087F9054600F0E3FB3649087027A036
:1011700001F0F6FC03E038A001F0F2FC00BF02E051
:1011800035A001F0EDFCBDE8FC9F10B53648FFF737
:10119000B4FE002404E0242033490855601C84B2C6
:1011A000FF2CF8DD00203149087010BD62000020DE
:1011B000AA00002048454C502C564F4C54414745FE
:1011C0002C4741494E2C5448524553484F4C442CCF
:1011D00050574D2C524553495354414E43450000FE
:1011E0005C00002058000020252E3166206B487AD4
:1011F0002C252E31662025250D0A00002C0000002C
:1012000000A00C4700002041000400403C543E0D6B
:101210000A0000003C463E0D0A000000B00000201D
:101220002564206F686D0D0A000000002C0000206E
:10123000256620760D0A0000300000200000A04145
:101240000000FA4329000020280000202564202CFB
:101250002564200D0A0000003C424144434F4D4D9F
:10126000414E443E0D0A0000E4020020AE00002082
:10127000014606E0002002E000BF421CD0B2242854
:10128000FADB0A00A1F1010399B2F3D1704708B566
:101290000121082001F0E2F9C020ADF80000032090
:1012A0008DF8020010208DF803006946454801F0D2
:1012B0000BF94021434801F05EF98021414801F0DB
:1012C0005AF908BD10B540213E4801F056F9802179
:1012D0003C4801F052F90220FFF7CAFF802139484B
:1012E00001F049F90120FFF7C3FF10BD10B54021FF
:1012F000344801F042F98021324801F03CF90220E3
:10130000FFF7B6FF80212F4801F037F90120FFF7E2
:10131000AFFF10BD10B580212A4801F02CF9402103
:10132000284801F028F90220FFF7A2FF40212548B4
:1013300001F023F90120FFF79BFF4021214801F034
:101340001AF910BD70B5044640211E4801F013F98A
:1013500000251DE014F0800F04D08021194801F011
:101360000CF903E08021174801F005F96006040E2E
:101370000220FFF77DFF4021124801F0FEF8012016
:10138000FFF776FF40210F4801F0F5F8681CC5B261
:10139000082DDFDB70BD10B50446FFF793FF582022
:1013A000FFF7D0FFFFF7B6FF0020FFF7CBFFFFF7F7
:1013B000B1FF2046FFF7C6FFFFF7ACFFFFF796FF30
:1013C00010BD0000000C014030B505462A460B4612
:1013D00012F8010B13F8014B08B1A042F8D01CB170
:1013E000002802D06D1CF1E7284630BD70B50646D6
:1013F00001F0C6FB046805460A220021304600F0D1
:10140000B9FB2C6070BDF0B480EA0102D40F420039
:10141000B2EB410F02D20246084611464A0042D0C2
:10142000C30DDDB2C1F3C752AD1A202D35DAC1F3B9
:10143000160141F4000204B15242C5F1200602FA3D
:1014400006F12A411044B3EBD05F23D0C4B1012D83
:10145000A0EBC35009DCF0BC4FF0004202EAC352DB
:1014600000F50000DBB200F0C6BB400000F1807068
:1014700000EBC350A0F1807040EAD170490009E050
:10148000490841EAC071A0EBC35000F500004008D4
:1014900000EBC350F0BC00F0A5BB6142012202EB9F
:1014A0004101001BF6E7F0BC704781F00041AAE75C
:1014B00080F00040A7E780EA010210B502F0004387
:1014C000400026D04A0023D04FEA106101EB1261A0
:1014D000C0F35600C2F3560240F4000042F400028A
:1014E000A0FB0220A1F17F014FEA0040140401D0CB
:1014F00000F1010050EA124001D44000491EC2B27E
:101500000C0604EBD010401C4008802A02D003E0F7
:10151000002010BD20F00100002900DA002018434F
:1015200010BD30B480EA010202F0004530F0004204
:1015300021F0004015D0A0B1C0F3C753C2F3C75487
:10154000C2F31601C0F31600E41A41F4000140F49E
:1015500000027D34914201D3641C00E04900002C5C
:1015600002DA30BC002070474FF4000000239142A3
:1015700001D3891A034340084FEA4101F7D151B121
:10158000914202D14FF0004105E002D24FF001013B
:1015900001E06FF0010103EBC450284430BC00F0BF
:1015A00021BB2DE9FE4F804681EA0300C00F0C46A7
:1015B000009021F0004123F00045B8EB0200A94162
:1015C00005D24046214690461C460B46024623F073
:1015D0000040104304D14046214603B0BDE8F08FDF
:1015E000270DC7F30A00C3F30A510290401A019075
:1015F000402866DAC3F3130040F4801B009892463B
:1016000020B10023D2EB030A63EB0B0B0198594680
:10161000C0F14002504600F02EFA06460D465046F4
:101620005946019A00F046FA10EB08006141002487
:1016300087EA115284EAE7731A433BD0009A3AB31F
:10164000019A012A4FEA075210DC001B61EB0201EC
:101650004FF0004202EA0752CDE90042001C41F57A
:10166000801132462B4600F000FBB6E7001B61EB11
:101670000201001C41F5801300185B412018A2F5FF
:10168000001747EB030140EAD570B6196D4111E030
:101690006D084FEA360645EAC0754FEA0752001B4F
:1016A00061EB0201001C41F5801149084FEA30004E
:1016B0000019514132462B4603B0BDE8F04F00F00F
:1016C000C7BA0098012240000023D0EB020263EB6E
:1016D000E073009821464FEAE074B8EB000061EB3C
:1016E0000401E9E783F000435BE781F0004158E73C
:1016F0002DE9FE4F81EA030404F0004421F000418B
:1017000000944FF0000B23F0004350EA010402D094
:1017100052EA030404D10020014603B0BDE8F08F73
:10172000C3F30A54C1F30A552C44A4F2F3340194D0
:10173000A0FB0254C1F3130141F48011C3F313035E
:1017400043F4801301FB024400FB034E840A970A12
:1017500044EA815447EA8357A4FB076802958D0A3F
:1017600005FB07854FEA932C04FB0C542705029DCB
:101770004FEA065847EA1637B5EB08056EEB070C3B
:10178000870E920E47EA811742EA8312A7FB0201F5
:10179000B6EB0B0164EB00042B0D43EA0C335E182F
:1017A00044EB1C50DA465146E7FB0201C5F3130433
:1017B0004FEA0B3343EA14534FEA0432019C43EAE5
:1017C0000603A4F10C040294009CCDE900B400F0DF
:1017D0004CFAA2E72DE9F04D81EA030404F0004B36
:1017E00021F0004514464FF0000A23F0004150EA72
:1017F000050220D054EA01021DD0C5F30A57024663
:10180000C5F31303C1F31300C1F30A5640F4801566
:1018100043F48013A7EB0608101BD64608F2FD38E8
:1018200073EB050002D308F1010801E092185B4157
:10183000B8F1000F03DA00200146BDE8F08D00206A
:101840004FF48011064684460EE0171B73EB050724
:1018500005D3121B63EB050306434CEA010C490850
:101860004FEA300092185B4150EA0107EDD152EA8D
:10187000030012D082EA040083EA0501084303D181
:1018800000224FF0004308E0101BAB4102D20122BE
:10189000002302E06FF0010253101AEB06004CEB3C
:1018A000085110EB0A0041EB0B01BDE8F04D00F0D0
:1018B000CFB996230022114600F09DB90EB540F233
:1018C000334102910021CDE900110A460B4600F098
:1018D000CCF903B000BD00F0004220F00040C10D83
:1018E000C0F3160040F400007F2901DA00207047A1
:1018F000962903DCC1F19601C84001E09639884081
:10190000002AF4D04042704720F00040C10DC0F3DF
:10191000160040F400007F2901DA00207047962964
:1019200003DCC1F19601C840704796398840704782
:10193000C1F30A5210B5C1F3130140F2FF3341F471
:1019400080119A4201DA002010BD40F233439A42DE
:10195000A2F2334203DC524200F09CF810BD9040EA
:1019600010BD00F0004230F000400AD0C10D01F57A
:101970006071C0F3160042EA0151C20840071143EA
:10198000704700200146704701F0004330B421F059
:10199000004150EA010206D00A0DA2F56072C1F3BF
:1019A0001301002A02DC30BC00207047440F44EAD7
:1019B000C104C100E01830BC00EBC25000F012B905
:1019C000002801DBC0F10040002901DBC1F100412A
:1019D00081427047002801DBC0F10040002901DB93
:1019E000C1F100418842704730B50B4601460020E6
:1019F0002022012409E021FA02F59D4205D303FAD1
:101A000002F5491B04FA02F52844151EA2F1010251
:101A1000F1DC30BD2DE9F05F0546002092469B4683
:101A200088460646814640241BE0284641464746F4
:101A3000224600F02FF853465A46C01A914110D35F
:101A400011461846224600F016F82D1A67EB0108D9
:101A50004F4622460120002100F00DF817EB000947
:101A60004E41201EA4F10104DFDC484631462A46DF
:101A70004346BDE8F09F202A04DB203A00FA02F139
:101A8000002070479140C2F1200320FA03F319436C
:101A900090407047202A04DB203A21FA02F000210E
:101AA000704721FA02F3D040C2F12002914008436E
:101AB00019467047202A06DBCB17203A41FA02F07C
:101AC00043EAE07306E041FA02F3D040C2F120029B
:101AD00091400843194670470FB4002300B589B000
:101AE0000CA900910B996FF00042CB601E4B06933E
:101AF0001E4B07930423CDE901321D4A089202468A
:101B00006B46002000F0D0F909B05DF814FB70B509
:101B100086B006464FF0FF300091CDE9010100206C
:101B200015460C4604903246694604A8FFF7D4FFD8
:101B300003460498211825B108B10A4600E0224660
:101B40002A6000280DD0002B02DD0098884208D0C2
:101B5000081B0094CDE901043246694604A8FFF74A
:101B6000BBFF06B070BD0000E5200008032100089F
:101B7000951D00082DE9F04791460F468046044622
:101B8000002614F8015B2DB100F000F90068405DFB
:101B9000C007F6D12B2D02D02D2D18D0641E4A4639
:101BA0003946204600F0BEFA27B13968A14201D17A
:101BB000C7F8008071054FF002040BD540420028A1
:101BC00003DD00F0DDFF0460A007BDE8F08746F408
:101BD0008066E4E70028F8DA00F0D2FF04606FF0D6
:101BE0000040F2E70029A8BF7047401C490008BF29
:101BF00020F00100704710B4B0FA80FC00FA0CF03D
:101C000050EA010404BF10BC704749B1CCF1200474
:101C100021FA04F411FA0CF118BF01212143084301
:101C2000A3EB0C01CB1D0106000A002BBEBF002058
:101C300010BC704700EBC35010440029A4BF10BC77
:101C40007047401C490008BF20F0010010BC7047DD
:101C500010B5002B08DA401C41F1000192185B41DD
:101C60001A4301D120F0010010BD2DE9F04D92463C
:101C70009B4611B1B1FA81F202E0B0FA80F2203253
:101C80009046FFF7F8FE04460F4640EA0A0041EA94
:101C90000B0153465A46084303D120463946BDE856
:101CA000F08D114653EA010015D0C8F140025046AC
:101CB000FFF7F0FE05460E46504659464246FFF7EE
:101CC000DAFE084301D0012000E00020054346EA87
:101CD000E0762C4337430A984FEA4453A0EB0800C0
:101CE0004FEAD4240A304FF0000244EA47544FEA46
:101CF000D72502D500200146D1E701051019694119
:101D0000DDE9084500196941BDE8F04DA0E7C1F3E0
:101D10000A52C1F3130140F2FF3341F480119A4299
:101D200002DA00200146704740F233439A42A2F2A1
:101D3000334202DC5242FFF7ADBEFFF79CBE00000B
:101D400030B5002904DB4FF00044404264EB010150
:101D5000002B04DB4FF00044524264EB0303994232
:101D600008BF904230BD0000064C074D06E0E06819
:101D700040F0010394E8070098471034AC42F6D3D2
:101D8000FEF7B8F9383500085835000800487047A4
:101D90003435000810B50446FFF7F8FF0068005D11
:101DA00000F0010010BD00002DE9FF4F087881B060
:101DB0009946FF2805D0491C2D2804D00024002373
:101DC00008E000230BE00124F9E703EB830300EBB9
:101DD0004303491C0878FF28F7D104B15B42002077
:101DE0000090147801462D2C01D02B2C04D1521CCC
:101DF0002D2C12D00024009400251678FF2E0ED032
:101E00000A24A0FB04C801FB0481002700FB071182
:101E1000521C16EB0C006941EFE70124EBE79944F3
:101E200050EA010206D101980021C0E9001105B075
:101E3000BDE8F08F0024A84D2646DFF8A08200F010
:101E4000CEF982468B46B9F1000002DAC9F10007EB
:101E500014E0074612E0F80707D022462B4630462A
:101E60004146FFF745FC0646884622462B4610466B
:101E70001946FFF73DFC04460D467F10002FEAD1BE
:101E8000B9F1000F324643465046594602DAFFF791
:101E9000A1FC01E0FFF72CFC009A0AB181F000419F
:101EA000019AC2E90001C2E72DE9FF4F1F468DB03C
:101EB000D7E901464FF0FF382E2045464FF0000984
:101EC0000B90B9696D1C0E988847396A824688471D
:101ED0000028F6D11AF101000AD024F4D064002EB3
:101EE00012DDBAF12B0F08D0BAF12D0F0CD102E0A0
:101EF000404611B09CE744F48064B9696D1C0E98AB
:101F000088478246A6F101066946600501D52D2065
:101F100000E02B208DF8000001F1010B0DF12008ED
:101F200009E0B9696D1C0E98884782460F98761EA5
:101F300044F400740560002E02DDBAF1300FF0D0D9
:101F40000B998A453ED144F0800406E00F99681C45
:101F5000A9F1010944F400740860761EB9696D1C8A
:101F60000E98884782463028F0D02BE00B998A459E
:101F700005D1200603D444F08004761E18E05046B4
:101F800000F0CCFE08B3761E0DF1130144F400748A
:101F90008B4508D2AAF130000BF8010B200607D5BB
:101FA000A9F1010003E0200602D409F101008146F5
:101FB000A00502D50F99681C0860B9696D1C0E98C0
:101FC00088478246002ED1DC54E0002E52DDBAF163
:101FD000650F02D0BAF1450F4CD1A0054AD5761E47
:101FE000B96924F440746D1C0E9888478246002E0F
:101FF0000DDD2B2804D0BAF12D0F08D144F48074E4
:10200000B9696D1C0E9888478246A6F10106E00565
:1020100001D52D2100E02B2108F8011BCDF82C80E3
:1020200021E0761E0DF1290144F4007488450CD29C
:10203000AAF1300010F0FF0088F8000002D10B99DF
:10204000884509D908F1010806E0E00501D52448D2
:1020500001E042F20F708146B9696D1C0E98884705
:1020600082460F980560002E04DD504600F056FEB3
:102070000028D6D1F9690E988847FF208BF8000018
:1020800088F800000020069007904B466A4608A991
:1020900006A8FFF789FEA00502D46FF0010028E72B
:1020A00014F0240F0AD0E00714D1DDE906123868D5
:1020B000031D3B600068C0E900120BE0DDE906018A
:1020C000FFF762FC0146E00704D13868021D3A6060
:1020D0000068016028460CE7000024400000F03F43
:1020E000F1D8FFFF426842B1016811F8013B23B10A
:1020F000521EC0E90012184670470121C160881EB7
:10210000704742685AB1C368016843B983688B421B
:1021100005D0491E521CC0E90012002070474FF044
:10212000FF3070472DE9F05F8246007800271546A2
:102130008B460AF10104B946302801D09DB113E065
:1021400014F8010B0127782803D0582801D045B195
:102150000AE00DB1102D07D10027102514F8010B4E
:1021600002E0082500E00A250026B0460EE005FB47
:10217000080005FB06F1012701EB10461FFA80F865
:10218000B6F5803F00D3B94614F8010B294600F09C
:1021900018F80028EBDABBF1000F05D00FB1641E70
:1021A00000E05446CBF80040B9F1000F06D000F033
:1021B000E7FC02210160C81EBDE8F09F48EA064026
:1021C000FAE73A2800D2303820F02002412A01D321
:1021D000A2F13700884201D34FF0FF3070470EB5AF
:1021E00040F2334202920022CDE900221346FFF76B
:1021F0003CFD03B000BD0029816802D041F001011F
:1022000001E021F00101816070470029816802D05E
:1022100041F4807101E021F48071816070470146D2
:1022200089680020490700D5012070470146896868
:102230000020090700D501207047000030B5426832
:102240000E4B0C791A400B6842EA04221343436098
:1022500082680B4B4D791A40D1E9024342EA4502AC
:10226000234313438360C26A097C22F47002491E2F
:10227000C9B242EA0151C16230BD0000FFFEF0FF69
:10228000FDF7F1FF70B5072609290AD9C568A1F144
:102290000A0404EB4404A640B543A3401D43C560B3
:1022A00007E0056901EB4104A640B543A3401D4387
:1022B00005611F23072A09D2446B521E02EB8202DA
:1022C00093409C4391400C43446370BD0D2A09D256
:1022D000046BD21F02EB820293409C4391400C435B
:1022E000046370BDC46A0D3A02EB820293409C43C2
:1022F00091400C43C46270BD816841F00801816067
:1023000070470029816802D041F4A00101E021F466
:10231000A00181607047816841F0040181607047CD
:1023200006490028D1F8080402D040F4000001E07A
:1023300020F40000C1F808047047000000200140AC
:102340000029016802D041F0010101E021F0010102
:10235000016070470268002122F001020260016002
:1023600041608160C160304B2F49C21A8039984268
:1023700045D018DC2D4BA0EB0302984237D00ADC85
:102380002B4A80182BD014282DD0282826D1486815
:1023900040F4706036E0142A2DD0282A1ED14868F7
:1023A00040F470002EE0B2F56C7F32D00ADCB2F55A
:1023B000627F29D0B2F5677F10D1D1F8040440F0D4
:1023C000F00009E0B2F5717F28D0B2F5767F05D133
:1023D000D1F8040440F47020C1F804047047486840
:1023E00040F00F000EE0486840F0F0000AE0486856
:1023F00040F4704006E0486840F4702002E048680D
:1024000040F0706048607047D1F8040440F00F005D
:10241000E2E7D1F8040440F47060DDE7D1F8040489
:1024200040F47040D8E700008000024044000240C1
:10243000F8FFFDBF70B5026847F6F0739A430E6A65
:102440008B680C693343D1E905562C432343CC698F
:1024500033432343D1E909542B43234313430360FC
:10246000CA6842600A6882604968C16070BD000045
:10247000014908607047000014040140054B014603
:102480001A6800205B690A400B4202D0002A00D083
:10249000012070470004014004490A6822F010023C
:1024A0000A600A6802430A60704700000020024088
:1024B00004490A6802F038020A600A6802430A60A6
:1024C0007047000000200240F0B5CB780022DC0607
:1024D00003F00F0301D58C7823430C880F2714F0E9
:1024E000FF0F4FF0010C1CD0D0F800500E880CFAF2
:1024F00002F42640A64210D1960007FA06FE25EA0D
:102500000E0E03FA06F5CE7845EA0E05282E00D108
:102510004461CE78482E00D10461521C082AE5D3CC
:1025200005600A88FF2A1ED94568002202F10806C4
:102530000CFA06F40E882640A64210D1960007FA3F
:1025400006FE25EA0E0E03FA06F5CE7845EA0E05DC
:10255000282E00D14461CE78482E00D10461521C4F
:10256000082AE3D34560F0BD0246926800200A4283
:1025700000D0012070474161704701617047000041
:1025800002494AF6AA200860704700000030004067
:10259000F0B50F23C27801784FF0E024012742B351
:1025A000D4F80C2D467802F4E062C2F5E062120A1B
:1025B000C2F10405D3408278AE401A40324315017F
:1025C0008A07D20E954021F003010B19D3F800645D
:1025D000FF2191408E430D402E43C3F800640078E4
:1025E000410900F01F0004EB81018740C1F8007130
:1025F000F0BD01F01F008740480904EB8000C0F8DF
:102600008071F0BD0249084302490860704700002C
:102610000000FA050CED00E0034A516821F4404146
:10262000014351607047000000100240044A002935
:10263000516901D0014300E08143516170470000BE
:1026400000100240044A0029D16901D0014300E092
:102650008143D1617047000000100240044A002904
:10266000916901D0014300E081439161704700000E
:10267000001002400B48016841F00101016041680F
:10268000094A114041600168084A1140016001682F
:1026900021F4802101604268002122F4FE024260A0
:1026A00081607047001002400000FFF8FFFFF6FE57
:1026B00030B5204A5168204B11F00C0103D0042999
:1026C00001D0082901D0036011E05168022401F40F
:1026D000701104EB91415468184D14F4803F02D0FE
:1026E0005468A40301D5694300E05943016051686F
:1026F000134B01F0F00109095C5C0168E1404160A5
:10270000546804F4E064240A1C5D21FA04F4846033
:10271000546804F46054E40A1B5DD940C1605268F7
:10272000074B02F44042920B1B1F9A5CB1FBF2F183
:10273000016130BD0010024000127A0000093D0026
:10274000A0340008034600205909094A012901D193
:10275000116804E0022901D1116A00E0516A03F016
:102760001F02012393400B4200D00120704700005C
:10277000001002400248406800F00C007047000062
:1027800000100240034A516821F0F00101435160FA
:102790007047000000100240034A516821F4E061D4
:1027A000014351607047000000100240034A516825
:1027B00021F4605141EAC0005060704700100240AF
:1027C000014908667047000000004242034B5A6806
:1027D000084322F47C1210435860704700100240F6
:1027E000034A516821F00301014351607047000022
:1027F00000100240024A1188814311807047000096
:1028000004280040054A918812880140C9B202425A
:1028100002D009B101207047002070470028004015
:102820000029018802D041F0800102E040F27F32AD
:10283000114001807047C943018270470029018817
:1028400002D041F0010102E040F2FE32114001806D
:102850007047002A828901D00A4300E08A438281BE
:102860007047000070B5028C22F010020284028CC6
:102870008388048B22F0200224F4E0450C88164E55
:10288000240645EA14440D892D0542EA15454A8877
:10289000120545EA1242CD88B042058702D00F4D9D
:1028A000A84215D14D8922F080022D0542EA154536
:1028B0008A8825F04005120545EA12428D89C989AA
:1028C000AD0423F40C4343EA1545890445EA11435A
:1028D00083800483028470BD002C014000340140D9
:1028E000028B22F4006242EA01210183704700005A
:1028F00070B5028C22F480720284058C8388828BEE
:102900000C8822F070020E89144325F400753206FB
:1029100045EA12464A88CD88120646EA1242104E0F
:102920008587B04202D00F4DA84215D122F4006530
:102930004A8923F43043120645EA124222F48065A4
:102940008A88120645EA12428D89C9892D0543EA13
:102950001545090545EA114383808483028470BDCF
:10296000002C014000340140828B22F008020A430F
:102970008283704770B5028C22F480520284058CE9
:102980008288838B25F4005523F4E0440B880F4E96
:102990001B0644EA13430C89240745EA14444D8876
:1029A0002D0744EA1545CC88B042A0F8404002D03B
:1029B000074CA04205D18989C2F30D04890544EA78
:1029C000114282808383058470BD0000002C014089
:1029D00000340140828B22F4006242EA01218183AB
:1029E00070470187704781877047A0F84010704793
:1029F00010B5028802F08F020280CA884B880488D2
:102A00001A43224302808A88064C012382850A8861
:102A1000A0420285838202D0034A904201D1097A02
:102A2000018610BD002C0140003401400A0A01213A
:102A30009140C943018070470029818902D041F447
:102A4000005101E021F40051818170470246128853
:102A500000200A4200D00120704770B501F01F0528
:102A600001260024C1F3421306FA05F2012B01D11D
:102A7000838904E0022B01D1038A00E0838A4FEAB4
:102A800011210088134206FA01F600EA060001D07F
:102A900000B10124204670BD10B5C1F3421301F00E
:102AA0001F040121A140012B01D10C3004E0022BB5
:102AB00001D1103000E01430002A026801D00A432E
:102AC00000E08A43026010BD30B50446008A85B03C
:102AD0000D464CF6FF710840E98801432182A08928
:102AE0004EF6F3110840A9882A8911436A890243E6
:102AF0001143A181A08A4FF6FF410840A9890143F3
:102B0000A1826846FFF7D4FD1048844201D10398A2
:102B100000E0029819214843296864228900B0FB2B
:102B2000F1F0B0FBF2F109010B096FF018056B43EE
:102B3000322500EB830005EB0010B0FBF2F000F053
:102B40000F000843208105B030BD0000003801406F
:102B50008088C0F308007047C1F308018180704786
:102B60000FB4054B10B503A9044A029800F0DEF833
:102B700010BC5DF814FB00001B0C0008B400002022
:102B800000487047B8000020014800687047000006
:102B9000B800002002E008C8121F08C1002AFAD1BC
:102BA00070477047002001E001C1121F002AFBD1CD
:102BB000704700000149086070470000B80000201D
:102BC0002DE9FF5FDDE90220010DDDF838B0024399
:102BD00010D10F9801244CA2012808D000210098A0
:102BE0000F9BC0E90021C0E90243BDE8FF9F6FEAE7
:102BF0000B01F4E7A1F2FF3144F6105041430D14EC
:102C00000F9801280ED0A5EB0B00401C4FF00004DC
:102C10003E4EDFF8FC90B0F1000AA04605DACAF19A
:102C2000000717E0CBF10000F0E7074612E0F807D5
:102C300007D02246334640464946FEF759FD8046B6
:102C400089462246334610461946FEF751FD044692
:102C50000E467F10002FEAD1DDE90201BAF1000F24
:102C600042464B4602DAFEF743FD01E0FEF7B2FDB5
:102C700004460E460022274BFFF762F803D84FF0B8
:102C8000FF30014607E00022234B20463146FEF785
:102C900088FCFFF73CF8102409E0002C0ADB0A222C
:102CA0000023FEF7B7FE019B30321A55641E50EA2E
:102CB0000102F2D1641C019AC4F1110314440F9A69
:102CC000012A09D00122084301D15B450FDD4FF0F5
:102CD000000205F101050DE0084303D1A3EB0B054C
:102CE0006D1E09E000204FF0110B0F9088E701DA0C
:102CF00000226D1E002A83D000980F99C0E902318E
:102D0000C0E9004571E700003000000000002440E9
:102D10000000F03F0000F0430000E03F30380A2898
:102D200001D2012070470020704700002DE9FF4FBD
:102D300095B09B4689460646002512E2252878D1A3
:102D40000024761CF94A2746012105943378203B5C
:102D500001FA03F0104202D00443761CF6E7307803
:102D60002A2811D06FF02F033078A0F13002092A01
:102D700016D8059A44F0020402EB820203EB4202E9
:102D80001044761C0590EFE759F8042B0592002AB1
:102D900003DA504244F40054059044F00204761CD7
:102DA00030782E2816D116F8010F44F004042A2892
:102DB0000DD06FF02F023078A0F13003092B09D825
:102DC00007EB870302EB4303C718761CF3E759F8B8
:102DD000047B761C30786C280FD006DC4C2817D08A
:102DE00068280DD06A2814D104E0742810D07A28FD
:102DF0000FD10DE044F400140AE044F4801401E023
:102E000044F440147278824202D1761C04F5801496
:102E1000761C307866280BD013DC582877D009DC74
:102E2000002875D04528F6D04628F4D047281AD176
:102E30009FE118E0632835D0642879D0652812D145
:102E400097E1702873D008DC6728F1D069286FD02B
:102E50006E280DD06F2806D1B5E073282CD07528C8
:102E600075D0782874D05A46179990476D1C76E132
:102E7000C4F30250022809D003280DD0D9F800105D
:102E800004280DD00D6009F1040968E1D9F800109B
:102E9000EA17C1E90052F6E7D9F800100D80F2E711
:102EA0000D70F0E719F8041B8DF8001000208DF864
:102EB0000100EA46012003E059F804AB4FF0FF306F
:102EC00061074FF0000102D40DE008F101018846CE
:102ED000B9420FDA8045F8DB1AF808100029F4D15E
:102EE00008E008F1010188468142FADB1AF808106F
:102EF0000029F6D105985B46A0EB08072146384625
:102F0000179A00F09EFA284400EB080507E04DE010
:102F10002BE10DE01AF8010B5A4617999047B8F1CA
:102F20000108F7D25B4621463846179A14E142E081
:102F30000A220092C4F302524FF0000A022A08D07B
:102F400059F804CB032A4FEAEC710AD00DE029E0CE
:102F50002AE009F1070121F00702F2E802C19146D7
:102F600009E00FFA8CFC4FEAEC71042A03D14FFA06
:102F70008CFC4FEAEC71002907DA0A460021DCF1EB
:102F8000000C61EB02012D2202E0220504D52B2268
:102F90008DF80420012203E0E20701D02022F7E7A8
:102FA000904653E00A2102E010220DE010214FF07C
:102FB000000A00910BE010224FF0000A44F00404D4
:102FC0000827009203E008224FF0000A0092C4F3A1
:102FD0000252022A05D059F804CB0021032A08D056
:102FE00009E009F1070121F00702F2E802C1914668
:102FF00005E01FFA8CFC042A01D10CF0FF0C4FF005
:103000000008220722D5702827D0009B83F01003E8
:1030100053EA0A0309D15CEA010206D030228DF896
:1030200004208DF8050002229046009B83F00803DF
:1030300053EA0A030AD15CEA010201D1620705D50D
:1030400030228DF804204FF001087F1E582809D047
:1030500037A003900EA8029013E040228DF80420C0
:103060000122E1E737A0F4E753466046009AFEF7F5
:10307000D1FC84460398825C0298A0F10100029082
:1030800002705CEA0100EFD1029806A9A1EB0000F2
:1030900000F1200A600702D524F4803400E0012703
:1030A000574502DDA7EB0A0000E0002000EB0A0113
:1030B000009005984144A0EB01000590E00306D480
:1030C0005B462146179A059800F0BBF90544002796
:1030D00006E001A85A46C05D179990476D1C7F1CF9
:1030E0004745F6DBE0030CD55B462146179A059869
:1030F00000F0A7F9054404E030205A46179990479C
:103100006D1C0099481E00900029F5DC08E002982B
:1031100002995A460078491C0291179990476D1CF4
:10312000BAF10001AAF1010AF1DC6BE10928010002
:10313000303132333435363738396162636465662D
:1031400000000000303132333435363738394142EF
:10315000434445460000000000F060F9054406F1D4
:103160000106307800287FF4E9AD19B02846BDE8A3
:10317000F08F620700D4062709F1070222F0070C3E
:10318000FCE80223E14603F000485FEA080C02D0A5
:103190000FF27C2C0DE05FEA045C02D50FF2742C78
:1031A00007E05FEAC47C02D00FF26C2C01E0AFF2C2
:1031B000700C4FF0FF3823F00043CDF850C0652865
:1031C0000CD006DC452809D046281DD047283ED122
:1031D0003EE0662818D0672839D139E00021112F48
:1031E00001DB112000E0781CCDE9000106A90EA842
:1031F000FFF7E6FCDDE90F010E9A03910021009232
:1032000007F1010A04914EE04FF000400097CDE92C
:10321000011006A90EA8FFF7D3FCDDE90F02039207
:103220000E9B11990022DDF80CA00093049219B9AD
:1032300007F1010100EB010AB7EB0A0004D4C0F169
:10324000FF3007F1010A0490AAEB0700019046E065
:10325000012F00DA01270021112F01DD112000E0EC
:103260003846CDE9000106A90EA8FFF7A9FCDDE963
:103270000F010E9A0391002104910092BA46210792
:103280000CD40399514500DA8A46BAF1010F05DDE5
:10329000009AAAF10101515C302908D0B84202DA43
:1032A00010F1040F06DA0121CDE9011017E0AAF1AF
:1032B0000101E9E7002805DC049901440491AAEB27
:1032C000000102E0411C514500DD8A460499A0EB53
:1032D000010000F1010001904FF000400290200732
:1032E00004D40198504501DBCDF8048000208DF80E
:1032F0004F0002980DF14F07B0F1004F25D02B2061
:103300000E9002984FF0020800280CDA404202901A
:103310002D200E9007E00A210298FEF765FB303160
:10332000029007F8011DB8F10001A8F10108F2DCD4
:1033300002980028EFD1791E0E980870307800F0BE
:10334000200040F0450007F8020D12A8A0EB07008E
:1033500000F107081498007800B1012000EB0A0181
:10336000019801EBE07105984144A0EB0100A0F148
:1033700001000590E00306D45B462146179A0598A4
:1033800000F05FF805441498007820B15A46179968
:10339000904705F10105E00323D55B462146179AC6
:1033A000059800F04EF805441BE00498002807DB60
:1033B000DDE90301884203DD0098405C179901E0D4
:1033C000179930205A46904704986D1C401C049071
:1033D0000198401E019004D12E205A46179990471B
:1033E0006D1CBAF10001AAF1010ADEDC05E017F854
:1033F000010B5A46179990476D1CB8F10001A8F1CE
:103400000108F4DC5B462146179A0598A4E6000003
:103410002D0000002B000000200000002DE9F041ED
:10342000044600251E461746880405D406E03946A2
:103430002020B04705F10105641EF8D52846BDE8F7
:10344000F0812DE9F041044600251E469046C80350
:1034500001D5302700E02027880405D506E0414645
:103460003846B04705F10105641EF8D52846BDE889
:10347000F08130B583B004460020CDE90000FFF7AD
:1034800083FB0546002221466846FEF740FB28469E
:10349000FFF790FBDDE9000103B030BD0204060830
:1034A00000000000010203040102030406070809EA
:1034B0000040404040404040404041414141414047
:1034C00040404040404040404040404040404040FC
:1034D000400502020202020202020202020202028B
:1034E0000220202020202020202020020202020290
:1034F00002029090909090901010101010101010E8
:1035000010101010101010101010101002020202F3
:103510000202888888888888080808080808080837
:103520000808080808080808080808080202020233
:1035300040000000B13400085835000800000020A9
:10354000BC000000942B000814360008BC000020CA
:103550002C130000A42B0008323031392D30352DCA
:1035600031342066726F7A656E20736F696C2064E7
:10357000617461206C6F676765722056312E300070
:10358000047E00000000C84400002041000000004C
:10359000000000000000000000000000000000002B
:1035A000000000000000000000000000000000001B
:1035B0000000000000000000000048454C500000E2
:1035C00000000000000050574D0000000000000007
:1035D0000000524553495354414E43450000564F55
:1035E0004C5441474500000000004741494E00004F
:1035F0000000000000005448524553484F4C44001E
:1036000000000000000000000000000000000000BA
:0436100000000000B6
:04000005080000ED02
:00000001FF
